{
  "contractName": "Carnival",
  "abi": [
    {
      "inputs": [
        {
          "internalType": "string",
          "name": "_name",
          "type": "string"
        },
        {
          "internalType": "string",
          "name": "_symbol",
          "type": "string"
        },
        {
          "internalType": "string",
          "name": "_baseURI",
          "type": "string"
        }
      ],
      "stateMutability": "nonpayable",
      "type": "constructor"
    },
    {
      "anonymous": false,
      "inputs": [
        {
          "indexed": true,
          "internalType": "address",
          "name": "account",
          "type": "address"
        },
        {
          "indexed": true,
          "internalType": "address",
          "name": "operator",
          "type": "address"
        },
        {
          "indexed": false,
          "internalType": "bool",
          "name": "approved",
          "type": "bool"
        }
      ],
      "name": "ApprovalForAll",
      "type": "event"
    },
    {
      "anonymous": false,
      "inputs": [
        {
          "indexed": true,
          "internalType": "address",
          "name": "previousOwner",
          "type": "address"
        },
        {
          "indexed": true,
          "internalType": "address",
          "name": "newOwner",
          "type": "address"
        }
      ],
      "name": "OwnershipTransferred",
      "type": "event"
    },
    {
      "anonymous": false,
      "inputs": [
        {
          "indexed": true,
          "internalType": "address",
          "name": "operator",
          "type": "address"
        },
        {
          "indexed": true,
          "internalType": "address",
          "name": "from",
          "type": "address"
        },
        {
          "indexed": true,
          "internalType": "address",
          "name": "to",
          "type": "address"
        },
        {
          "indexed": false,
          "internalType": "uint256[]",
          "name": "ids",
          "type": "uint256[]"
        },
        {
          "indexed": false,
          "internalType": "uint256[]",
          "name": "values",
          "type": "uint256[]"
        }
      ],
      "name": "TransferBatch",
      "type": "event"
    },
    {
      "anonymous": false,
      "inputs": [
        {
          "indexed": true,
          "internalType": "address",
          "name": "operator",
          "type": "address"
        },
        {
          "indexed": true,
          "internalType": "address",
          "name": "from",
          "type": "address"
        },
        {
          "indexed": true,
          "internalType": "address",
          "name": "to",
          "type": "address"
        },
        {
          "indexed": false,
          "internalType": "uint256",
          "name": "id",
          "type": "uint256"
        },
        {
          "indexed": false,
          "internalType": "uint256",
          "name": "value",
          "type": "uint256"
        }
      ],
      "name": "TransferSingle",
      "type": "event"
    },
    {
      "anonymous": false,
      "inputs": [
        {
          "indexed": false,
          "internalType": "string",
          "name": "value",
          "type": "string"
        },
        {
          "indexed": true,
          "internalType": "uint256",
          "name": "id",
          "type": "uint256"
        }
      ],
      "name": "URI",
      "type": "event"
    },
    {
      "inputs": [
        {
          "internalType": "address",
          "name": "_initialOwner",
          "type": "address"
        },
        {
          "internalType": "uint256",
          "name": "_initialSupply",
          "type": "uint256"
        },
        {
          "internalType": "string",
          "name": "_uri",
          "type": "string"
        },
        {
          "internalType": "bytes",
          "name": "_data",
          "type": "bytes"
        }
      ],
      "name": "_createNFT",
      "outputs": [
        {
          "internalType": "uint256",
          "name": "",
          "type": "uint256"
        }
      ],
      "stateMutability": "nonpayable",
      "type": "function"
    },
    {
      "inputs": [
        {
          "internalType": "address",
          "name": "account",
          "type": "address"
        },
        {
          "internalType": "uint256",
          "name": "id",
          "type": "uint256"
        }
      ],
      "name": "balanceOf",
      "outputs": [
        {
          "internalType": "uint256",
          "name": "",
          "type": "uint256"
        }
      ],
      "stateMutability": "view",
      "type": "function",
      "constant": true
    },
    {
      "inputs": [
        {
          "internalType": "address[]",
          "name": "accounts",
          "type": "address[]"
        },
        {
          "internalType": "uint256[]",
          "name": "ids",
          "type": "uint256[]"
        }
      ],
      "name": "balanceOfBatch",
      "outputs": [
        {
          "internalType": "uint256[]",
          "name": "",
          "type": "uint256[]"
        }
      ],
      "stateMutability": "view",
      "type": "function",
      "constant": true
    },
    {
      "inputs": [
        {
          "internalType": "address",
          "name": "_to",
          "type": "address"
        },
        {
          "internalType": "uint256[]",
          "name": "_ids",
          "type": "uint256[]"
        },
        {
          "internalType": "uint256[]",
          "name": "_quantities",
          "type": "uint256[]"
        },
        {
          "internalType": "bytes",
          "name": "_data",
          "type": "bytes"
        }
      ],
      "name": "batchMint",
      "outputs": [],
      "stateMutability": "nonpayable",
      "type": "function"
    },
    {
      "inputs": [
        {
          "internalType": "uint256",
          "name": "",
          "type": "uint256"
        }
      ],
      "name": "creators",
      "outputs": [
        {
          "internalType": "address",
          "name": "",
          "type": "address"
        }
      ],
      "stateMutability": "view",
      "type": "function",
      "constant": true
    },
    {
      "inputs": [],
      "name": "getName",
      "outputs": [
        {
          "internalType": "string",
          "name": "",
          "type": "string"
        }
      ],
      "stateMutability": "view",
      "type": "function",
      "constant": true
    },
    {
      "inputs": [],
      "name": "getSymbol",
      "outputs": [
        {
          "internalType": "string",
          "name": "",
          "type": "string"
        }
      ],
      "stateMutability": "view",
      "type": "function",
      "constant": true
    },
    {
      "inputs": [
        {
          "internalType": "address",
          "name": "account",
          "type": "address"
        },
        {
          "internalType": "address",
          "name": "operator",
          "type": "address"
        }
      ],
      "name": "isApprovedForAll",
      "outputs": [
        {
          "internalType": "bool",
          "name": "",
          "type": "bool"
        }
      ],
      "stateMutability": "view",
      "type": "function",
      "constant": true
    },
    {
      "inputs": [
        {
          "internalType": "address",
          "name": "_to",
          "type": "address"
        },
        {
          "internalType": "uint256",
          "name": "_id",
          "type": "uint256"
        },
        {
          "internalType": "uint256",
          "name": "_quantity",
          "type": "uint256"
        },
        {
          "internalType": "bytes",
          "name": "_data",
          "type": "bytes"
        }
      ],
      "name": "mint",
      "outputs": [],
      "stateMutability": "nonpayable",
      "type": "function"
    },
    {
      "inputs": [],
      "name": "name",
      "outputs": [
        {
          "internalType": "string",
          "name": "",
          "type": "string"
        }
      ],
      "stateMutability": "view",
      "type": "function",
      "constant": true
    },
    {
      "inputs": [],
      "name": "owner",
      "outputs": [
        {
          "internalType": "address",
          "name": "",
          "type": "address"
        }
      ],
      "stateMutability": "view",
      "type": "function",
      "constant": true
    },
    {
      "inputs": [
        {
          "internalType": "uint256",
          "name": "",
          "type": "uint256"
        },
        {
          "internalType": "uint256",
          "name": "",
          "type": "uint256"
        }
      ],
      "name": "relatedNFTs",
      "outputs": [
        {
          "internalType": "uint256",
          "name": "",
          "type": "uint256"
        }
      ],
      "stateMutability": "view",
      "type": "function",
      "constant": true
    },
    {
      "inputs": [],
      "name": "renounceOwnership",
      "outputs": [],
      "stateMutability": "nonpayable",
      "type": "function"
    },
    {
      "inputs": [
        {
          "internalType": "address",
          "name": "from",
          "type": "address"
        },
        {
          "internalType": "address",
          "name": "to",
          "type": "address"
        },
        {
          "internalType": "uint256[]",
          "name": "ids",
          "type": "uint256[]"
        },
        {
          "internalType": "uint256[]",
          "name": "amounts",
          "type": "uint256[]"
        },
        {
          "internalType": "bytes",
          "name": "data",
          "type": "bytes"
        }
      ],
      "name": "safeBatchTransferFrom",
      "outputs": [],
      "stateMutability": "nonpayable",
      "type": "function"
    },
    {
      "inputs": [
        {
          "internalType": "address",
          "name": "from",
          "type": "address"
        },
        {
          "internalType": "address",
          "name": "to",
          "type": "address"
        },
        {
          "internalType": "uint256",
          "name": "id",
          "type": "uint256"
        },
        {
          "internalType": "uint256",
          "name": "amount",
          "type": "uint256"
        },
        {
          "internalType": "bytes",
          "name": "data",
          "type": "bytes"
        }
      ],
      "name": "safeTransferFrom",
      "outputs": [],
      "stateMutability": "nonpayable",
      "type": "function"
    },
    {
      "inputs": [
        {
          "internalType": "address",
          "name": "operator",
          "type": "address"
        },
        {
          "internalType": "bool",
          "name": "approved",
          "type": "bool"
        }
      ],
      "name": "setApprovalForAll",
      "outputs": [],
      "stateMutability": "nonpayable",
      "type": "function"
    },
    {
      "inputs": [
        {
          "internalType": "string",
          "name": "_newBaseMetadataURI",
          "type": "string"
        }
      ],
      "name": "setBaseMetadataURI",
      "outputs": [],
      "stateMutability": "nonpayable",
      "type": "function"
    },
    {
      "inputs": [
        {
          "internalType": "address",
          "name": "_to",
          "type": "address"
        },
        {
          "internalType": "uint256[]",
          "name": "_ids",
          "type": "uint256[]"
        }
      ],
      "name": "setCreator",
      "outputs": [],
      "stateMutability": "nonpayable",
      "type": "function"
    },
    {
      "inputs": [
        {
          "internalType": "uint256",
          "name": "",
          "type": "uint256"
        },
        {
          "internalType": "address",
          "name": "",
          "type": "address"
        }
      ],
      "name": "shares",
      "outputs": [
        {
          "internalType": "uint256",
          "name": "",
          "type": "uint256"
        }
      ],
      "stateMutability": "view",
      "type": "function",
      "constant": true
    },
    {
      "inputs": [
        {
          "internalType": "uint256",
          "name": "",
          "type": "uint256"
        }
      ],
      "name": "specialSwag",
      "outputs": [
        {
          "internalType": "uint256",
          "name": "",
          "type": "uint256"
        }
      ],
      "stateMutability": "view",
      "type": "function",
      "constant": true
    },
    {
      "inputs": [
        {
          "internalType": "uint256",
          "name": "",
          "type": "uint256"
        },
        {
          "internalType": "uint256",
          "name": "",
          "type": "uint256"
        }
      ],
      "name": "subowners",
      "outputs": [
        {
          "internalType": "address",
          "name": "",
          "type": "address"
        }
      ],
      "stateMutability": "view",
      "type": "function",
      "constant": true
    },
    {
      "inputs": [
        {
          "internalType": "bytes4",
          "name": "interfaceId",
          "type": "bytes4"
        }
      ],
      "name": "supportsInterface",
      "outputs": [
        {
          "internalType": "bool",
          "name": "",
          "type": "bool"
        }
      ],
      "stateMutability": "view",
      "type": "function",
      "constant": true
    },
    {
      "inputs": [],
      "name": "symbol",
      "outputs": [
        {
          "internalType": "string",
          "name": "",
          "type": "string"
        }
      ],
      "stateMutability": "view",
      "type": "function",
      "constant": true
    },
    {
      "inputs": [
        {
          "internalType": "uint256",
          "name": "",
          "type": "uint256"
        }
      ],
      "name": "tokenSupply",
      "outputs": [
        {
          "internalType": "uint256",
          "name": "",
          "type": "uint256"
        }
      ],
      "stateMutability": "view",
      "type": "function",
      "constant": true
    },
    {
      "inputs": [
        {
          "internalType": "uint256",
          "name": "_id",
          "type": "uint256"
        }
      ],
      "name": "totalSupply",
      "outputs": [
        {
          "internalType": "uint256",
          "name": "",
          "type": "uint256"
        }
      ],
      "stateMutability": "view",
      "type": "function",
      "constant": true
    },
    {
      "inputs": [
        {
          "internalType": "address",
          "name": "newOwner",
          "type": "address"
        }
      ],
      "name": "transferOwnership",
      "outputs": [],
      "stateMutability": "nonpayable",
      "type": "function"
    },
    {
      "inputs": [
        {
          "internalType": "uint256",
          "name": "",
          "type": "uint256"
        }
      ],
      "name": "uri",
      "outputs": [
        {
          "internalType": "string",
          "name": "",
          "type": "string"
        }
      ],
      "stateMutability": "view",
      "type": "function",
      "constant": true
    },
    {
      "inputs": [
        {
          "internalType": "uint256",
          "name": "rate",
          "type": "uint256"
        }
      ],
      "name": "setStreamingRate",
      "outputs": [],
      "stateMutability": "nonpayable",
      "type": "function"
    },
    {
      "inputs": [],
      "name": "getStreamingRate",
      "outputs": [
        {
          "internalType": "uint256",
          "name": "",
          "type": "uint256"
        }
      ],
      "stateMutability": "view",
      "type": "function",
      "constant": true
    },
    {
      "inputs": [
        {
          "internalType": "address",
          "name": "_producer",
          "type": "address"
        },
        {
          "internalType": "string",
          "name": "_uri",
          "type": "string"
        }
      ],
      "name": "uploadVideo",
      "outputs": [
        {
          "internalType": "uint256",
          "name": "",
          "type": "uint256"
        }
      ],
      "stateMutability": "nonpayable",
      "type": "function"
    },
    {
      "inputs": [
        {
          "internalType": "uint256",
          "name": "_tokenId",
          "type": "uint256"
        },
        {
          "internalType": "address[]",
          "name": "_subowners",
          "type": "address[]"
        },
        {
          "internalType": "uint256[]",
          "name": "_share",
          "type": "uint256[]"
        }
      ],
      "name": "addFractionalOwners",
      "outputs": [],
      "stateMutability": "nonpayable",
      "type": "function"
    },
    {
      "inputs": [
        {
          "internalType": "uint256",
          "name": "_tokenId",
          "type": "uint256"
        },
        {
          "internalType": "uint256",
          "name": "_quantity",
          "type": "uint256"
        },
        {
          "internalType": "string",
          "name": "_uri",
          "type": "string"
        }
      ],
      "name": "createSwagNFT",
      "outputs": [
        {
          "internalType": "uint256",
          "name": "",
          "type": "uint256"
        }
      ],
      "stateMutability": "nonpayable",
      "type": "function"
    },
    {
      "inputs": [
        {
          "internalType": "uint256",
          "name": "_tokenId",
          "type": "uint256"
        },
        {
          "internalType": "string",
          "name": "_uri",
          "type": "string"
        }
      ],
      "name": "createSpecialSwag",
      "outputs": [
        {
          "internalType": "uint256",
          "name": "",
          "type": "uint256"
        }
      ],
      "stateMutability": "nonpayable",
      "type": "function"
    }
  ],
  "bytecode": "0x60806040526000600655600a6009553480156200001b57600080fd5b506040516200505c3803806200505c8339818101604052810190620000419190620002cd565b828282806200005681620000b560201b60201c565b50620000776200006b620000d160201b60201c565b620000d960201b60201c565b82600490805190602001906200008f9291906200019f565b508160059080519060200190620000a89291906200019f565b505050505050506200050a565b8060029080519060200190620000cd9291906200019f565b5050565b600033905090565b6000600360009054906101000a900473ffffffffffffffffffffffffffffffffffffffff16905081600360006101000a81548173ffffffffffffffffffffffffffffffffffffffff021916908373ffffffffffffffffffffffffffffffffffffffff1602179055508173ffffffffffffffffffffffffffffffffffffffff168173ffffffffffffffffffffffffffffffffffffffff167f8be0079c531659141344cd1fd0a4f28419497f9722a3daafe3b4186f6b6457e060405160405180910390a35050565b828054620001ad906200041b565b90600052602060002090601f016020900481019282620001d157600085556200021d565b82601f10620001ec57805160ff19168380011785556200021d565b828001600101855582156200021d579182015b828111156200021c578251825591602001919060010190620001ff565b5b5090506200022c919062000230565b5090565b5b808211156200024b57600081600090555060010162000231565b5090565b6000620002666200026084620003af565b62000386565b905082815260208101848484011115620002855762000284620004ea565b5b62000292848285620003e5565b509392505050565b600082601f830112620002b257620002b1620004e5565b5b8151620002c48482602086016200024f565b91505092915050565b600080600060608486031215620002e957620002e8620004f4565b5b600084015167ffffffffffffffff8111156200030a5762000309620004ef565b5b62000318868287016200029a565b935050602084015167ffffffffffffffff8111156200033c576200033b620004ef565b5b6200034a868287016200029a565b925050604084015167ffffffffffffffff8111156200036e576200036d620004ef565b5b6200037c868287016200029a565b9150509250925092565b600062000392620003a5565b9050620003a0828262000451565b919050565b6000604051905090565b600067ffffffffffffffff821115620003cd57620003cc620004b6565b5b620003d882620004f9565b9050602081019050919050565b60005b8381101562000405578082015181840152602081019050620003e8565b8381111562000415576000848401525b50505050565b600060028204905060018216806200043457607f821691505b602082108114156200044b576200044a62000487565b5b50919050565b6200045c82620004f9565b810181811067ffffffffffffffff821117156200047e576200047d620004b6565b5b80604052505050565b7f4e487b7100000000000000000000000000000000000000000000000000000000600052602260045260246000fd5b7f4e487b7100000000000000000000000000000000000000000000000000000000600052604160045260246000fd5b600080fd5b600080fd5b600080fd5b600080fd5b6000601f19601f8301169050919050565b614b42806200051a6000396000f3fe608060405234801561001057600080fd5b50600436106101fa5760003560e01c806395d89b411161011a578063cd53d08e116100ad578063e985e9c51161007c578063e985e9c514610621578063f242432a14610651578063f2fde38b1461066d578063f7accee914610689578063fdd69b37146106b9576101fa565b8063cd53d08e14610589578063d2a6b51a146105b9578063e64fe763146105d5578063e68aeae214610605576101fa565b8063bd85b039116100e9578063bd85b039146104c9578063bd9c3a6d146104f9578063c2ef07b914610529578063c6388b3d14610559576101fa565b806395d89b411461044357806398de626414610461578063a22cb46514610491578063b48ab8b6146104ad576101fa565b80632eb2c2d6116101925780637e518ec8116101615780637e518ec8146103bb57806382481d49146103d7578063825fbbc4146104075780638da5cb5b14610425576101fa565b80632eb2c2d6146103495780634e1273f414610365578063715018a614610395578063731133e91461039f576101fa565b806315070401116101ce57806315070401146102ad578063160a1f42146102cb57806317d7de7c146102fb5780632693ebf214610319576101fa565b8062fdd58e146101ff57806301ffc9a71461022f57806306fdde031461025f5780630e89341c1461027d575b600080fd5b61021960048036038101906102149190613389565b6106d5565b6040516102269190613ffd565b60405180910390f35b61024960048036038101906102449190613568565b61079e565b6040516102569190613d3c565b60405180910390f35b610267610880565b6040516102749190613d7b565b60405180910390f35b6102976004803603810190610292919061360b565b61090e565b6040516102a49190613d7b565b60405180910390f35b6102b56109a2565b6040516102c29190613d7b565b60405180910390f35b6102e560048036038101906102e09190613768565b610a34565b6040516102f29190613c06565b60405180910390f35b610303610a82565b6040516103109190613d7b565b60405180910390f35b610333600480360381019061032e919061360b565b610b14565b6040516103409190613ffd565b60405180910390f35b610363600480360381019061035e919061306c565b610b2c565b005b61037f600480360381019061037a91906134f0565b610bcd565b60405161038c9190613ce3565b60405180910390f35b61039d610ce6565b005b6103b960048036038101906103b4919061346d565b610d6e565b005b6103d560048036038101906103d091906135c2565b610e60565b005b6103f160048036038101906103ec9190613638565b610ee8565b6040516103fe9190613ffd565b60405180910390f35b61040f610f0d565b60405161041c9190613ffd565b60405180910390f35b61042d610f17565b60405161043a9190613c06565b60405180910390f35b61044b610f41565b6040516104589190613d7b565b60405180910390f35b61047b60048036038101906104769190613768565b610fcf565b6040516104889190613ffd565b60405180910390f35b6104ab60048036038101906104a691906132e9565b611000565b005b6104c760048036038101906104c2919061322e565b611181565b005b6104e360048036038101906104de919061360b565b6112d1565b6040516104f09190613ffd565b60405180910390f35b610513600480360381019061050e91906133c9565b6112ee565b6040516105209190613ffd565b60405180910390f35b610543600480360381019061053e9190613329565b6113cd565b6040516105509190613ffd565b60405180910390f35b610573600480360381019061056e919061360b565b6113fa565b6040516105809190613ffd565b60405180910390f35b6105a3600480360381019061059e919061360b565b611412565b6040516105b09190613c06565b60405180910390f35b6105d360048036038101906105ce91906131d2565b611445565b005b6105ef60048036038101906105ea91906137a8565b611503565b6040516105fc9190613ffd565b60405180910390f35b61061f600480360381019061061a919061360b565b61160c565b005b61063b6004803603810190610636919061302c565b611692565b6040516106489190613d3c565b60405180910390f35b61066b6004803603810190610666919061313b565b611726565b005b61068760048036038101906106829190612fff565b6117c7565b005b6106a3600480360381019061069e9190613708565b6118bf565b6040516106b09190613ffd565b60405180910390f35b6106d360048036038101906106ce9190613678565b6119a6565b005b60008073ffffffffffffffffffffffffffffffffffffffff168373ffffffffffffffffffffffffffffffffffffffff161415610746576040517f08c379a000000000000000000000000000000000000000000000000000000000815260040161073d90613ddd565b60405180910390fd5b60008083815260200190815260200160002060008473ffffffffffffffffffffffffffffffffffffffff1673ffffffffffffffffffffffffffffffffffffffff16815260200190815260200160002054905092915050565b60007fd9b67a26000000000000000000000000000000000000000000000000000000007bffffffffffffffffffffffffffffffffffffffffffffffffffffffff1916827bffffffffffffffffffffffffffffffffffffffffffffffffffffffff1916148061086957507f0e89341c000000000000000000000000000000000000000000000000000000007bffffffffffffffffffffffffffffffffffffffffffffffffffffffff1916827bffffffffffffffffffffffffffffffffffffffffffffffffffffffff1916145b80610879575061087882611be6565b5b9050919050565b6004805461088d9061429d565b80601f01602080910402602001604051908101604052809291908181526020018280546108b99061429d565b80156109065780601f106108db57610100808354040283529160200191610906565b820191906000526020600020905b8154815290600101906020018083116108e957829003601f168201915b505050505081565b60606002805461091d9061429d565b80601f01602080910402602001604051908101604052809291908181526020018280546109499061429d565b80156109965780601f1061096b57610100808354040283529160200191610996565b820191906000526020600020905b81548152906001019060200180831161097957829003601f168201915b50505050509050919050565b6060600580546109b19061429d565b80601f01602080910402602001604051908101604052809291908181526020018280546109dd9061429d565b8015610a2a5780601f106109ff57610100808354040283529160200191610a2a565b820191906000526020600020905b815481529060010190602001808311610a0d57829003601f168201915b5050505050905090565b600a6020528160005260406000208181548110610a5057600080fd5b906000526020600020016000915091509054906101000a900473ffffffffffffffffffffffffffffffffffffffff1681565b606060048054610a919061429d565b80601f0160208091040260200160405190810160405280929190818152602001828054610abd9061429d565b8015610b0a5780601f10610adf57610100808354040283529160200191610b0a565b820191906000526020600020905b815481529060010190602001808311610aed57829003601f168201915b5050505050905090565b60086020528060005260406000206000915090505481565b610b34611c50565b73ffffffffffffffffffffffffffffffffffffffff168573ffffffffffffffffffffffffffffffffffffffff161480610b7a5750610b7985610b74611c50565b611692565b5b610bb9576040517f08c379a0000000000000000000000000000000000000000000000000000000008152600401610bb090613e7d565b60405180910390fd5b610bc68585858585611c58565b5050505050565b60608151835114610c13576040517f08c379a0000000000000000000000000000000000000000000000000000000008152600401610c0a90613f7d565b60405180910390fd5b6000835167ffffffffffffffff811115610c3057610c2f6143d6565b5b604051908082528060200260200182016040528015610c5e5781602001602082028036833780820191505090505b50905060005b8451811015610cdb57610cab858281518110610c8357610c826143a7565b5b6020026020010151858381518110610c9e57610c9d6143a7565b5b60200260200101516106d5565b828281518110610cbe57610cbd6143a7565b5b60200260200101818152505080610cd490614300565b9050610c64565b508091505092915050565b610cee611c50565b73ffffffffffffffffffffffffffffffffffffffff16610d0c610f17565b73ffffffffffffffffffffffffffffffffffffffff1614610d62576040517f08c379a0000000000000000000000000000000000000000000000000000000008152600401610d5990613edd565b60405180910390fd5b610d6c6000611f6c565b565b823373ffffffffffffffffffffffffffffffffffffffff166007600083815260200190815260200160002060009054906101000a900473ffffffffffffffffffffffffffffffffffffffff1673ffffffffffffffffffffffffffffffffffffffff1614610e10576040517f08c379a0000000000000000000000000000000000000000000000000000000008152600401610e0790613e9d565b60405180910390fd5b610e1c85858585612032565b610e428360086000878152602001908152602001600020546121c890919063ffffffff16565b60086000868152602001908152602001600020819055505050505050565b610e68611c50565b73ffffffffffffffffffffffffffffffffffffffff16610e86610f17565b73ffffffffffffffffffffffffffffffffffffffff1614610edc576040517f08c379a0000000000000000000000000000000000000000000000000000000008152600401610ed390613edd565b60405180910390fd5b610ee5816121de565b50565b600b602052816000526040600020602052806000526040600020600091509150505481565b6000600954905090565b6000600360009054906101000a900473ffffffffffffffffffffffffffffffffffffffff16905090565b60058054610f4e9061429d565b80601f0160208091040260200160405190810160405280929190818152602001828054610f7a9061429d565b8015610fc75780601f10610f9c57610100808354040283529160200191610fc7565b820191906000526020600020905b815481529060010190602001808311610faa57829003601f168201915b505050505081565b600c6020528160005260406000208181548110610feb57600080fd5b90600052602060002001600091509150505481565b8173ffffffffffffffffffffffffffffffffffffffff1661101f611c50565b73ffffffffffffffffffffffffffffffffffffffff161415611076576040517f08c379a000000000000000000000000000000000000000000000000000000000815260040161106d90613f5d565b60405180910390fd5b8060016000611083611c50565b73ffffffffffffffffffffffffffffffffffffffff1673ffffffffffffffffffffffffffffffffffffffff16815260200190815260200160002060008473ffffffffffffffffffffffffffffffffffffffff1673ffffffffffffffffffffffffffffffffffffffff16815260200190815260200160002060006101000a81548160ff0219169083151502179055508173ffffffffffffffffffffffffffffffffffffffff16611130611c50565b73ffffffffffffffffffffffffffffffffffffffff167f17307eab39ab6107e8899845ad3d59bd9653f200f220920489ca2b5937696c31836040516111759190613d3c565b60405180910390a35050565b60005b83518110156112be5760008482815181106111a2576111a16143a7565b5b602002602001015190503373ffffffffffffffffffffffffffffffffffffffff166007600083815260200190815260200160002060009054906101000a900473ffffffffffffffffffffffffffffffffffffffff1673ffffffffffffffffffffffffffffffffffffffff161461124d576040517f08c379a000000000000000000000000000000000000000000000000000000000815260040161124490613efd565b60405180910390fd5b6000848381518110611262576112616143a7565b5b602002602001015190506112928160086000858152602001908152602001600020546121c890919063ffffffff16565b6008600084815260200190815260200160002081905550505080806112b690614300565b915050611184565b506112cb848484846121f8565b50505050565b600060086000838152602001908152602001600020549050919050565b6000806112f9612416565b9050611303612433565b336007600083815260200190815260200160002060006101000a81548173ffffffffffffffffffffffffffffffffffffffff021916908373ffffffffffffffffffffffffffffffffffffffff160217905550600085859050111561139c57807f6bb7ff708619ba0610cba295a58592e0451dee2622938c8755667688daf3529b8686604051611393929190613d57565b60405180910390a25b6113a887828886612032565b8560086000838152602001908152602001600020819055508091505095945050505050565b6000806113ed8560018686604051806020016040528060008152506112ee565b9050809150509392505050565b600d6020528060005260406000206000915090505481565b60076020528060005260406000206000915054906101000a900473ffffffffffffffffffffffffffffffffffffffff1681565b600073ffffffffffffffffffffffffffffffffffffffff168273ffffffffffffffffffffffffffffffffffffffff1614156114b5576040517f08c379a00000000000000000000000000000000000000000000000000000000081526004016114ac90613f3d565b60405180910390fd5b60005b81518110156114fe5760008282815181106114d6576114d56143a7565b5b602002602001015190506114ea848261244d565b5080806114f690614300565b9150506114b8565b505050565b60003373ffffffffffffffffffffffffffffffffffffffff166007600087815260200190815260200160002060009054906101000a900473ffffffffffffffffffffffffffffffffffffffff1673ffffffffffffffffffffffffffffffffffffffff16146115a6576040517f08c379a000000000000000000000000000000000000000000000000000000000815260040161159d90613fbd565b60405180910390fd5b60006115c433868686604051806020016040528060008152506112ee565b9050600c600087815260200190815260200160002081908060018154018082558091505060019003906000526020600020016000909190919091505580915050949350505050565b611614611c50565b73ffffffffffffffffffffffffffffffffffffffff16611632610f17565b73ffffffffffffffffffffffffffffffffffffffff1614611688576040517f08c379a000000000000000000000000000000000000000000000000000000000815260040161167f90613edd565b60405180910390fd5b8060098190555050565b6000600160008473ffffffffffffffffffffffffffffffffffffffff1673ffffffffffffffffffffffffffffffffffffffff16815260200190815260200160002060008373ffffffffffffffffffffffffffffffffffffffff1673ffffffffffffffffffffffffffffffffffffffff16815260200190815260200160002060009054906101000a900460ff16905092915050565b61172e611c50565b73ffffffffffffffffffffffffffffffffffffffff168573ffffffffffffffffffffffffffffffffffffffff16148061177457506117738561176e611c50565b611692565b5b6117b3576040517f08c379a00000000000000000000000000000000000000000000000000000000081526004016117aa90613e1d565b60405180910390fd5b6117c08585858585612546565b5050505050565b6117cf611c50565b73ffffffffffffffffffffffffffffffffffffffff166117ed610f17565b73ffffffffffffffffffffffffffffffffffffffff1614611843576040517f08c379a000000000000000000000000000000000000000000000000000000000815260040161183a90613edd565b60405180910390fd5b600073ffffffffffffffffffffffffffffffffffffffff168173ffffffffffffffffffffffffffffffffffffffff1614156118b3576040517f08c379a00000000000000000000000000000000000000000000000000000000081526004016118aa90613dfd565b60405180910390fd5b6118bc81611f6c565b50565b60003373ffffffffffffffffffffffffffffffffffffffff166007600086815260200190815260200160002060009054906101000a900473ffffffffffffffffffffffffffffffffffffffff1673ffffffffffffffffffffffffffffffffffffffff1614611962576040517f08c379a000000000000000000000000000000000000000000000000000000000815260040161195990613fbd565b60405180910390fd5b60006119813360018686604051806020016040528060008152506112ee565b905080600d600087815260200190815260200160002081905550809150509392505050565b3373ffffffffffffffffffffffffffffffffffffffff166007600086815260200190815260200160002060009054906101000a900473ffffffffffffffffffffffffffffffffffffffff1673ffffffffffffffffffffffffffffffffffffffff1614611a47576040517f08c379a0000000000000000000000000000000000000000000000000000000008152600401611a3e90613e3d565b60405180910390fd5b80518383905014611a8d576040517f08c379a0000000000000000000000000000000000000000000000000000000008152600401611a8490613f1d565b60405180910390fd5b60005b83839050811015611bdf57600a6000868152602001908152602001600020848483818110611ac157611ac06143a7565b5b9050602002016020810190611ad69190612fff565b9080600181540180825580915050600190039060005260206000200160009091909190916101000a81548173ffffffffffffffffffffffffffffffffffffffff021916908373ffffffffffffffffffffffffffffffffffffffff160217905550818181518110611b4957611b486143a7565b5b6020026020010151600b60008781526020019081526020016000206000868685818110611b7957611b786143a7565b5b9050602002016020810190611b8e9190612fff565b73ffffffffffffffffffffffffffffffffffffffff1673ffffffffffffffffffffffffffffffffffffffff168152602001908152602001600020819055508080611bd790614300565b915050611a90565b5050505050565b60007f01ffc9a7000000000000000000000000000000000000000000000000000000007bffffffffffffffffffffffffffffffffffffffffffffffffffffffff1916827bffffffffffffffffffffffffffffffffffffffffffffffffffffffff1916149050919050565b600033905090565b8151835114611c9c576040517f08c379a0000000000000000000000000000000000000000000000000000000008152600401611c9390613f9d565b60405180910390fd5b600073ffffffffffffffffffffffffffffffffffffffff168473ffffffffffffffffffffffffffffffffffffffff161415611d0c576040517f08c379a0000000000000000000000000000000000000000000000000000000008152600401611d0390613e5d565b60405180910390fd5b6000611d16611c50565b9050611d268187878787876127c8565b60005b8451811015611ed7576000858281518110611d4757611d466143a7565b5b602002602001015190506000858381518110611d6657611d656143a7565b5b60200260200101519050600080600084815260200190815260200160002060008b73ffffffffffffffffffffffffffffffffffffffff1673ffffffffffffffffffffffffffffffffffffffff16815260200190815260200160002054905081811015611e07576040517f08c379a0000000000000000000000000000000000000000000000000000000008152600401611dfe90613ebd565b60405180910390fd5b81810360008085815260200190815260200160002060008c73ffffffffffffffffffffffffffffffffffffffff1673ffffffffffffffffffffffffffffffffffffffff168152602001908152602001600020819055508160008085815260200190815260200160002060008b73ffffffffffffffffffffffffffffffffffffffff1673ffffffffffffffffffffffffffffffffffffffff1681526020019081526020016000206000828254611ebc9190614191565b9250508190555050505080611ed090614300565b9050611d29565b508473ffffffffffffffffffffffffffffffffffffffff168673ffffffffffffffffffffffffffffffffffffffff168273ffffffffffffffffffffffffffffffffffffffff167f4a39dc06d4c0dbc64b70af90fd698a233a518aa5d07e595d983b8c0526c8f7fb8787604051611f4e929190613d05565b60405180910390a4611f648187878787876127d0565b505050505050565b6000600360009054906101000a900473ffffffffffffffffffffffffffffffffffffffff16905081600360006101000a81548173ffffffffffffffffffffffffffffffffffffffff021916908373ffffffffffffffffffffffffffffffffffffffff1602179055508173ffffffffffffffffffffffffffffffffffffffff168173ffffffffffffffffffffffffffffffffffffffff167f8be0079c531659141344cd1fd0a4f28419497f9722a3daafe3b4186f6b6457e060405160405180910390a35050565b600073ffffffffffffffffffffffffffffffffffffffff168473ffffffffffffffffffffffffffffffffffffffff1614156120a2576040517f08c379a000000000000000000000000000000000000000000000000000000000815260040161209990613fdd565b60405180910390fd5b60006120ac611c50565b90506120cd816000876120be886129b7565b6120c7886129b7565b876127c8565b8260008086815260200190815260200160002060008773ffffffffffffffffffffffffffffffffffffffff1673ffffffffffffffffffffffffffffffffffffffff168152602001908152602001600020600082825461212c9190614191565b925050819055508473ffffffffffffffffffffffffffffffffffffffff16600073ffffffffffffffffffffffffffffffffffffffff168273ffffffffffffffffffffffffffffffffffffffff167fc3d58168c5ae7397731d063d5bbf3d657854427343f4c083240f7aacaa2d0f6287876040516121aa929190614018565b60405180910390a46121c181600087878787612a31565b5050505050565b600081836121d69190614191565b905092915050565b80600290805190602001906121f4929190612c2b565b5050565b600073ffffffffffffffffffffffffffffffffffffffff168473ffffffffffffffffffffffffffffffffffffffff161415612268576040517f08c379a000000000000000000000000000000000000000000000000000000000815260040161225f90613fdd565b60405180910390fd5b81518351146122ac576040517f08c379a00000000000000000000000000000000000000000000000000000000081526004016122a390613f9d565b60405180910390fd5b60006122b6611c50565b90506122c7816000878787876127c8565b60005b8451811015612380578381815181106122e6576122e56143a7565b5b6020026020010151600080878481518110612304576123036143a7565b5b6020026020010151815260200190815260200160002060008873ffffffffffffffffffffffffffffffffffffffff1673ffffffffffffffffffffffffffffffffffffffff16815260200190815260200160002060008282546123669190614191565b92505081905550808061237890614300565b9150506122ca565b508473ffffffffffffffffffffffffffffffffffffffff16600073ffffffffffffffffffffffffffffffffffffffff168273ffffffffffffffffffffffffffffffffffffffff167f4a39dc06d4c0dbc64b70af90fd698a233a518aa5d07e595d983b8c0526c8f7fb87876040516123f8929190613d05565b60405180910390a461240f816000878787876127d0565b5050505050565b600061242e60016006546121c890919063ffffffff16565b905090565b6006600081548092919061244690614300565b9190505550565b803373ffffffffffffffffffffffffffffffffffffffff166007600083815260200190815260200160002060009054906101000a900473ffffffffffffffffffffffffffffffffffffffff1673ffffffffffffffffffffffffffffffffffffffff16146124ef576040517f08c379a00000000000000000000000000000000000000000000000000000000081526004016124e690613e9d565b60405180910390fd5b826007600084815260200190815260200160002060006101000a81548173ffffffffffffffffffffffffffffffffffffffff021916908373ffffffffffffffffffffffffffffffffffffffff160217905550505050565b600073ffffffffffffffffffffffffffffffffffffffff168473ffffffffffffffffffffffffffffffffffffffff1614156125b6576040517f08c379a00000000000000000000000000000000000000000000000000000000081526004016125ad90613e5d565b60405180910390fd5b60006125c0611c50565b90506125e08187876125d1886129b7565b6125da886129b7565b876127c8565b600080600086815260200190815260200160002060008873ffffffffffffffffffffffffffffffffffffffff1673ffffffffffffffffffffffffffffffffffffffff16815260200190815260200160002054905083811015612677576040517f08c379a000000000000000000000000000000000000000000000000000000000815260040161266e90613ebd565b60405180910390fd5b83810360008087815260200190815260200160002060008973ffffffffffffffffffffffffffffffffffffffff1673ffffffffffffffffffffffffffffffffffffffff168152602001908152602001600020819055508360008087815260200190815260200160002060008873ffffffffffffffffffffffffffffffffffffffff1673ffffffffffffffffffffffffffffffffffffffff168152602001908152602001600020600082825461272c9190614191565b925050819055508573ffffffffffffffffffffffffffffffffffffffff168773ffffffffffffffffffffffffffffffffffffffff168373ffffffffffffffffffffffffffffffffffffffff167fc3d58168c5ae7397731d063d5bbf3d657854427343f4c083240f7aacaa2d0f6288886040516127a9929190614018565b60405180910390a46127bf828888888888612a31565b50505050505050565b505050505050565b6127ef8473ffffffffffffffffffffffffffffffffffffffff16612c18565b156129af578373ffffffffffffffffffffffffffffffffffffffff1663bc197c8187878686866040518663ffffffff1660e01b8152600401612835959493929190613c21565b602060405180830381600087803b15801561284f57600080fd5b505af192505050801561288057506040513d601f19601f8201168201806040525081019061287d9190613595565b60015b6129265761288c614405565b806308c379a014156128e957506128a1614a1a565b806128ac57506128eb565b806040517f08c379a00000000000000000000000000000000000000000000000000000000081526004016128e09190613d7b565b60405180910390fd5b505b6040517f08c379a000000000000000000000000000000000000000000000000000000000815260040161291d90613d9d565b60405180910390fd5b63bc197c8160e01b7bffffffffffffffffffffffffffffffffffffffffffffffffffffffff1916817bffffffffffffffffffffffffffffffffffffffffffffffffffffffff1916146129ad576040517f08c379a00000000000000000000000000000000000000000000000000000000081526004016129a490613dbd565b60405180910390fd5b505b505050505050565b60606000600167ffffffffffffffff8111156129d6576129d56143d6565b5b604051908082528060200260200182016040528015612a045781602001602082028036833780820191505090505b5090508281600081518110612a1c57612a1b6143a7565b5b60200260200101818152505080915050919050565b612a508473ffffffffffffffffffffffffffffffffffffffff16612c18565b15612c10578373ffffffffffffffffffffffffffffffffffffffff1663f23a6e6187878686866040518663ffffffff1660e01b8152600401612a96959493929190613c89565b602060405180830381600087803b158015612ab057600080fd5b505af1925050508015612ae157506040513d601f19601f82011682018060405250810190612ade9190613595565b60015b612b8757612aed614405565b806308c379a01415612b4a5750612b02614a1a565b80612b0d5750612b4c565b806040517f08c379a0000000000000000000000000000000000000000000000000000000008152600401612b419190613d7b565b60405180910390fd5b505b6040517f08c379a0000000000000000000000000000000000000000000000000000000008152600401612b7e90613d9d565b60405180910390fd5b63f23a6e6160e01b7bffffffffffffffffffffffffffffffffffffffffffffffffffffffff1916817bffffffffffffffffffffffffffffffffffffffffffffffffffffffff191614612c0e576040517f08c379a0000000000000000000000000000000000000000000000000000000008152600401612c0590613dbd565b60405180910390fd5b505b505050505050565b600080823b905060008111915050919050565b828054612c379061429d565b90600052602060002090601f016020900481019282612c595760008555612ca0565b82601f10612c7257805160ff1916838001178555612ca0565b82800160010185558215612ca0579182015b82811115612c9f578251825591602001919060010190612c84565b5b509050612cad9190612cb1565b5090565b5b80821115612cca576000816000905550600101612cb2565b5090565b6000612ce1612cdc84614066565b614041565b90508083825260208201905082856020860282011115612d0457612d03614431565b5b60005b85811015612d345781612d1a8882612e32565b845260208401935060208301925050600181019050612d07565b5050509392505050565b6000612d51612d4c84614092565b614041565b90508083825260208201905082856020860282011115612d7457612d73614431565b5b60005b85811015612da45781612d8a8882612fea565b845260208401935060208301925050600181019050612d77565b5050509392505050565b6000612dc1612dbc846140be565b614041565b905082815260208101848484011115612ddd57612ddc614436565b5b612de884828561425b565b509392505050565b6000612e03612dfe846140ef565b614041565b905082815260208101848484011115612e1f57612e1e614436565b5b612e2a84828561425b565b509392505050565b600081359050612e4181614ab0565b92915050565b60008083601f840112612e5d57612e5c61442c565b5b8235905067ffffffffffffffff811115612e7a57612e79614427565b5b602083019150836020820283011115612e9657612e95614431565b5b9250929050565b600082601f830112612eb257612eb161442c565b5b8135612ec2848260208601612cce565b91505092915050565b600082601f830112612ee057612edf61442c565b5b8135612ef0848260208601612d3e565b91505092915050565b600081359050612f0881614ac7565b92915050565b600081359050612f1d81614ade565b92915050565b600081519050612f3281614ade565b92915050565b600082601f830112612f4d57612f4c61442c565b5b8135612f5d848260208601612dae565b91505092915050565b60008083601f840112612f7c57612f7b61442c565b5b8235905067ffffffffffffffff811115612f9957612f98614427565b5b602083019150836001820283011115612fb557612fb4614431565b5b9250929050565b600082601f830112612fd157612fd061442c565b5b8135612fe1848260208601612df0565b91505092915050565b600081359050612ff981614af5565b92915050565b60006020828403121561301557613014614440565b5b600061302384828501612e32565b91505092915050565b6000806040838503121561304357613042614440565b5b600061305185828601612e32565b925050602061306285828601612e32565b9150509250929050565b600080600080600060a0868803121561308857613087614440565b5b600061309688828901612e32565b95505060206130a788828901612e32565b945050604086013567ffffffffffffffff8111156130c8576130c761443b565b5b6130d488828901612ecb565b935050606086013567ffffffffffffffff8111156130f5576130f461443b565b5b61310188828901612ecb565b925050608086013567ffffffffffffffff8111156131225761312161443b565b5b61312e88828901612f38565b9150509295509295909350565b600080600080600060a0868803121561315757613156614440565b5b600061316588828901612e32565b955050602061317688828901612e32565b945050604061318788828901612fea565b935050606061319888828901612fea565b925050608086013567ffffffffffffffff8111156131b9576131b861443b565b5b6131c588828901612f38565b9150509295509295909350565b600080604083850312156131e9576131e8614440565b5b60006131f785828601612e32565b925050602083013567ffffffffffffffff8111156132185761321761443b565b5b61322485828601612ecb565b9150509250929050565b6000806000806080858703121561324857613247614440565b5b600061325687828801612e32565b945050602085013567ffffffffffffffff8111156132775761327661443b565b5b61328387828801612ecb565b935050604085013567ffffffffffffffff8111156132a4576132a361443b565b5b6132b087828801612ecb565b925050606085013567ffffffffffffffff8111156132d1576132d061443b565b5b6132dd87828801612f38565b91505092959194509250565b60008060408385031215613300576132ff614440565b5b600061330e85828601612e32565b925050602061331f85828601612ef9565b9150509250929050565b60008060006040848603121561334257613341614440565b5b600061335086828701612e32565b935050602084013567ffffffffffffffff8111156133715761337061443b565b5b61337d86828701612f66565b92509250509250925092565b600080604083850312156133a05761339f614440565b5b60006133ae85828601612e32565b92505060206133bf85828601612fea565b9150509250929050565b6000806000806000608086880312156133e5576133e4614440565b5b60006133f388828901612e32565b955050602061340488828901612fea565b945050604086013567ffffffffffffffff8111156134255761342461443b565b5b61343188828901612f66565b9350935050606086013567ffffffffffffffff8111156134545761345361443b565b5b61346088828901612f38565b9150509295509295909350565b6000806000806080858703121561348757613486614440565b5b600061349587828801612e32565b94505060206134a687828801612fea565b93505060406134b787828801612fea565b925050606085013567ffffffffffffffff8111156134d8576134d761443b565b5b6134e487828801612f38565b91505092959194509250565b6000806040838503121561350757613506614440565b5b600083013567ffffffffffffffff8111156135255761352461443b565b5b61353185828601612e9d565b925050602083013567ffffffffffffffff8111156135525761355161443b565b5b61355e85828601612ecb565b9150509250929050565b60006020828403121561357e5761357d614440565b5b600061358c84828501612f0e565b91505092915050565b6000602082840312156135ab576135aa614440565b5b60006135b984828501612f23565b91505092915050565b6000602082840312156135d8576135d7614440565b5b600082013567ffffffffffffffff8111156135f6576135f561443b565b5b61360284828501612fbc565b91505092915050565b60006020828403121561362157613620614440565b5b600061362f84828501612fea565b91505092915050565b6000806040838503121561364f5761364e614440565b5b600061365d85828601612fea565b925050602061366e85828601612e32565b9150509250929050565b6000806000806060858703121561369257613691614440565b5b60006136a087828801612fea565b945050602085013567ffffffffffffffff8111156136c1576136c061443b565b5b6136cd87828801612e47565b9350935050604085013567ffffffffffffffff8111156136f0576136ef61443b565b5b6136fc87828801612ecb565b91505092959194509250565b60008060006040848603121561372157613720614440565b5b600061372f86828701612fea565b935050602084013567ffffffffffffffff8111156137505761374f61443b565b5b61375c86828701612f66565b92509250509250925092565b6000806040838503121561377f5761377e614440565b5b600061378d85828601612fea565b925050602061379e85828601612fea565b9150509250929050565b600080600080606085870312156137c2576137c1614440565b5b60006137d087828801612fea565b94505060206137e187828801612fea565b935050604085013567ffffffffffffffff8111156138025761380161443b565b5b61380e87828801612f66565b925092505092959194509250565b60006138288383613be8565b60208301905092915050565b61383d816141e7565b82525050565b600061384e82614130565b613858818561415e565b935061386383614120565b8060005b8381101561389457815161387b888261381c565b975061388683614151565b925050600181019050613867565b5085935050505092915050565b6138aa816141f9565b82525050565b60006138bb8261413b565b6138c5818561416f565b93506138d581856020860161426a565b6138de81614445565b840191505092915050565b60006138f58385614180565b935061390283858461425b565b61390b83614445565b840190509392505050565b600061392182614146565b61392b8185614180565b935061393b81856020860161426a565b61394481614445565b840191505092915050565b600061395c603483614180565b915061396782614463565b604082019050919050565b600061397f602883614180565b915061398a826144b2565b604082019050919050565b60006139a2602b83614180565b91506139ad82614501565b604082019050919050565b60006139c5602683614180565b91506139d082614550565b604082019050919050565b60006139e8602983614180565b91506139f38261459f565b604082019050919050565b6000613a0b603283614180565b9150613a16826145ee565b604082019050919050565b6000613a2e602583614180565b9150613a398261463d565b604082019050919050565b6000613a51603283614180565b9150613a5c8261468c565b604082019050919050565b6000613a74602e83614180565b9150613a7f826146db565b604082019050919050565b6000613a97602a83614180565b9150613aa28261472a565b604082019050919050565b6000613aba602083614180565b9150613ac582614779565b602082019050919050565b6000613add602c83614180565b9150613ae8826147a2565b604082019050919050565b6000613b00603e83614180565b9150613b0b826147f1565b604082019050919050565b6000613b23602c83614180565b9150613b2e82614840565b604082019050919050565b6000613b46602983614180565b9150613b518261488f565b604082019050919050565b6000613b69602983614180565b9150613b74826148de565b604082019050919050565b6000613b8c602883614180565b9150613b978261492d565b604082019050919050565b6000613baf602c83614180565b9150613bba8261497c565b604082019050919050565b6000613bd2602183614180565b9150613bdd826149cb565b604082019050919050565b613bf181614251565b82525050565b613c0081614251565b82525050565b6000602082019050613c1b6000830184613834565b92915050565b600060a082019050613c366000830188613834565b613c436020830187613834565b8181036040830152613c558186613843565b90508181036060830152613c698185613843565b90508181036080830152613c7d81846138b0565b90509695505050505050565b600060a082019050613c9e6000830188613834565b613cab6020830187613834565b613cb86040830186613bf7565b613cc56060830185613bf7565b8181036080830152613cd781846138b0565b90509695505050505050565b60006020820190508181036000830152613cfd8184613843565b905092915050565b60006040820190508181036000830152613d1f8185613843565b90508181036020830152613d338184613843565b90509392505050565b6000602082019050613d5160008301846138a1565b92915050565b60006020820190508181036000830152613d728184866138e9565b90509392505050565b60006020820190508181036000830152613d958184613916565b905092915050565b60006020820190508181036000830152613db68161394f565b9050919050565b60006020820190508181036000830152613dd681613972565b9050919050565b60006020820190508181036000830152613df681613995565b9050919050565b60006020820190508181036000830152613e16816139b8565b9050919050565b60006020820190508181036000830152613e36816139db565b9050919050565b60006020820190508181036000830152613e56816139fe565b9050919050565b60006020820190508181036000830152613e7681613a21565b9050919050565b60006020820190508181036000830152613e9681613a44565b9050919050565b60006020820190508181036000830152613eb681613a67565b9050919050565b60006020820190508181036000830152613ed681613a8a565b9050919050565b60006020820190508181036000830152613ef681613aad565b9050919050565b60006020820190508181036000830152613f1681613ad0565b9050919050565b60006020820190508181036000830152613f3681613af3565b9050919050565b60006020820190508181036000830152613f5681613b16565b9050919050565b60006020820190508181036000830152613f7681613b39565b9050919050565b60006020820190508181036000830152613f9681613b5c565b9050919050565b60006020820190508181036000830152613fb681613b7f565b9050919050565b60006020820190508181036000830152613fd681613ba2565b9050919050565b60006020820190508181036000830152613ff681613bc5565b9050919050565b60006020820190506140126000830184613bf7565b92915050565b600060408201905061402d6000830185613bf7565b61403a6020830184613bf7565b9392505050565b600061404b61405c565b905061405782826142cf565b919050565b6000604051905090565b600067ffffffffffffffff821115614081576140806143d6565b5b602082029050602081019050919050565b600067ffffffffffffffff8211156140ad576140ac6143d6565b5b602082029050602081019050919050565b600067ffffffffffffffff8211156140d9576140d86143d6565b5b6140e282614445565b9050602081019050919050565b600067ffffffffffffffff82111561410a576141096143d6565b5b61411382614445565b9050602081019050919050565b6000819050602082019050919050565b600081519050919050565b600081519050919050565b600081519050919050565b6000602082019050919050565b600082825260208201905092915050565b600082825260208201905092915050565b600082825260208201905092915050565b600061419c82614251565b91506141a783614251565b9250827fffffffffffffffffffffffffffffffffffffffffffffffffffffffffffffffff038211156141dc576141db614349565b5b828201905092915050565b60006141f282614231565b9050919050565b60008115159050919050565b60007fffffffff0000000000000000000000000000000000000000000000000000000082169050919050565b600073ffffffffffffffffffffffffffffffffffffffff82169050919050565b6000819050919050565b82818337600083830152505050565b60005b8381101561428857808201518184015260208101905061426d565b83811115614297576000848401525b50505050565b600060028204905060018216806142b557607f821691505b602082108114156142c9576142c8614378565b5b50919050565b6142d882614445565b810181811067ffffffffffffffff821117156142f7576142f66143d6565b5b80604052505050565b600061430b82614251565b91507fffffffffffffffffffffffffffffffffffffffffffffffffffffffffffffffff82141561433e5761433d614349565b5b600182019050919050565b7f4e487b7100000000000000000000000000000000000000000000000000000000600052601160045260246000fd5b7f4e487b7100000000000000000000000000000000000000000000000000000000600052602260045260246000fd5b7f4e487b7100000000000000000000000000000000000000000000000000000000600052603260045260246000fd5b7f4e487b7100000000000000000000000000000000000000000000000000000000600052604160045260246000fd5b600060033d11156144245760046000803e614421600051614456565b90505b90565b600080fd5b600080fd5b600080fd5b600080fd5b600080fd5b600080fd5b6000601f19601f8301169050919050565b60008160e01c9050919050565b7f455243313135353a207472616e7366657220746f206e6f6e204552433131353560008201527f526563656976657220696d706c656d656e746572000000000000000000000000602082015250565b7f455243313135353a204552433131353552656365697665722072656a6563746560008201527f6420746f6b656e73000000000000000000000000000000000000000000000000602082015250565b7f455243313135353a2062616c616e636520717565727920666f7220746865207a60008201527f65726f2061646472657373000000000000000000000000000000000000000000602082015250565b7f4f776e61626c653a206e6577206f776e657220697320746865207a65726f206160008201527f6464726573730000000000000000000000000000000000000000000000000000602082015250565b7f455243313135353a2063616c6c6572206973206e6f74206f776e6572206e6f7260008201527f20617070726f7665640000000000000000000000000000000000000000000000602082015250565b7f4361726e6976616c236164644672616374696f6e616c4f776e6572733a204f4e60008201527f4c595f43524541544f525f414c4c4f5745440000000000000000000000000000602082015250565b7f455243313135353a207472616e7366657220746f20746865207a65726f20616460008201527f6472657373000000000000000000000000000000000000000000000000000000602082015250565b7f455243313135353a207472616e736665722063616c6c6572206973206e6f742060008201527f6f776e6572206e6f7220617070726f7665640000000000000000000000000000602082015250565b7f45524331313535546f6b656e2363726561746f724f6e6c793a204f4e4c595f4360008201527f524541544f525f414c4c4f574544000000000000000000000000000000000000602082015250565b7f455243313135353a20696e73756666696369656e742062616c616e636520666f60008201527f72207472616e7366657200000000000000000000000000000000000000000000602082015250565b7f4f776e61626c653a2063616c6c6572206973206e6f7420746865206f776e6572600082015250565b7f45524331313535546f6b656e2362617463684d696e743a204f4e4c595f43524560008201527f41544f525f414c4c4f5745440000000000000000000000000000000000000000602082015250565b7f4361726e6976616c236164644672616374696f6e616c4f776e6572733a20494e60008201527f56414c49445f494e5055545f5355424f574e4552535f4f525f53484152450000602082015250565b7f455243313135355472616461626c652373657443726561746f723a20494e564160008201527f4c49445f414444524553532e0000000000000000000000000000000000000000602082015250565b7f455243313135353a2073657474696e6720617070726f76616c2073746174757360008201527f20666f722073656c660000000000000000000000000000000000000000000000602082015250565b7f455243313135353a206163636f756e747320616e6420696473206c656e67746860008201527f206d69736d617463680000000000000000000000000000000000000000000000602082015250565b7f455243313135353a2069647320616e6420616d6f756e7473206c656e6774682060008201527f6d69736d61746368000000000000000000000000000000000000000000000000602082015250565b7f4361726e6976616c23637265617465537761674e46543a204f4e4c595f43524560008201527f41544f525f414c4c4f5745440000000000000000000000000000000000000000602082015250565b7f455243313135353a206d696e7420746f20746865207a65726f2061646472657360008201527f7300000000000000000000000000000000000000000000000000000000000000602082015250565b600060443d1015614a2a57614aad565b614a3261405c565b60043d036004823e80513d602482011167ffffffffffffffff82111715614a5a575050614aad565b808201805167ffffffffffffffff811115614a785750505050614aad565b80602083010160043d038501811115614a95575050505050614aad565b614aa4826020018501866142cf565b82955050505050505b90565b614ab9816141e7565b8114614ac457600080fd5b50565b614ad0816141f9565b8114614adb57600080fd5b50565b614ae781614205565b8114614af257600080fd5b50565b614afe81614251565b8114614b0957600080fd5b5056fea26469706673582212207f8bf6fb5d3284bd237de76277d88e057594a1c76e12208b443d5c6a17c86fa264736f6c63430008070033",
  "immutableReferences": {},
  "source": "// SPDX-License-Identifier: MIT\r\npragma solidity ^0.8.0;\r\n\r\nimport \"@openzeppelin/contracts/access/Ownable.sol\";\r\nimport \"./ERC1155Token.sol\";\r\n\r\ncontract Carnival is ERC1155Token{\r\n    \r\n    constructor(string memory _name, \r\n                string memory _symbol,\r\n                string memory _baseURI) \r\n                ERC1155Token(_name, _symbol, _baseURI){}\r\n                \r\n    uint256 internal streamingRate = 10;\r\n   \r\n    mapping(uint256 => address[]) public subowners;\r\n    mapping(uint256 => mapping(address => uint256)) public shares;\r\n    mapping(uint256 => uint256[]) public relatedNFTs; //tokenNo to array of tokenNos\r\n    mapping(uint256 => uint256) public specialSwag;\r\n    \r\n    function setStreamingRate(uint256 rate) public onlyOwner {\r\n        streamingRate = rate;\r\n    }\r\n    \r\n    function getStreamingRate() public view returns (uint256 ){\r\n        return streamingRate;\r\n    }\r\n    \r\n    function uploadVideo(\r\n        address _producer, \r\n        string calldata _uri) \r\n        public returns (uint256){\r\n            uint256 _id = _createNFT(_producer, 1, _uri, \"\");\r\n            return _id;\r\n    }\r\n\r\n    function addFractionalOwners(\r\n        uint256 _tokenId, \r\n        address[] calldata _subowners, \r\n        uint256[] memory _share) public {\r\n        \r\n        require(creators[_tokenId] == msg.sender, \"Carnival#addFractionalOwners: ONLY_CREATOR_ALLOWED\");\r\n        require(_subowners.length == _share.length, \"Carnival#addFractionalOwners: INVALID_INPUT_SUBOWNERS_OR_SHARE\");\r\n        for (uint256 i = 0; i < _subowners.length; i++) {\r\n            subowners[_tokenId].push(_subowners[i]);\r\n            shares[_tokenId][_subowners[i]] = _share[i];\r\n        }\r\n    }\r\n    \r\n    function createSwagNFT(\r\n        uint256 _tokenId, \r\n        uint256 _quantity, \r\n        string calldata _uri)\r\n        public returns (uint256){\r\n            require(creators[_tokenId] == msg.sender, \"Carnival#createSwagNFT: ONLY_CREATOR_ALLOWED\");\r\n            uint256 _id = _createNFT(msg.sender, _quantity, _uri, \"\");\r\n            relatedNFTs[_tokenId].push(_id);\r\n            return _id;\r\n    }\r\n    \r\n    function createSpecialSwag(\r\n        uint256 _tokenId,\r\n        string calldata _uri)\r\n        public returns (uint256) {\r\n            require(creators[_tokenId] == msg.sender, \"Carnival#createSwagNFT: ONLY_CREATOR_ALLOWED\");\r\n            uint256 _id = _createNFT(msg.sender, 1, _uri, \"\");\r\n            specialSwag[_tokenId] = _id;\r\n            return _id;\r\n        }\r\n}\r\n",
  "sourcePath": "C:/Users/Rishikesh Kale/Carnival/src/contracts/Carnival.sol",
  "compiler": {
    "name": "solc",
    "version": "0.8.7+commit.e28d00a7.Emscripten.clang"
  },
  "schemaVersion": "3.4.1",
  "updatedAt": "2021-09-22T06:10:09.239Z",
  "networkType": "ethereum",
  "devdoc": {
    "kind": "dev",
    "methods": {
      "_createNFT(address,uint256,string,bytes)": {
        "details": "Creates a new token type and assigns _initialSupply to an address NOTE: remove onlyOwner if you want third parties to create new tokens on your contract (which may change your IDs)",
        "params": {
          "_data": "Data to pass if receiver is contract",
          "_initialOwner": "address of the first owner of the token",
          "_initialSupply": "amount to supply the first owner",
          "_uri": "URI for this token type"
        },
        "returns": {
          "_0": "The newly created token ID"
        }
      },
      "balanceOf(address,uint256)": {
        "details": "See {IERC1155-balanceOf}. Requirements: - `account` cannot be the zero address."
      },
      "balanceOfBatch(address[],uint256[])": {
        "details": "See {IERC1155-balanceOfBatch}. Requirements: - `accounts` and `ids` must have the same length."
      },
      "batchMint(address,uint256[],uint256[],bytes)": {
        "details": "Mint tokens for each id in _ids",
        "params": {
          "_data": "Data to pass if receiver is contract",
          "_ids": "Array of ids to mint",
          "_quantities": "Array of amounts of tokens to mint per id",
          "_to": "The address to mint tokens to"
        }
      },
      "getName()": {
        "details": "Gets the token name",
        "returns": {
          "_0": "string representing the token name"
        }
      },
      "getSymbol()": {
        "details": "Gets the token symbol",
        "returns": {
          "_0": "string representing the token symbol"
        }
      },
      "isApprovedForAll(address,address)": {
        "details": "See {IERC1155-isApprovedForAll}."
      },
      "mint(address,uint256,uint256,bytes)": {
        "details": "Mints some amount of tokens to an address",
        "params": {
          "_data": "Data to pass if receiver is contract",
          "_id": "Token ID to mint",
          "_quantity": "Amount of tokens to mint",
          "_to": "Address of the future owner of the token"
        }
      },
      "owner()": {
        "details": "Returns the address of the current owner."
      },
      "renounceOwnership()": {
        "details": "Leaves the contract without owner. It will not be possible to call `onlyOwner` functions anymore. Can only be called by the current owner. NOTE: Renouncing ownership will leave the contract without an owner, thereby removing any functionality that is only available to the owner."
      },
      "safeBatchTransferFrom(address,address,uint256[],uint256[],bytes)": {
        "details": "See {IERC1155-safeBatchTransferFrom}."
      },
      "safeTransferFrom(address,address,uint256,uint256,bytes)": {
        "details": "See {IERC1155-safeTransferFrom}."
      },
      "setApprovalForAll(address,bool)": {
        "details": "See {IERC1155-setApprovalForAll}."
      },
      "setBaseMetadataURI(string)": {
        "details": "Will update the base URL of token's URI",
        "params": {
          "_newBaseMetadataURI": "New base URL of token's URI"
        }
      },
      "setCreator(address,uint256[])": {
        "details": "Change the creator address for given tokens",
        "params": {
          "_ids": "Array of Token IDs to change creator",
          "_to": "Address of the new creator"
        }
      },
      "supportsInterface(bytes4)": {
        "details": "See {IERC165-supportsInterface}."
      },
      "transferOwnership(address)": {
        "details": "Transfers ownership of the contract to a new account (`newOwner`). Can only be called by the current owner."
      },
      "uri(uint256)": {
        "details": "See {IERC1155MetadataURI-uri}. This implementation returns the same URI for *all* token types. It relies on the token type ID substitution mechanism https://eips.ethereum.org/EIPS/eip-1155#metadata[defined in the EIP]. Clients calling this function must replace the `\\{id\\}` substring with the actual token type ID."
      }
    },
    "version": 1
  },
  "userdoc": {
    "kind": "user",
    "methods": {},
    "version": 1
  }
}