{
  "contractName": "Carnival",
  "abi": [
    {
      "inputs": [
        {
          "internalType": "string",
          "name": "_name",
          "type": "string"
        },
        {
          "internalType": "string",
          "name": "_symbol",
          "type": "string"
        },
        {
          "internalType": "string",
          "name": "_baseURI",
          "type": "string"
        }
      ],
      "stateMutability": "nonpayable",
      "type": "constructor"
    },
    {
      "anonymous": false,
      "inputs": [
        {
          "indexed": true,
          "internalType": "address",
          "name": "account",
          "type": "address"
        },
        {
          "indexed": true,
          "internalType": "address",
          "name": "operator",
          "type": "address"
        },
        {
          "indexed": false,
          "internalType": "bool",
          "name": "approved",
          "type": "bool"
        }
      ],
      "name": "ApprovalForAll",
      "type": "event"
    },
    {
      "anonymous": false,
      "inputs": [
        {
          "indexed": true,
          "internalType": "address",
          "name": "previousOwner",
          "type": "address"
        },
        {
          "indexed": true,
          "internalType": "address",
          "name": "newOwner",
          "type": "address"
        }
      ],
      "name": "OwnershipTransferred",
      "type": "event"
    },
    {
      "anonymous": false,
      "inputs": [
        {
          "indexed": true,
          "internalType": "address",
          "name": "operator",
          "type": "address"
        },
        {
          "indexed": true,
          "internalType": "address",
          "name": "from",
          "type": "address"
        },
        {
          "indexed": true,
          "internalType": "address",
          "name": "to",
          "type": "address"
        },
        {
          "indexed": false,
          "internalType": "uint256[]",
          "name": "ids",
          "type": "uint256[]"
        },
        {
          "indexed": false,
          "internalType": "uint256[]",
          "name": "values",
          "type": "uint256[]"
        }
      ],
      "name": "TransferBatch",
      "type": "event"
    },
    {
      "anonymous": false,
      "inputs": [
        {
          "indexed": true,
          "internalType": "address",
          "name": "operator",
          "type": "address"
        },
        {
          "indexed": true,
          "internalType": "address",
          "name": "from",
          "type": "address"
        },
        {
          "indexed": true,
          "internalType": "address",
          "name": "to",
          "type": "address"
        },
        {
          "indexed": false,
          "internalType": "uint256",
          "name": "id",
          "type": "uint256"
        },
        {
          "indexed": false,
          "internalType": "uint256",
          "name": "value",
          "type": "uint256"
        }
      ],
      "name": "TransferSingle",
      "type": "event"
    },
    {
      "anonymous": false,
      "inputs": [
        {
          "indexed": false,
          "internalType": "string",
          "name": "value",
          "type": "string"
        },
        {
          "indexed": true,
          "internalType": "uint256",
          "name": "id",
          "type": "uint256"
        }
      ],
      "name": "URI",
      "type": "event"
    },
    {
      "inputs": [
        {
          "internalType": "address",
          "name": "_initialOwner",
          "type": "address"
        },
        {
          "internalType": "uint256",
          "name": "_initialSupply",
          "type": "uint256"
        },
        {
          "internalType": "string",
          "name": "_uri",
          "type": "string"
        },
        {
          "internalType": "bytes",
          "name": "_data",
          "type": "bytes"
        }
      ],
      "name": "_createNFT",
      "outputs": [
        {
          "internalType": "uint256",
          "name": "",
          "type": "uint256"
        }
      ],
      "stateMutability": "nonpayable",
      "type": "function"
    },
    {
      "inputs": [
        {
          "internalType": "address",
          "name": "account",
          "type": "address"
        },
        {
          "internalType": "uint256",
          "name": "id",
          "type": "uint256"
        }
      ],
      "name": "balanceOf",
      "outputs": [
        {
          "internalType": "uint256",
          "name": "",
          "type": "uint256"
        }
      ],
      "stateMutability": "view",
      "type": "function",
      "constant": true
    },
    {
      "inputs": [
        {
          "internalType": "address[]",
          "name": "accounts",
          "type": "address[]"
        },
        {
          "internalType": "uint256[]",
          "name": "ids",
          "type": "uint256[]"
        }
      ],
      "name": "balanceOfBatch",
      "outputs": [
        {
          "internalType": "uint256[]",
          "name": "",
          "type": "uint256[]"
        }
      ],
      "stateMutability": "view",
      "type": "function",
      "constant": true
    },
    {
      "inputs": [
        {
          "internalType": "address",
          "name": "_to",
          "type": "address"
        },
        {
          "internalType": "uint256[]",
          "name": "_ids",
          "type": "uint256[]"
        },
        {
          "internalType": "uint256[]",
          "name": "_quantities",
          "type": "uint256[]"
        },
        {
          "internalType": "bytes",
          "name": "_data",
          "type": "bytes"
        }
      ],
      "name": "batchMint",
      "outputs": [],
      "stateMutability": "nonpayable",
      "type": "function"
    },
    {
      "inputs": [
        {
          "internalType": "uint256",
          "name": "",
          "type": "uint256"
        }
      ],
      "name": "creators",
      "outputs": [
        {
          "internalType": "address",
          "name": "",
          "type": "address"
        }
      ],
      "stateMutability": "view",
      "type": "function",
      "constant": true
    },
    {
      "inputs": [],
      "name": "getName",
      "outputs": [
        {
          "internalType": "string",
          "name": "",
          "type": "string"
        }
      ],
      "stateMutability": "view",
      "type": "function",
      "constant": true
    },
    {
      "inputs": [],
      "name": "getSymbol",
      "outputs": [
        {
          "internalType": "string",
          "name": "",
          "type": "string"
        }
      ],
      "stateMutability": "view",
      "type": "function",
      "constant": true
    },
    {
      "inputs": [
        {
          "internalType": "address",
          "name": "account",
          "type": "address"
        },
        {
          "internalType": "address",
          "name": "operator",
          "type": "address"
        }
      ],
      "name": "isApprovedForAll",
      "outputs": [
        {
          "internalType": "bool",
          "name": "",
          "type": "bool"
        }
      ],
      "stateMutability": "view",
      "type": "function",
      "constant": true
    },
    {
      "inputs": [
        {
          "internalType": "address",
          "name": "_to",
          "type": "address"
        },
        {
          "internalType": "uint256",
          "name": "_id",
          "type": "uint256"
        },
        {
          "internalType": "uint256",
          "name": "_quantity",
          "type": "uint256"
        },
        {
          "internalType": "bytes",
          "name": "_data",
          "type": "bytes"
        }
      ],
      "name": "mint",
      "outputs": [],
      "stateMutability": "nonpayable",
      "type": "function"
    },
    {
      "inputs": [],
      "name": "name",
      "outputs": [
        {
          "internalType": "string",
          "name": "",
          "type": "string"
        }
      ],
      "stateMutability": "view",
      "type": "function",
      "constant": true
    },
    {
      "inputs": [],
      "name": "owner",
      "outputs": [
        {
          "internalType": "address",
          "name": "",
          "type": "address"
        }
      ],
      "stateMutability": "view",
      "type": "function",
      "constant": true
    },
    {
      "inputs": [
        {
          "internalType": "uint256",
          "name": "",
          "type": "uint256"
        }
      ],
      "name": "relatedNFTCount",
      "outputs": [
        {
          "internalType": "uint256",
          "name": "",
          "type": "uint256"
        }
      ],
      "stateMutability": "view",
      "type": "function",
      "constant": true
    },
    {
      "inputs": [
        {
          "internalType": "uint256",
          "name": "",
          "type": "uint256"
        },
        {
          "internalType": "uint256",
          "name": "",
          "type": "uint256"
        }
      ],
      "name": "relatedNFTs",
      "outputs": [
        {
          "internalType": "uint256",
          "name": "",
          "type": "uint256"
        }
      ],
      "stateMutability": "view",
      "type": "function",
      "constant": true
    },
    {
      "inputs": [],
      "name": "renounceOwnership",
      "outputs": [],
      "stateMutability": "nonpayable",
      "type": "function"
    },
    {
      "inputs": [
        {
          "internalType": "address",
          "name": "from",
          "type": "address"
        },
        {
          "internalType": "address",
          "name": "to",
          "type": "address"
        },
        {
          "internalType": "uint256[]",
          "name": "ids",
          "type": "uint256[]"
        },
        {
          "internalType": "uint256[]",
          "name": "amounts",
          "type": "uint256[]"
        },
        {
          "internalType": "bytes",
          "name": "data",
          "type": "bytes"
        }
      ],
      "name": "safeBatchTransferFrom",
      "outputs": [],
      "stateMutability": "nonpayable",
      "type": "function"
    },
    {
      "inputs": [
        {
          "internalType": "address",
          "name": "from",
          "type": "address"
        },
        {
          "internalType": "address",
          "name": "to",
          "type": "address"
        },
        {
          "internalType": "uint256",
          "name": "id",
          "type": "uint256"
        },
        {
          "internalType": "uint256",
          "name": "amount",
          "type": "uint256"
        },
        {
          "internalType": "bytes",
          "name": "data",
          "type": "bytes"
        }
      ],
      "name": "safeTransferFrom",
      "outputs": [],
      "stateMutability": "nonpayable",
      "type": "function"
    },
    {
      "inputs": [
        {
          "internalType": "address",
          "name": "operator",
          "type": "address"
        },
        {
          "internalType": "bool",
          "name": "approved",
          "type": "bool"
        }
      ],
      "name": "setApprovalForAll",
      "outputs": [],
      "stateMutability": "nonpayable",
      "type": "function"
    },
    {
      "inputs": [
        {
          "internalType": "string",
          "name": "_newBaseMetadataURI",
          "type": "string"
        }
      ],
      "name": "setBaseMetadataURI",
      "outputs": [],
      "stateMutability": "nonpayable",
      "type": "function"
    },
    {
      "inputs": [
        {
          "internalType": "address",
          "name": "_to",
          "type": "address"
        },
        {
          "internalType": "uint256[]",
          "name": "_ids",
          "type": "uint256[]"
        }
      ],
      "name": "setCreator",
      "outputs": [],
      "stateMutability": "nonpayable",
      "type": "function"
    },
    {
      "inputs": [
        {
          "internalType": "uint256",
          "name": "",
          "type": "uint256"
        },
        {
          "internalType": "address",
          "name": "",
          "type": "address"
        }
      ],
      "name": "shares",
      "outputs": [
        {
          "internalType": "uint256",
          "name": "",
          "type": "uint256"
        }
      ],
      "stateMutability": "view",
      "type": "function",
      "constant": true
    },
    {
      "inputs": [
        {
          "internalType": "uint256",
          "name": "",
          "type": "uint256"
        }
      ],
      "name": "specialSwag",
      "outputs": [
        {
          "internalType": "uint256",
          "name": "",
          "type": "uint256"
        }
      ],
      "stateMutability": "view",
      "type": "function",
      "constant": true
    },
    {
      "inputs": [
        {
          "internalType": "uint256",
          "name": "",
          "type": "uint256"
        },
        {
          "internalType": "uint256",
          "name": "",
          "type": "uint256"
        }
      ],
      "name": "subowners",
      "outputs": [
        {
          "internalType": "address",
          "name": "",
          "type": "address"
        }
      ],
      "stateMutability": "view",
      "type": "function",
      "constant": true
    },
    {
      "inputs": [
        {
          "internalType": "bytes4",
          "name": "interfaceId",
          "type": "bytes4"
        }
      ],
      "name": "supportsInterface",
      "outputs": [
        {
          "internalType": "bool",
          "name": "",
          "type": "bool"
        }
      ],
      "stateMutability": "view",
      "type": "function",
      "constant": true
    },
    {
      "inputs": [
        {
          "internalType": "uint256",
          "name": "",
          "type": "uint256"
        }
      ],
      "name": "swagPrice",
      "outputs": [
        {
          "internalType": "uint256",
          "name": "",
          "type": "uint256"
        }
      ],
      "stateMutability": "view",
      "type": "function",
      "constant": true
    },
    {
      "inputs": [],
      "name": "symbol",
      "outputs": [
        {
          "internalType": "string",
          "name": "",
          "type": "string"
        }
      ],
      "stateMutability": "view",
      "type": "function",
      "constant": true
    },
    {
      "inputs": [
        {
          "internalType": "uint256",
          "name": "",
          "type": "uint256"
        }
      ],
      "name": "tokenSupply",
      "outputs": [
        {
          "internalType": "uint256",
          "name": "",
          "type": "uint256"
        }
      ],
      "stateMutability": "view",
      "type": "function",
      "constant": true
    },
    {
      "inputs": [
        {
          "internalType": "uint256",
          "name": "",
          "type": "uint256"
        }
      ],
      "name": "tokenURI",
      "outputs": [
        {
          "internalType": "string",
          "name": "",
          "type": "string"
        }
      ],
      "stateMutability": "view",
      "type": "function",
      "constant": true
    },
    {
      "inputs": [
        {
          "internalType": "uint256",
          "name": "_id",
          "type": "uint256"
        }
      ],
      "name": "totalSupply",
      "outputs": [
        {
          "internalType": "uint256",
          "name": "",
          "type": "uint256"
        }
      ],
      "stateMutability": "view",
      "type": "function",
      "constant": true
    },
    {
      "inputs": [
        {
          "internalType": "address",
          "name": "newOwner",
          "type": "address"
        }
      ],
      "name": "transferOwnership",
      "outputs": [],
      "stateMutability": "nonpayable",
      "type": "function"
    },
    {
      "inputs": [
        {
          "internalType": "uint256",
          "name": "",
          "type": "uint256"
        }
      ],
      "name": "uri",
      "outputs": [
        {
          "internalType": "string",
          "name": "",
          "type": "string"
        }
      ],
      "stateMutability": "view",
      "type": "function",
      "constant": true
    },
    {
      "inputs": [
        {
          "internalType": "uint256",
          "name": "",
          "type": "uint256"
        },
        {
          "internalType": "uint256",
          "name": "",
          "type": "uint256"
        }
      ],
      "name": "views",
      "outputs": [
        {
          "internalType": "address",
          "name": "",
          "type": "address"
        }
      ],
      "stateMutability": "view",
      "type": "function",
      "constant": true
    },
    {
      "inputs": [
        {
          "internalType": "uint256",
          "name": "rate",
          "type": "uint256"
        }
      ],
      "name": "setStreamingRate",
      "outputs": [],
      "stateMutability": "nonpayable",
      "type": "function"
    },
    {
      "inputs": [],
      "name": "getStreamingRate",
      "outputs": [
        {
          "internalType": "uint256",
          "name": "",
          "type": "uint256"
        }
      ],
      "stateMutability": "view",
      "type": "function",
      "constant": true
    },
    {
      "inputs": [
        {
          "internalType": "address",
          "name": "_producer",
          "type": "address"
        },
        {
          "internalType": "string",
          "name": "_uri",
          "type": "string"
        }
      ],
      "name": "uploadVideo",
      "outputs": [
        {
          "internalType": "uint256",
          "name": "",
          "type": "uint256"
        }
      ],
      "stateMutability": "nonpayable",
      "type": "function"
    },
    {
      "inputs": [
        {
          "internalType": "uint256",
          "name": "_tokenId",
          "type": "uint256"
        },
        {
          "internalType": "address[]",
          "name": "_subowners",
          "type": "address[]"
        },
        {
          "internalType": "uint256[]",
          "name": "_share",
          "type": "uint256[]"
        }
      ],
      "name": "addFractionalOwners",
      "outputs": [],
      "stateMutability": "nonpayable",
      "type": "function"
    },
    {
      "inputs": [
        {
          "internalType": "uint256",
          "name": "_tokenId",
          "type": "uint256"
        },
        {
          "internalType": "uint256",
          "name": "_quantity",
          "type": "uint256"
        },
        {
          "internalType": "uint256",
          "name": "_price",
          "type": "uint256"
        },
        {
          "internalType": "string",
          "name": "_uri",
          "type": "string"
        }
      ],
      "name": "createSwagNFT",
      "outputs": [
        {
          "internalType": "uint256",
          "name": "",
          "type": "uint256"
        }
      ],
      "stateMutability": "nonpayable",
      "type": "function"
    },
    {
      "inputs": [
        {
          "internalType": "uint256",
          "name": "_tokenId",
          "type": "uint256"
        },
        {
          "internalType": "string",
          "name": "_uri",
          "type": "string"
        }
      ],
      "name": "createSpecialSwag",
      "outputs": [
        {
          "internalType": "uint256",
          "name": "",
          "type": "uint256"
        }
      ],
      "stateMutability": "nonpayable",
      "type": "function"
    },
    {
      "inputs": [
        {
          "internalType": "uint256",
          "name": "_tokenId",
          "type": "uint256"
        }
      ],
      "name": "watchVideo",
      "outputs": [],
      "stateMutability": "payable",
      "type": "function",
      "payable": true
    },
    {
      "inputs": [
        {
          "internalType": "uint256",
          "name": "_tokenId",
          "type": "uint256"
        }
      ],
      "name": "addViewer",
      "outputs": [],
      "stateMutability": "nonpayable",
      "type": "function"
    }
  ],
  "bytecode": "0x60806040526000600655600a6009553480156200001b57600080fd5b50604051620056c6380380620056c68339818101604052810190620000419190620003ec565b828282806200005681620000b560201b60201c565b50620000776200006b620000d160201b60201c565b620000d960201b60201c565b82600490805190602001906200008f9291906200019f565b508160059080519060200190620000a89291906200019f565b505050505050506200050a565b8060029080519060200190620000cd9291906200019f565b5050565b600033905090565b6000600360009054906101000a900473ffffffffffffffffffffffffffffffffffffffff16905081600360006101000a81548173ffffffffffffffffffffffffffffffffffffffff021916908373ffffffffffffffffffffffffffffffffffffffff1602179055508173ffffffffffffffffffffffffffffffffffffffff168173ffffffffffffffffffffffffffffffffffffffff167f8be0079c531659141344cd1fd0a4f28419497f9722a3daafe3b4186f6b6457e060405160405180910390a35050565b828054620001ad90620004d4565b90600052602060002090601f016020900481019282620001d157600085556200021d565b82601f10620001ec57805160ff19168380011785556200021d565b828001600101855582156200021d579182015b828111156200021c578251825591602001919060010190620001ff565b5b5090506200022c919062000230565b5090565b5b808211156200024b57600081600090555060010162000231565b5090565b6000604051905090565b600080fd5b600080fd5b600080fd5b600080fd5b6000601f19601f8301169050919050565b7f4e487b7100000000000000000000000000000000000000000000000000000000600052604160045260246000fd5b620002b8826200026d565b810181811067ffffffffffffffff82111715620002da57620002d96200027e565b5b80604052505050565b6000620002ef6200024f565b9050620002fd8282620002ad565b919050565b600067ffffffffffffffff82111562000320576200031f6200027e565b5b6200032b826200026d565b9050602081019050919050565b60005b83811015620003585780820151818401526020810190506200033b565b8381111562000368576000848401525b50505050565b6000620003856200037f8462000302565b620002e3565b905082815260208101848484011115620003a457620003a362000268565b5b620003b184828562000338565b509392505050565b600082601f830112620003d157620003d062000263565b5b8151620003e38482602086016200036e565b91505092915050565b60008060006060848603121562000408576200040762000259565b5b600084015167ffffffffffffffff8111156200042957620004286200025e565b5b6200043786828701620003b9565b935050602084015167ffffffffffffffff8111156200045b576200045a6200025e565b5b6200046986828701620003b9565b925050604084015167ffffffffffffffff8111156200048d576200048c6200025e565b5b6200049b86828701620003b9565b9150509250925092565b7f4e487b7100000000000000000000000000000000000000000000000000000000600052602260045260246000fd5b60006002820490506001821680620004ed57607f821691505b60208210811415620005045762000503620004a5565b5b50919050565b6151ac806200051a6000396000f3fe60806040526004361061022f5760003560e01c806395d89b411161012e578063c87b56dd116100ab578063f242432a1161006f578063f242432a146108fb578063f2fde38b14610924578063f7accee91461094d578063f98f477c1461098a578063fdd69b37146109c75761022f565b8063c87b56dd146107f2578063cd53d08e1461082f578063d2a6b51a1461086c578063e68aeae214610895578063e985e9c5146108be5761022f565b8063b48ab8b6116100f2578063b48ab8b6146106d5578063bd85b039146106fe578063bd9c3a6d1461073b578063c2ef07b914610778578063c6388b3d146107b55761022f565b806395d89b41146105ca5780639619dcae146105f557806398a1420d1461063257806398de62641461066f578063a22cb465146106ac5761022f565b80632fd9df87116101bc578063731133e911610180578063731133e9146104e55780637e518ec81461050e57806382481d4914610537578063825fbbc4146105745780638da5cb5b1461059f5761022f565b80632fd9df871461040f5780633cf16d7e1461044c5780634e1273f4146104755780635771a812146104b2578063715018a6146104ce5761022f565b806315070401116102035780631507040114610316578063160a1f421461034157806317d7de7c1461037e5780632693ebf2146103a95780632eb2c2d6146103e65761022f565b8062fdd58e1461023457806301ffc9a71461027157806306fdde03146102ae5780630e89341c146102d9575b600080fd5b34801561024057600080fd5b5061025b600480360381019061025691906133da565b6109f0565b6040516102689190613429565b60405180910390f35b34801561027d57600080fd5b506102986004803603810190610293919061349c565b610ab9565b6040516102a591906134e4565b60405180910390f35b3480156102ba57600080fd5b506102c3610b9b565b6040516102d09190613598565b60405180910390f35b3480156102e557600080fd5b5061030060048036038101906102fb91906135ba565b610c29565b60405161030d9190613598565b60405180910390f35b34801561032257600080fd5b5061032b610cbd565b6040516103389190613598565b60405180910390f35b34801561034d57600080fd5b50610368600480360381019061036391906135e7565b610d4f565b6040516103759190613636565b60405180910390f35b34801561038a57600080fd5b50610393610d9d565b6040516103a09190613598565b60405180910390f35b3480156103b557600080fd5b506103d060048036038101906103cb91906135ba565b610e2f565b6040516103dd9190613429565b60405180910390f35b3480156103f257600080fd5b5061040d6004803603810190610408919061384e565b610e47565b005b34801561041b57600080fd5b50610436600480360381019061043191906135ba565b610ee8565b6040516104439190613429565b60405180910390f35b34801561045857600080fd5b50610473600480360381019061046e91906135ba565b610f00565b005b34801561048157600080fd5b5061049c600480360381019061049791906139e0565b610f77565b6040516104a99190613b16565b60405180910390f35b6104cc60048036038101906104c791906135ba565b611090565b005b3480156104da57600080fd5b506104e3611113565b005b3480156104f157600080fd5b5061050c60048036038101906105079190613b38565b61119b565b005b34801561051a57600080fd5b5061053560048036038101906105309190613c5c565b61128d565b005b34801561054357600080fd5b5061055e60048036038101906105599190613ca5565b611315565b60405161056b9190613429565b60405180910390f35b34801561058057600080fd5b5061058961133a565b6040516105969190613429565b60405180910390f35b3480156105ab57600080fd5b506105b4611344565b6040516105c19190613636565b60405180910390f35b3480156105d657600080fd5b506105df61136e565b6040516105ec9190613598565b60405180910390f35b34801561060157600080fd5b5061061c600480360381019061061791906135e7565b6113fc565b6040516106299190613636565b60405180910390f35b34801561063e57600080fd5b5061065960048036038101906106549190613d40565b61144a565b6040516106669190613429565b60405180910390f35b34801561067b57600080fd5b50610696600480360381019061069191906135e7565b6115b8565b6040516106a39190613429565b60405180910390f35b3480156106b857600080fd5b506106d360048036038101906106ce9190613df4565b6115e9565b005b3480156106e157600080fd5b506106fc60048036038101906106f79190613e34565b61176a565b005b34801561070a57600080fd5b50610725600480360381019061072091906135ba565b6118ba565b6040516107329190613429565b60405180910390f35b34801561074757600080fd5b50610762600480360381019061075d9190613eef565b6118d7565b60405161076f9190613429565b60405180910390f35b34801561078457600080fd5b5061079f600480360381019061079a9190613f93565b6119b6565b6040516107ac9190613429565b60405180910390f35b3480156107c157600080fd5b506107dc60048036038101906107d791906135ba565b611a06565b6040516107e99190613429565b60405180910390f35b3480156107fe57600080fd5b50610819600480360381019061081491906135ba565b611a1e565b6040516108269190613598565b60405180910390f35b34801561083b57600080fd5b50610856600480360381019061085191906135ba565b611abe565b6040516108639190613636565b60405180910390f35b34801561087857600080fd5b50610893600480360381019061088e9190613ff3565b611af1565b005b3480156108a157600080fd5b506108bc60048036038101906108b791906135ba565b611baf565b005b3480156108ca57600080fd5b506108e560048036038101906108e0919061404f565b611c35565b6040516108f291906134e4565b60405180910390f35b34801561090757600080fd5b50610922600480360381019061091d919061408f565b611cc9565b005b34801561093057600080fd5b5061094b60048036038101906109469190614126565b611d6a565b005b34801561095957600080fd5b50610974600480360381019061096f9190614153565b611e62565b6040516109819190613429565b60405180910390f35b34801561099657600080fd5b506109b160048036038101906109ac91906135ba565b611f6c565b6040516109be9190613429565b60405180910390f35b3480156109d357600080fd5b506109ee60048036038101906109e99190614209565b611f84565b005b60008073ffffffffffffffffffffffffffffffffffffffff168373ffffffffffffffffffffffffffffffffffffffff161415610a61576040517f08c379a0000000000000000000000000000000000000000000000000000000008152600401610a589061430b565b60405180910390fd5b60008083815260200190815260200160002060008473ffffffffffffffffffffffffffffffffffffffff1673ffffffffffffffffffffffffffffffffffffffff16815260200190815260200160002054905092915050565b60007fd9b67a26000000000000000000000000000000000000000000000000000000007bffffffffffffffffffffffffffffffffffffffffffffffffffffffff1916827bffffffffffffffffffffffffffffffffffffffffffffffffffffffff19161480610b8457507f0e89341c000000000000000000000000000000000000000000000000000000007bffffffffffffffffffffffffffffffffffffffffffffffffffffffff1916827bffffffffffffffffffffffffffffffffffffffffffffffffffffffff1916145b80610b945750610b93826121c4565b5b9050919050565b60048054610ba89061435a565b80601f0160208091040260200160405190810160405280929190818152602001828054610bd49061435a565b8015610c215780601f10610bf657610100808354040283529160200191610c21565b820191906000526020600020905b815481529060010190602001808311610c0457829003601f168201915b505050505081565b606060028054610c389061435a565b80601f0160208091040260200160405190810160405280929190818152602001828054610c649061435a565b8015610cb15780601f10610c8657610100808354040283529160200191610cb1565b820191906000526020600020905b815481529060010190602001808311610c9457829003601f168201915b50505050509050919050565b606060058054610ccc9061435a565b80601f0160208091040260200160405190810160405280929190818152602001828054610cf89061435a565b8015610d455780601f10610d1a57610100808354040283529160200191610d45565b820191906000526020600020905b815481529060010190602001808311610d2857829003601f168201915b5050505050905090565b600a6020528160005260406000208181548110610d6b57600080fd5b906000526020600020016000915091509054906101000a900473ffffffffffffffffffffffffffffffffffffffff1681565b606060048054610dac9061435a565b80601f0160208091040260200160405190810160405280929190818152602001828054610dd89061435a565b8015610e255780601f10610dfa57610100808354040283529160200191610e25565b820191906000526020600020905b815481529060010190602001808311610e0857829003601f168201915b5050505050905090565b60086020528060005260406000206000915090505481565b610e4f61222e565b73ffffffffffffffffffffffffffffffffffffffff168573ffffffffffffffffffffffffffffffffffffffff161480610e955750610e9485610e8f61222e565b611c35565b5b610ed4576040517f08c379a0000000000000000000000000000000000000000000000000000000008152600401610ecb906143fe565b60405180910390fd5b610ee18585858585612236565b5050505050565b600f6020528060005260406000206000915090505481565b60116000828152602001908152602001600020339080600181540180825580915050600190039060005260206000200160009091909190916101000a81548173ffffffffffffffffffffffffffffffffffffffff021916908373ffffffffffffffffffffffffffffffffffffffff16021790555050565b60608151835114610fbd576040517f08c379a0000000000000000000000000000000000000000000000000000000008152600401610fb490614490565b60405180910390fd5b6000835167ffffffffffffffff811115610fda57610fd9613656565b5b6040519080825280602002602001820160405280156110085781602001602082028036833780820191505090505b50905060005b84518110156110855761105585828151811061102d5761102c6144b0565b5b6020026020010151858381518110611048576110476144b0565b5b60200260200101516109f0565b828281518110611068576110676144b0565b5b6020026020010181815250508061107e9061450e565b905061100e565b508091505092915050565b60006007600083815260200190815260200160002060009054906101000a900473ffffffffffffffffffffffffffffffffffffffff1690508073ffffffffffffffffffffffffffffffffffffffff166108fc349081150290604051600060405180830381858888f1935050505015801561110e573d6000803e3d6000fd5b505050565b61111b61222e565b73ffffffffffffffffffffffffffffffffffffffff16611139611344565b73ffffffffffffffffffffffffffffffffffffffff161461118f576040517f08c379a0000000000000000000000000000000000000000000000000000000008152600401611186906145a3565b60405180910390fd5b611199600061254a565b565b823373ffffffffffffffffffffffffffffffffffffffff166007600083815260200190815260200160002060009054906101000a900473ffffffffffffffffffffffffffffffffffffffff1673ffffffffffffffffffffffffffffffffffffffff161461123d576040517f08c379a000000000000000000000000000000000000000000000000000000000815260040161123490614635565b60405180910390fd5b61124985858585612610565b61126f8360086000878152602001908152602001600020546127a690919063ffffffff16565b60086000868152602001908152602001600020819055505050505050565b61129561222e565b73ffffffffffffffffffffffffffffffffffffffff166112b3611344565b73ffffffffffffffffffffffffffffffffffffffff1614611309576040517f08c379a0000000000000000000000000000000000000000000000000000000008152600401611300906145a3565b60405180910390fd5b611312816127bc565b50565b600b602052816000526040600020602052806000526040600020600091509150505481565b6000600954905090565b6000600360009054906101000a900473ffffffffffffffffffffffffffffffffffffffff16905090565b6005805461137b9061435a565b80601f01602080910402602001604051908101604052809291908181526020018280546113a79061435a565b80156113f45780601f106113c9576101008083540402835291602001916113f4565b820191906000526020600020905b8154815290600101906020018083116113d757829003601f168201915b505050505081565b6011602052816000526040600020818154811061141857600080fd5b906000526020600020016000915091509054906101000a900473ffffffffffffffffffffffffffffffffffffffff1681565b60003373ffffffffffffffffffffffffffffffffffffffff166007600088815260200190815260200160002060009054906101000a900473ffffffffffffffffffffffffffffffffffffffff1673ffffffffffffffffffffffffffffffffffffffff16146114ed576040517f08c379a00000000000000000000000000000000000000000000000000000000081526004016114e4906146c7565b60405180910390fd5b600061150b33878686604051806020016040528060008152506118d7565b9050600c6000888152602001908152602001600020819080600181540180825580915050600190039060005260206000200160009091909190915055600d6000888152602001908152602001600020600081548092919061156b9061450e565b919050555084600f60008381526020019081526020016000208190555083836010600084815260200190815260200160002091906115aa929190613209565b508091505095945050505050565b600c60205281600052604060002081815481106115d457600080fd5b90600052602060002001600091509150505481565b8173ffffffffffffffffffffffffffffffffffffffff1661160861222e565b73ffffffffffffffffffffffffffffffffffffffff16141561165f576040517f08c379a000000000000000000000000000000000000000000000000000000000815260040161165690614759565b60405180910390fd5b806001600061166c61222e565b73ffffffffffffffffffffffffffffffffffffffff1673ffffffffffffffffffffffffffffffffffffffff16815260200190815260200160002060008473ffffffffffffffffffffffffffffffffffffffff1673ffffffffffffffffffffffffffffffffffffffff16815260200190815260200160002060006101000a81548160ff0219169083151502179055508173ffffffffffffffffffffffffffffffffffffffff1661171961222e565b73ffffffffffffffffffffffffffffffffffffffff167f17307eab39ab6107e8899845ad3d59bd9653f200f220920489ca2b5937696c318360405161175e91906134e4565b60405180910390a35050565b60005b83518110156118a757600084828151811061178b5761178a6144b0565b5b602002602001015190503373ffffffffffffffffffffffffffffffffffffffff166007600083815260200190815260200160002060009054906101000a900473ffffffffffffffffffffffffffffffffffffffff1673ffffffffffffffffffffffffffffffffffffffff1614611836576040517f08c379a000000000000000000000000000000000000000000000000000000000815260040161182d906147eb565b60405180910390fd5b600084838151811061184b5761184a6144b0565b5b6020026020010151905061187b8160086000858152602001908152602001600020546127a690919063ffffffff16565b60086000848152602001908152602001600020819055505050808061189f9061450e565b91505061176d565b506118b4848484846127d6565b50505050565b600060086000838152602001908152602001600020549050919050565b6000806118e26129f4565b90506118ec612a11565b336007600083815260200190815260200160002060006101000a81548173ffffffffffffffffffffffffffffffffffffffff021916908373ffffffffffffffffffffffffffffffffffffffff160217905550600085859050111561198557807f6bb7ff708619ba0610cba295a58592e0451dee2622938c8755667688daf3529b868660405161197c929190614838565b60405180910390a25b61199187828886612610565b8560086000838152602001908152602001600020819055508091505095945050505050565b6000806119d68560018686604051806020016040528060008152506118d7565b905083836010600084815260200190815260200160002091906119fa929190613209565b50809150509392505050565b600e6020528060005260406000206000915090505481565b60106020528060005260406000206000915090508054611a3d9061435a565b80601f0160208091040260200160405190810160405280929190818152602001828054611a699061435a565b8015611ab65780601f10611a8b57610100808354040283529160200191611ab6565b820191906000526020600020905b815481529060010190602001808311611a9957829003601f168201915b505050505081565b60076020528060005260406000206000915054906101000a900473ffffffffffffffffffffffffffffffffffffffff1681565b600073ffffffffffffffffffffffffffffffffffffffff168273ffffffffffffffffffffffffffffffffffffffff161415611b61576040517f08c379a0000000000000000000000000000000000000000000000000000000008152600401611b58906148ce565b60405180910390fd5b60005b8151811015611baa576000828281518110611b8257611b816144b0565b5b60200260200101519050611b968482612a2b565b508080611ba29061450e565b915050611b64565b505050565b611bb761222e565b73ffffffffffffffffffffffffffffffffffffffff16611bd5611344565b73ffffffffffffffffffffffffffffffffffffffff1614611c2b576040517f08c379a0000000000000000000000000000000000000000000000000000000008152600401611c22906145a3565b60405180910390fd5b8060098190555050565b6000600160008473ffffffffffffffffffffffffffffffffffffffff1673ffffffffffffffffffffffffffffffffffffffff16815260200190815260200160002060008373ffffffffffffffffffffffffffffffffffffffff1673ffffffffffffffffffffffffffffffffffffffff16815260200190815260200160002060009054906101000a900460ff16905092915050565b611cd161222e565b73ffffffffffffffffffffffffffffffffffffffff168573ffffffffffffffffffffffffffffffffffffffff161480611d175750611d1685611d1161222e565b611c35565b5b611d56576040517f08c379a0000000000000000000000000000000000000000000000000000000008152600401611d4d90614960565b60405180910390fd5b611d638585858585612b24565b5050505050565b611d7261222e565b73ffffffffffffffffffffffffffffffffffffffff16611d90611344565b73ffffffffffffffffffffffffffffffffffffffff1614611de6576040517f08c379a0000000000000000000000000000000000000000000000000000000008152600401611ddd906145a3565b60405180910390fd5b600073ffffffffffffffffffffffffffffffffffffffff168173ffffffffffffffffffffffffffffffffffffffff161415611e56576040517f08c379a0000000000000000000000000000000000000000000000000000000008152600401611e4d906149f2565b60405180910390fd5b611e5f8161254a565b50565b60003373ffffffffffffffffffffffffffffffffffffffff166007600086815260200190815260200160002060009054906101000a900473ffffffffffffffffffffffffffffffffffffffff1673ffffffffffffffffffffffffffffffffffffffff1614611f05576040517f08c379a0000000000000000000000000000000000000000000000000000000008152600401611efc906146c7565b60405180910390fd5b6000611f243360018686604051806020016040528060008152506118d7565b905080600e6000878152602001908152602001600020819055508383601060008481526020019081526020016000209190611f60929190613209565b50809150509392505050565b600d6020528060005260406000206000915090505481565b3373ffffffffffffffffffffffffffffffffffffffff166007600086815260200190815260200160002060009054906101000a900473ffffffffffffffffffffffffffffffffffffffff1673ffffffffffffffffffffffffffffffffffffffff1614612025576040517f08c379a000000000000000000000000000000000000000000000000000000000815260040161201c90614a84565b60405180910390fd5b8051838390501461206b576040517f08c379a000000000000000000000000000000000000000000000000000000000815260040161206290614b16565b60405180910390fd5b60005b838390508110156121bd57600a600086815260200190815260200160002084848381811061209f5761209e6144b0565b5b90506020020160208101906120b49190614126565b9080600181540180825580915050600190039060005260206000200160009091909190916101000a81548173ffffffffffffffffffffffffffffffffffffffff021916908373ffffffffffffffffffffffffffffffffffffffff160217905550818181518110612127576121266144b0565b5b6020026020010151600b60008781526020019081526020016000206000868685818110612157576121566144b0565b5b905060200201602081019061216c9190614126565b73ffffffffffffffffffffffffffffffffffffffff1673ffffffffffffffffffffffffffffffffffffffff1681526020019081526020016000208190555080806121b59061450e565b91505061206e565b5050505050565b60007f01ffc9a7000000000000000000000000000000000000000000000000000000007bffffffffffffffffffffffffffffffffffffffffffffffffffffffff1916827bffffffffffffffffffffffffffffffffffffffffffffffffffffffff1916149050919050565b600033905090565b815183511461227a576040517f08c379a000000000000000000000000000000000000000000000000000000000815260040161227190614ba8565b60405180910390fd5b600073ffffffffffffffffffffffffffffffffffffffff168473ffffffffffffffffffffffffffffffffffffffff1614156122ea576040517f08c379a00000000000000000000000000000000000000000000000000000000081526004016122e190614c3a565b60405180910390fd5b60006122f461222e565b9050612304818787878787612da6565b60005b84518110156124b5576000858281518110612325576123246144b0565b5b602002602001015190506000858381518110612344576123436144b0565b5b60200260200101519050600080600084815260200190815260200160002060008b73ffffffffffffffffffffffffffffffffffffffff1673ffffffffffffffffffffffffffffffffffffffff168152602001908152602001600020549050818110156123e5576040517f08c379a00000000000000000000000000000000000000000000000000000000081526004016123dc90614ccc565b60405180910390fd5b81810360008085815260200190815260200160002060008c73ffffffffffffffffffffffffffffffffffffffff1673ffffffffffffffffffffffffffffffffffffffff168152602001908152602001600020819055508160008085815260200190815260200160002060008b73ffffffffffffffffffffffffffffffffffffffff1673ffffffffffffffffffffffffffffffffffffffff168152602001908152602001600020600082825461249a9190614cec565b92505081905550505050806124ae9061450e565b9050612307565b508473ffffffffffffffffffffffffffffffffffffffff168673ffffffffffffffffffffffffffffffffffffffff168273ffffffffffffffffffffffffffffffffffffffff167f4a39dc06d4c0dbc64b70af90fd698a233a518aa5d07e595d983b8c0526c8f7fb878760405161252c929190614d42565b60405180910390a4612542818787878787612dae565b505050505050565b6000600360009054906101000a900473ffffffffffffffffffffffffffffffffffffffff16905081600360006101000a81548173ffffffffffffffffffffffffffffffffffffffff021916908373ffffffffffffffffffffffffffffffffffffffff1602179055508173ffffffffffffffffffffffffffffffffffffffff168173ffffffffffffffffffffffffffffffffffffffff167f8be0079c531659141344cd1fd0a4f28419497f9722a3daafe3b4186f6b6457e060405160405180910390a35050565b600073ffffffffffffffffffffffffffffffffffffffff168473ffffffffffffffffffffffffffffffffffffffff161415612680576040517f08c379a000000000000000000000000000000000000000000000000000000000815260040161267790614deb565b60405180910390fd5b600061268a61222e565b90506126ab8160008761269c88612f95565b6126a588612f95565b87612da6565b8260008086815260200190815260200160002060008773ffffffffffffffffffffffffffffffffffffffff1673ffffffffffffffffffffffffffffffffffffffff168152602001908152602001600020600082825461270a9190614cec565b925050819055508473ffffffffffffffffffffffffffffffffffffffff16600073ffffffffffffffffffffffffffffffffffffffff168273ffffffffffffffffffffffffffffffffffffffff167fc3d58168c5ae7397731d063d5bbf3d657854427343f4c083240f7aacaa2d0f628787604051612788929190614e0b565b60405180910390a461279f8160008787878761300f565b5050505050565b600081836127b49190614cec565b905092915050565b80600290805190602001906127d292919061328f565b5050565b600073ffffffffffffffffffffffffffffffffffffffff168473ffffffffffffffffffffffffffffffffffffffff161415612846576040517f08c379a000000000000000000000000000000000000000000000000000000000815260040161283d90614deb565b60405180910390fd5b815183511461288a576040517f08c379a000000000000000000000000000000000000000000000000000000000815260040161288190614ba8565b60405180910390fd5b600061289461222e565b90506128a581600087878787612da6565b60005b845181101561295e578381815181106128c4576128c36144b0565b5b60200260200101516000808784815181106128e2576128e16144b0565b5b6020026020010151815260200190815260200160002060008873ffffffffffffffffffffffffffffffffffffffff1673ffffffffffffffffffffffffffffffffffffffff16815260200190815260200160002060008282546129449190614cec565b9250508190555080806129569061450e565b9150506128a8565b508473ffffffffffffffffffffffffffffffffffffffff16600073ffffffffffffffffffffffffffffffffffffffff168273ffffffffffffffffffffffffffffffffffffffff167f4a39dc06d4c0dbc64b70af90fd698a233a518aa5d07e595d983b8c0526c8f7fb87876040516129d6929190614d42565b60405180910390a46129ed81600087878787612dae565b5050505050565b6000612a0c60016006546127a690919063ffffffff16565b905090565b60066000815480929190612a249061450e565b9190505550565b803373ffffffffffffffffffffffffffffffffffffffff166007600083815260200190815260200160002060009054906101000a900473ffffffffffffffffffffffffffffffffffffffff1673ffffffffffffffffffffffffffffffffffffffff1614612acd576040517f08c379a0000000000000000000000000000000000000000000000000000000008152600401612ac490614635565b60405180910390fd5b826007600084815260200190815260200160002060006101000a81548173ffffffffffffffffffffffffffffffffffffffff021916908373ffffffffffffffffffffffffffffffffffffffff160217905550505050565b600073ffffffffffffffffffffffffffffffffffffffff168473ffffffffffffffffffffffffffffffffffffffff161415612b94576040517f08c379a0000000000000000000000000000000000000000000000000000000008152600401612b8b90614c3a565b60405180910390fd5b6000612b9e61222e565b9050612bbe818787612baf88612f95565b612bb888612f95565b87612da6565b600080600086815260200190815260200160002060008873ffffffffffffffffffffffffffffffffffffffff1673ffffffffffffffffffffffffffffffffffffffff16815260200190815260200160002054905083811015612c55576040517f08c379a0000000000000000000000000000000000000000000000000000000008152600401612c4c90614ccc565b60405180910390fd5b83810360008087815260200190815260200160002060008973ffffffffffffffffffffffffffffffffffffffff1673ffffffffffffffffffffffffffffffffffffffff168152602001908152602001600020819055508360008087815260200190815260200160002060008873ffffffffffffffffffffffffffffffffffffffff1673ffffffffffffffffffffffffffffffffffffffff1681526020019081526020016000206000828254612d0a9190614cec565b925050819055508573ffffffffffffffffffffffffffffffffffffffff168773ffffffffffffffffffffffffffffffffffffffff168373ffffffffffffffffffffffffffffffffffffffff167fc3d58168c5ae7397731d063d5bbf3d657854427343f4c083240f7aacaa2d0f628888604051612d87929190614e0b565b60405180910390a4612d9d82888888888861300f565b50505050505050565b505050505050565b612dcd8473ffffffffffffffffffffffffffffffffffffffff166131f6565b15612f8d578373ffffffffffffffffffffffffffffffffffffffff1663bc197c8187878686866040518663ffffffff1660e01b8152600401612e13959493929190614e89565b602060405180830381600087803b158015612e2d57600080fd5b505af1925050508015612e5e57506040513d601f19601f82011682018060405250810190612e5b9190614f06565b60015b612f0457612e6a614f40565b806308c379a01415612ec75750612e7f614f62565b80612e8a5750612ec9565b806040517f08c379a0000000000000000000000000000000000000000000000000000000008152600401612ebe9190613598565b60405180910390fd5b505b6040517f08c379a0000000000000000000000000000000000000000000000000000000008152600401612efb9061506a565b60405180910390fd5b63bc197c8160e01b7bffffffffffffffffffffffffffffffffffffffffffffffffffffffff1916817bffffffffffffffffffffffffffffffffffffffffffffffffffffffff191614612f8b576040517f08c379a0000000000000000000000000000000000000000000000000000000008152600401612f82906150fc565b60405180910390fd5b505b505050505050565b60606000600167ffffffffffffffff811115612fb457612fb3613656565b5b604051908082528060200260200182016040528015612fe25781602001602082028036833780820191505090505b5090508281600081518110612ffa57612ff96144b0565b5b60200260200101818152505080915050919050565b61302e8473ffffffffffffffffffffffffffffffffffffffff166131f6565b156131ee578373ffffffffffffffffffffffffffffffffffffffff1663f23a6e6187878686866040518663ffffffff1660e01b815260040161307495949392919061511c565b602060405180830381600087803b15801561308e57600080fd5b505af19250505080156130bf57506040513d601f19601f820116820180604052508101906130bc9190614f06565b60015b613165576130cb614f40565b806308c379a0141561312857506130e0614f62565b806130eb575061312a565b806040517f08c379a000000000000000000000000000000000000000000000000000000000815260040161311f9190613598565b60405180910390fd5b505b6040517f08c379a000000000000000000000000000000000000000000000000000000000815260040161315c9061506a565b60405180910390fd5b63f23a6e6160e01b7bffffffffffffffffffffffffffffffffffffffffffffffffffffffff1916817bffffffffffffffffffffffffffffffffffffffffffffffffffffffff1916146131ec576040517f08c379a00000000000000000000000000000000000000000000000000000000081526004016131e3906150fc565b60405180910390fd5b505b505050505050565b600080823b905060008111915050919050565b8280546132159061435a565b90600052602060002090601f016020900481019282613237576000855561327e565b82601f1061325057803560ff191683800117855561327e565b8280016001018555821561327e579182015b8281111561327d578235825591602001919060010190613262565b5b50905061328b9190613315565b5090565b82805461329b9061435a565b90600052602060002090601f0160209004810192826132bd5760008555613304565b82601f106132d657805160ff1916838001178555613304565b82800160010185558215613304579182015b828111156133035782518255916020019190600101906132e8565b5b5090506133119190613315565b5090565b5b8082111561332e576000816000905550600101613316565b5090565b6000604051905090565b600080fd5b600080fd5b600073ffffffffffffffffffffffffffffffffffffffff82169050919050565b600061337182613346565b9050919050565b61338181613366565b811461338c57600080fd5b50565b60008135905061339e81613378565b92915050565b6000819050919050565b6133b7816133a4565b81146133c257600080fd5b50565b6000813590506133d4816133ae565b92915050565b600080604083850312156133f1576133f061333c565b5b60006133ff8582860161338f565b9250506020613410858286016133c5565b9150509250929050565b613423816133a4565b82525050565b600060208201905061343e600083018461341a565b92915050565b60007fffffffff0000000000000000000000000000000000000000000000000000000082169050919050565b61347981613444565b811461348457600080fd5b50565b60008135905061349681613470565b92915050565b6000602082840312156134b2576134b161333c565b5b60006134c084828501613487565b91505092915050565b60008115159050919050565b6134de816134c9565b82525050565b60006020820190506134f960008301846134d5565b92915050565b600081519050919050565b600082825260208201905092915050565b60005b8381101561353957808201518184015260208101905061351e565b83811115613548576000848401525b50505050565b6000601f19601f8301169050919050565b600061356a826134ff565b613574818561350a565b935061358481856020860161351b565b61358d8161354e565b840191505092915050565b600060208201905081810360008301526135b2818461355f565b905092915050565b6000602082840312156135d0576135cf61333c565b5b60006135de848285016133c5565b91505092915050565b600080604083850312156135fe576135fd61333c565b5b600061360c858286016133c5565b925050602061361d858286016133c5565b9150509250929050565b61363081613366565b82525050565b600060208201905061364b6000830184613627565b92915050565b600080fd5b7f4e487b7100000000000000000000000000000000000000000000000000000000600052604160045260246000fd5b61368e8261354e565b810181811067ffffffffffffffff821117156136ad576136ac613656565b5b80604052505050565b60006136c0613332565b90506136cc8282613685565b919050565b600067ffffffffffffffff8211156136ec576136eb613656565b5b602082029050602081019050919050565b600080fd5b6000613715613710846136d1565b6136b6565b90508083825260208201905060208402830185811115613738576137376136fd565b5b835b81811015613761578061374d88826133c5565b84526020840193505060208101905061373a565b5050509392505050565b600082601f8301126137805761377f613651565b5b8135613790848260208601613702565b91505092915050565b600080fd5b600067ffffffffffffffff8211156137b9576137b8613656565b5b6137c28261354e565b9050602081019050919050565b82818337600083830152505050565b60006137f16137ec8461379e565b6136b6565b90508281526020810184848401111561380d5761380c613799565b5b6138188482856137cf565b509392505050565b600082601f83011261383557613834613651565b5b81356138458482602086016137de565b91505092915050565b600080600080600060a0868803121561386a5761386961333c565b5b60006138788882890161338f565b95505060206138898882890161338f565b945050604086013567ffffffffffffffff8111156138aa576138a9613341565b5b6138b68882890161376b565b935050606086013567ffffffffffffffff8111156138d7576138d6613341565b5b6138e38882890161376b565b925050608086013567ffffffffffffffff81111561390457613903613341565b5b61391088828901613820565b9150509295509295909350565b600067ffffffffffffffff82111561393857613937613656565b5b602082029050602081019050919050565b600061395c6139578461391d565b6136b6565b9050808382526020820190506020840283018581111561397f5761397e6136fd565b5b835b818110156139a85780613994888261338f565b845260208401935050602081019050613981565b5050509392505050565b600082601f8301126139c7576139c6613651565b5b81356139d7848260208601613949565b91505092915050565b600080604083850312156139f7576139f661333c565b5b600083013567ffffffffffffffff811115613a1557613a14613341565b5b613a21858286016139b2565b925050602083013567ffffffffffffffff811115613a4257613a41613341565b5b613a4e8582860161376b565b9150509250929050565b600081519050919050565b600082825260208201905092915050565b6000819050602082019050919050565b613a8d816133a4565b82525050565b6000613a9f8383613a84565b60208301905092915050565b6000602082019050919050565b6000613ac382613a58565b613acd8185613a63565b9350613ad883613a74565b8060005b83811015613b09578151613af08882613a93565b9750613afb83613aab565b925050600181019050613adc565b5085935050505092915050565b60006020820190508181036000830152613b308184613ab8565b905092915050565b60008060008060808587031215613b5257613b5161333c565b5b6000613b608782880161338f565b9450506020613b71878288016133c5565b9350506040613b82878288016133c5565b925050606085013567ffffffffffffffff811115613ba357613ba2613341565b5b613baf87828801613820565b91505092959194509250565b600067ffffffffffffffff821115613bd657613bd5613656565b5b613bdf8261354e565b9050602081019050919050565b6000613bff613bfa84613bbb565b6136b6565b905082815260208101848484011115613c1b57613c1a613799565b5b613c268482856137cf565b509392505050565b600082601f830112613c4357613c42613651565b5b8135613c53848260208601613bec565b91505092915050565b600060208284031215613c7257613c7161333c565b5b600082013567ffffffffffffffff811115613c9057613c8f613341565b5b613c9c84828501613c2e565b91505092915050565b60008060408385031215613cbc57613cbb61333c565b5b6000613cca858286016133c5565b9250506020613cdb8582860161338f565b9150509250929050565b600080fd5b60008083601f840112613d0057613cff613651565b5b8235905067ffffffffffffffff811115613d1d57613d1c613ce5565b5b602083019150836001820283011115613d3957613d386136fd565b5b9250929050565b600080600080600060808688031215613d5c57613d5b61333c565b5b6000613d6a888289016133c5565b9550506020613d7b888289016133c5565b9450506040613d8c888289016133c5565b935050606086013567ffffffffffffffff811115613dad57613dac613341565b5b613db988828901613cea565b92509250509295509295909350565b613dd1816134c9565b8114613ddc57600080fd5b50565b600081359050613dee81613dc8565b92915050565b60008060408385031215613e0b57613e0a61333c565b5b6000613e198582860161338f565b9250506020613e2a85828601613ddf565b9150509250929050565b60008060008060808587031215613e4e57613e4d61333c565b5b6000613e5c8782880161338f565b945050602085013567ffffffffffffffff811115613e7d57613e7c613341565b5b613e898782880161376b565b935050604085013567ffffffffffffffff811115613eaa57613ea9613341565b5b613eb68782880161376b565b925050606085013567ffffffffffffffff811115613ed757613ed6613341565b5b613ee387828801613820565b91505092959194509250565b600080600080600060808688031215613f0b57613f0a61333c565b5b6000613f198882890161338f565b9550506020613f2a888289016133c5565b945050604086013567ffffffffffffffff811115613f4b57613f4a613341565b5b613f5788828901613cea565b9350935050606086013567ffffffffffffffff811115613f7a57613f79613341565b5b613f8688828901613820565b9150509295509295909350565b600080600060408486031215613fac57613fab61333c565b5b6000613fba8682870161338f565b935050602084013567ffffffffffffffff811115613fdb57613fda613341565b5b613fe786828701613cea565b92509250509250925092565b6000806040838503121561400a5761400961333c565b5b60006140188582860161338f565b925050602083013567ffffffffffffffff81111561403957614038613341565b5b6140458582860161376b565b9150509250929050565b600080604083850312156140665761406561333c565b5b60006140748582860161338f565b92505060206140858582860161338f565b9150509250929050565b600080600080600060a086880312156140ab576140aa61333c565b5b60006140b98882890161338f565b95505060206140ca8882890161338f565b94505060406140db888289016133c5565b93505060606140ec888289016133c5565b925050608086013567ffffffffffffffff81111561410d5761410c613341565b5b61411988828901613820565b9150509295509295909350565b60006020828403121561413c5761413b61333c565b5b600061414a8482850161338f565b91505092915050565b60008060006040848603121561416c5761416b61333c565b5b600061417a868287016133c5565b935050602084013567ffffffffffffffff81111561419b5761419a613341565b5b6141a786828701613cea565b92509250509250925092565b60008083601f8401126141c9576141c8613651565b5b8235905067ffffffffffffffff8111156141e6576141e5613ce5565b5b602083019150836020820283011115614202576142016136fd565b5b9250929050565b600080600080606085870312156142235761422261333c565b5b6000614231878288016133c5565b945050602085013567ffffffffffffffff81111561425257614251613341565b5b61425e878288016141b3565b9350935050604085013567ffffffffffffffff81111561428157614280613341565b5b61428d8782880161376b565b91505092959194509250565b7f455243313135353a2062616c616e636520717565727920666f7220746865207a60008201527f65726f2061646472657373000000000000000000000000000000000000000000602082015250565b60006142f5602b8361350a565b915061430082614299565b604082019050919050565b60006020820190508181036000830152614324816142e8565b9050919050565b7f4e487b7100000000000000000000000000000000000000000000000000000000600052602260045260246000fd5b6000600282049050600182168061437257607f821691505b602082108114156143865761438561432b565b5b50919050565b7f455243313135353a207472616e736665722063616c6c6572206973206e6f742060008201527f6f776e6572206e6f7220617070726f7665640000000000000000000000000000602082015250565b60006143e860328361350a565b91506143f38261438c565b604082019050919050565b60006020820190508181036000830152614417816143db565b9050919050565b7f455243313135353a206163636f756e747320616e6420696473206c656e67746860008201527f206d69736d617463680000000000000000000000000000000000000000000000602082015250565b600061447a60298361350a565b91506144858261441e565b604082019050919050565b600060208201905081810360008301526144a98161446d565b9050919050565b7f4e487b7100000000000000000000000000000000000000000000000000000000600052603260045260246000fd5b7f4e487b7100000000000000000000000000000000000000000000000000000000600052601160045260246000fd5b6000614519826133a4565b91507fffffffffffffffffffffffffffffffffffffffffffffffffffffffffffffffff82141561454c5761454b6144df565b5b600182019050919050565b7f4f776e61626c653a2063616c6c6572206973206e6f7420746865206f776e6572600082015250565b600061458d60208361350a565b915061459882614557565b602082019050919050565b600060208201905081810360008301526145bc81614580565b9050919050565b7f45524331313535546f6b656e2363726561746f724f6e6c793a204f4e4c595f4360008201527f524541544f525f414c4c4f574544000000000000000000000000000000000000602082015250565b600061461f602e8361350a565b915061462a826145c3565b604082019050919050565b6000602082019050818103600083015261464e81614612565b9050919050565b7f4361726e6976616c23637265617465537761674e46543a204f4e4c595f43524560008201527f41544f525f414c4c4f5745440000000000000000000000000000000000000000602082015250565b60006146b1602c8361350a565b91506146bc82614655565b604082019050919050565b600060208201905081810360008301526146e0816146a4565b9050919050565b7f455243313135353a2073657474696e6720617070726f76616c2073746174757360008201527f20666f722073656c660000000000000000000000000000000000000000000000602082015250565b600061474360298361350a565b915061474e826146e7565b604082019050919050565b6000602082019050818103600083015261477281614736565b9050919050565b7f45524331313535546f6b656e2362617463684d696e743a204f4e4c595f43524560008201527f41544f525f414c4c4f5745440000000000000000000000000000000000000000602082015250565b60006147d5602c8361350a565b91506147e082614779565b604082019050919050565b60006020820190508181036000830152614804816147c8565b9050919050565b6000614817838561350a565b93506148248385846137cf565b61482d8361354e565b840190509392505050565b6000602082019050818103600083015261485381848661480b565b90509392505050565b7f455243313135355472616461626c652373657443726561746f723a20494e564160008201527f4c49445f414444524553532e0000000000000000000000000000000000000000602082015250565b60006148b8602c8361350a565b91506148c38261485c565b604082019050919050565b600060208201905081810360008301526148e7816148ab565b9050919050565b7f455243313135353a2063616c6c6572206973206e6f74206f776e6572206e6f7260008201527f20617070726f7665640000000000000000000000000000000000000000000000602082015250565b600061494a60298361350a565b9150614955826148ee565b604082019050919050565b600060208201905081810360008301526149798161493d565b9050919050565b7f4f776e61626c653a206e6577206f776e657220697320746865207a65726f206160008201527f6464726573730000000000000000000000000000000000000000000000000000602082015250565b60006149dc60268361350a565b91506149e782614980565b604082019050919050565b60006020820190508181036000830152614a0b816149cf565b9050919050565b7f4361726e6976616c236164644672616374696f6e616c4f776e6572733a204f4e60008201527f4c595f43524541544f525f414c4c4f5745440000000000000000000000000000602082015250565b6000614a6e60328361350a565b9150614a7982614a12565b604082019050919050565b60006020820190508181036000830152614a9d81614a61565b9050919050565b7f4361726e6976616c236164644672616374696f6e616c4f776e6572733a20494e60008201527f56414c49445f494e5055545f5355424f574e4552535f4f525f53484152450000602082015250565b6000614b00603e8361350a565b9150614b0b82614aa4565b604082019050919050565b60006020820190508181036000830152614b2f81614af3565b9050919050565b7f455243313135353a2069647320616e6420616d6f756e7473206c656e6774682060008201527f6d69736d61746368000000000000000000000000000000000000000000000000602082015250565b6000614b9260288361350a565b9150614b9d82614b36565b604082019050919050565b60006020820190508181036000830152614bc181614b85565b9050919050565b7f455243313135353a207472616e7366657220746f20746865207a65726f20616460008201527f6472657373000000000000000000000000000000000000000000000000000000602082015250565b6000614c2460258361350a565b9150614c2f82614bc8565b604082019050919050565b60006020820190508181036000830152614c5381614c17565b9050919050565b7f455243313135353a20696e73756666696369656e742062616c616e636520666f60008201527f72207472616e7366657200000000000000000000000000000000000000000000602082015250565b6000614cb6602a8361350a565b9150614cc182614c5a565b604082019050919050565b60006020820190508181036000830152614ce581614ca9565b9050919050565b6000614cf7826133a4565b9150614d02836133a4565b9250827fffffffffffffffffffffffffffffffffffffffffffffffffffffffffffffffff03821115614d3757614d366144df565b5b828201905092915050565b60006040820190508181036000830152614d5c8185613ab8565b90508181036020830152614d708184613ab8565b90509392505050565b7f455243313135353a206d696e7420746f20746865207a65726f2061646472657360008201527f7300000000000000000000000000000000000000000000000000000000000000602082015250565b6000614dd560218361350a565b9150614de082614d79565b604082019050919050565b60006020820190508181036000830152614e0481614dc8565b9050919050565b6000604082019050614e20600083018561341a565b614e2d602083018461341a565b9392505050565b600081519050919050565b600082825260208201905092915050565b6000614e5b82614e34565b614e658185614e3f565b9350614e7581856020860161351b565b614e7e8161354e565b840191505092915050565b600060a082019050614e9e6000830188613627565b614eab6020830187613627565b8181036040830152614ebd8186613ab8565b90508181036060830152614ed18185613ab8565b90508181036080830152614ee58184614e50565b90509695505050505050565b600081519050614f0081613470565b92915050565b600060208284031215614f1c57614f1b61333c565b5b6000614f2a84828501614ef1565b91505092915050565b60008160e01c9050919050565b600060033d1115614f5f5760046000803e614f5c600051614f33565b90505b90565b600060443d1015614f7257614ff5565b614f7a613332565b60043d036004823e80513d602482011167ffffffffffffffff82111715614fa2575050614ff5565b808201805167ffffffffffffffff811115614fc05750505050614ff5565b80602083010160043d038501811115614fdd575050505050614ff5565b614fec82602001850186613685565b82955050505050505b90565b7f455243313135353a207472616e7366657220746f206e6f6e204552433131353560008201527f526563656976657220696d706c656d656e746572000000000000000000000000602082015250565b600061505460348361350a565b915061505f82614ff8565b604082019050919050565b6000602082019050818103600083015261508381615047565b9050919050565b7f455243313135353a204552433131353552656365697665722072656a6563746560008201527f6420746f6b656e73000000000000000000000000000000000000000000000000602082015250565b60006150e660288361350a565b91506150f18261508a565b604082019050919050565b60006020820190508181036000830152615115816150d9565b9050919050565b600060a0820190506151316000830188613627565b61513e6020830187613627565b61514b604083018661341a565b615158606083018561341a565b818103608083015261516a8184614e50565b9050969550505050505056fea26469706673582212205e861854095efaae5e93cf95fdbceeb0e099f27e015a5daf3f720737d2204d7764736f6c63430008090033",
  "immutableReferences": {},
  "source": "// SPDX-License-Identifier: MIT\r\npragma solidity ^0.8.0;\r\n\r\nimport \"@openzeppelin/contracts/access/Ownable.sol\";\r\nimport \"@openzeppelin/contracts/token/ERC1155/ERC1155.sol\";\r\nimport \"@openzeppelin/contracts/access/Ownable.sol\";\r\nimport \"@openzeppelin/contracts/utils/math/SafeMath.sol\";\r\n\r\n/**\r\n * @title ERC1155Token\r\n * ERC1155Token - ERC1155 contract that has create and mint functionality, and supports useful standards from OpenZeppelin\r\n */\r\n \r\ncontract ERC1155Token is ERC1155, Ownable{\r\n    \r\n    using SafeMath for uint256;\r\n    \r\n    // Token name\r\n    string public name;\r\n    // Token symbol\r\n    string public symbol;\r\n    \r\n    uint256 private _currentTokenID = 0;\r\n    \r\n    mapping (uint256 => address) public creators;\r\n    \r\n    mapping (uint256 => uint256) public tokenSupply;\r\n    \r\n    constructor( string memory _name, string memory _symbol, string memory _baseURI) ERC1155(_baseURI){\r\n        name = _name;\r\n        symbol = _symbol;\r\n    }\r\n    \r\n    /**\r\n     * @dev Require msg.sender to be the creator of the token id\r\n     */\r\n    modifier creatorOnly(uint256 _id) {\r\n        require(creators[_id] == msg.sender, \"ERC1155Token#creatorOnly: ONLY_CREATOR_ALLOWED\");\r\n        _;\r\n    }\r\n  \r\n    /**\r\n     * @dev Gets the token name\r\n     * @return string representing the token name\r\n     */\r\n    function getName() public view returns (string memory) {\r\n        return name;\r\n    }\r\n    \r\n    /**\r\n     * @dev Gets the token symbol\r\n     * @return string representing the token symbol\r\n     */\r\n    function getSymbol() public view returns (string memory) {\r\n        return symbol;\r\n    }\r\n  \r\n    function totalSupply(uint256 _id) public view returns (uint256) {\r\n        return tokenSupply[_id];\r\n    }      \r\n    \r\n    /**\r\n     * @dev Will update the base URL of token's URI\r\n     * @param _newBaseMetadataURI New base URL of token's URI\r\n     */\r\n    function setBaseMetadataURI(string memory _newBaseMetadataURI) public onlyOwner {\r\n        _setURI(_newBaseMetadataURI);\r\n    }\r\n    \r\n        /**\r\n     * @dev Creates a new token type and assigns _initialSupply to an address\r\n     * NOTE: remove onlyOwner if you want third parties to create new tokens on your contract (which may change your IDs)\r\n     * @param _initialOwner address of the first owner of the token\r\n     * @param _initialSupply amount to supply the first owner\r\n     * @param _uri URI for this token type\r\n     * @param _data Data to pass if receiver is contract\r\n     * @return The newly created token ID\r\n     */\r\n    function _createNFT(\r\n        address _initialOwner,\r\n        uint256 _initialSupply,\r\n        string calldata _uri,\r\n        bytes memory _data) \r\n        public returns (uint256) {\r\n        \r\n        uint256 _id = _getNextTokenID();\r\n        _incrementTokenTypeId();\r\n        creators[_id] = msg.sender;\r\n    \r\n        if (bytes(_uri).length > 0) {\r\n          emit URI(_uri, _id);\r\n        }\r\n    \r\n        _mint(_initialOwner, _id, _initialSupply, _data);\r\n        tokenSupply[_id] = _initialSupply;\r\n        return _id;\r\n    }\r\n    \r\n    /**\r\n     * @dev Mints some amount of tokens to an address\r\n     * @param _to          Address of the future owner of the token\r\n     * @param _id          Token ID to mint\r\n     * @param _quantity    Amount of tokens to mint\r\n     * @param _data        Data to pass if receiver is contract\r\n     */\r\n    function mint(\r\n        address _to,\r\n        uint256 _id,\r\n        uint256 _quantity,\r\n        bytes memory _data\r\n      ) public creatorOnly(_id) {\r\n        _mint(_to, _id, _quantity, _data);\r\n        tokenSupply[_id] = tokenSupply[_id].add(_quantity);\r\n      }\r\n      \r\n    /**\r\n     * @dev Mint tokens for each id in _ids\r\n     * @param _to          The address to mint tokens to\r\n     * @param _ids         Array of ids to mint\r\n     * @param _quantities  Array of amounts of tokens to mint per id\r\n     * @param _data        Data to pass if receiver is contract\r\n     */\r\n    function batchMint(\r\n        address _to,\r\n        uint256[] memory _ids,\r\n        uint256[] memory _quantities,\r\n        bytes memory _data\r\n        ) public {\r\n        for (uint256 i = 0; i < _ids.length; i++) {\r\n          uint256 _id = _ids[i];\r\n          require(creators[_id] == msg.sender, \"ERC1155Token#batchMint: ONLY_CREATOR_ALLOWED\");\r\n          uint256 quantity = _quantities[i];\r\n          tokenSupply[_id] = tokenSupply[_id].add(quantity);\r\n        }\r\n        _mintBatch(_to, _ids, _quantities, _data);\r\n    }\r\n      \r\n    /**\r\n     * @dev Change the creator address for given tokens\r\n     * @param _to   Address of the new creator\r\n     * @param _ids  Array of Token IDs to change creator\r\n     */\r\n    function setCreator(\r\n        address _to,\r\n        uint256[] memory _ids\r\n      ) public {\r\n        require(_to != address(0), \"ERC1155Tradable#setCreator: INVALID_ADDRESS.\");\r\n        for (uint256 i = 0; i < _ids.length; i++) {\r\n          uint256 id = _ids[i];\r\n          _setCreator(_to, id);\r\n        }\r\n    }\r\n    \r\n    /**\r\n     * @dev Change the creator address for given token\r\n     * @param _to   Address of the new creator\r\n     * @param _id  Token IDs to change creator of\r\n     */\r\n    function _setCreator(address _to, uint256 _id) internal creatorOnly(_id)\r\n    {\r\n        creators[_id] = _to;\r\n    }\r\n  \r\n    /**\r\n     * @dev Returns whether the specified token exists by checking to see if it has a creator\r\n     * @param _id uint256 ID of the token to query the existence of\r\n     * @return bool whether the token exists\r\n     */\r\n    function _exists(\r\n        uint256 _id\r\n    ) internal view returns (bool) {\r\n        return creators[_id] != address(0);\r\n    }\r\n    \r\n    /**\r\n     * @dev calculates the next token ID based on value of _currentTokenID\r\n     * @return uint256 for the next token ID\r\n     */\r\n    function _getNextTokenID() private view returns (uint256) {\r\n        return _currentTokenID.add(1);\r\n    }\r\n    \r\n    /**\r\n     * @dev increments the value of _currentTokenID\r\n     */\r\n    function _incrementTokenTypeId() private  {\r\n        _currentTokenID++;\r\n    }\r\n}\r\n\r\n\r\ncontract Carnival is ERC1155Token{\r\n    \r\n    constructor(string memory _name, \r\n                string memory _symbol,\r\n                string memory _baseURI) \r\n                ERC1155Token(_name, _symbol, _baseURI){}\r\n                \r\n    uint256 internal streamingRate = 10;\r\n   \r\n    mapping(uint256 => address[]) public subowners;\r\n    mapping(uint256 => mapping(address => uint256)) public shares;\r\n    mapping(uint256 => uint256[]) public relatedNFTs; //tokenNo to array of tokenNos\r\n    mapping(uint256 => uint256) public relatedNFTCount;\r\n    mapping(uint256 => uint256) public specialSwag;\r\n    mapping(uint256 => uint256) public swagPrice;\r\n    mapping(uint256 => string) public tokenURI;\r\n    mapping(uint256 => address[]) public views;\r\n\r\n    function setStreamingRate(uint256 rate) public onlyOwner {\r\n        streamingRate = rate;\r\n    }\r\n    \r\n    function getStreamingRate() public view returns (uint256 ){\r\n        return streamingRate;\r\n    }\r\n    \r\n    function uploadVideo(\r\n        address _producer, \r\n        string calldata _uri) \r\n        public returns (uint256){\r\n            uint256 _id = _createNFT(_producer, 1, _uri, \"\");\r\n            tokenURI[_id] = _uri;\r\n            return _id;\r\n    }\r\n\r\n    function addFractionalOwners(\r\n        uint256 _tokenId, \r\n        address[] calldata _subowners, \r\n        uint256[] memory _share) public {\r\n        \r\n        require(creators[_tokenId] == msg.sender, \"Carnival#addFractionalOwners: ONLY_CREATOR_ALLOWED\");\r\n        require(_subowners.length == _share.length, \"Carnival#addFractionalOwners: INVALID_INPUT_SUBOWNERS_OR_SHARE\");\r\n        for (uint256 i = 0; i < _subowners.length; i++) {\r\n            subowners[_tokenId].push(_subowners[i]);\r\n            shares[_tokenId][_subowners[i]] = _share[i];\r\n        }\r\n    }\r\n    \r\n    function createSwagNFT(\r\n        uint256 _tokenId, \r\n        uint256 _quantity,\r\n        uint256 _price, \r\n        string calldata _uri)\r\n        public returns (uint256){\r\n            require(creators[_tokenId] == msg.sender, \"Carnival#createSwagNFT: ONLY_CREATOR_ALLOWED\");\r\n            uint256 _id = _createNFT(msg.sender, _quantity, _uri, \"\");\r\n            relatedNFTs[_tokenId].push(_id);\r\n            relatedNFTCount[_tokenId]++;\r\n            swagPrice[_id] = _price;\r\n            tokenURI[_id] = _uri;\r\n            return _id;\r\n    }\r\n    \r\n    function createSpecialSwag(\r\n        uint256 _tokenId,\r\n        string calldata _uri)\r\n        public returns (uint256) {\r\n            require(creators[_tokenId] == msg.sender, \"Carnival#createSwagNFT: ONLY_CREATOR_ALLOWED\");\r\n            uint256 _id = _createNFT(msg.sender, 1, _uri, \"\");\r\n            specialSwag[_tokenId] = _id;\r\n            tokenURI[_id] = _uri;\r\n            return _id;\r\n        }\r\n\r\n    //watch video\r\n    function watchVideo(uint256 _tokenId) public payable {\r\n      //Fetch the video creator\r\n      address receiver = creators[_tokenId];\r\n      payable(receiver).transfer(msg.value);\r\n    }\r\n\r\n    function addViewer(uint256 _tokenId) public {        \r\n        views[_tokenId].push(msg.sender);\r\n    }\r\n    \r\n}\r\n",
  "sourcePath": "C:/Users/Rishikesh Kale/Carnival/src/contracts/Carnival.sol",
  "compiler": {
    "name": "solc",
    "version": "0.8.9+commit.e5eed63a.Emscripten.clang"
  },
  "schemaVersion": "3.4.1",
  "updatedAt": "2021-10-10T05:14:10.785Z",
  "networkType": "ethereum",
  "devdoc": {
    "kind": "dev",
    "methods": {
      "_createNFT(address,uint256,string,bytes)": {
        "details": "Creates a new token type and assigns _initialSupply to an address NOTE: remove onlyOwner if you want third parties to create new tokens on your contract (which may change your IDs)",
        "params": {
          "_data": "Data to pass if receiver is contract",
          "_initialOwner": "address of the first owner of the token",
          "_initialSupply": "amount to supply the first owner",
          "_uri": "URI for this token type"
        },
        "returns": {
          "_0": "The newly created token ID"
        }
      },
      "balanceOf(address,uint256)": {
        "details": "See {IERC1155-balanceOf}. Requirements: - `account` cannot be the zero address."
      },
      "balanceOfBatch(address[],uint256[])": {
        "details": "See {IERC1155-balanceOfBatch}. Requirements: - `accounts` and `ids` must have the same length."
      },
      "batchMint(address,uint256[],uint256[],bytes)": {
        "details": "Mint tokens for each id in _ids",
        "params": {
          "_data": "Data to pass if receiver is contract",
          "_ids": "Array of ids to mint",
          "_quantities": "Array of amounts of tokens to mint per id",
          "_to": "The address to mint tokens to"
        }
      },
      "getName()": {
        "details": "Gets the token name",
        "returns": {
          "_0": "string representing the token name"
        }
      },
      "getSymbol()": {
        "details": "Gets the token symbol",
        "returns": {
          "_0": "string representing the token symbol"
        }
      },
      "isApprovedForAll(address,address)": {
        "details": "See {IERC1155-isApprovedForAll}."
      },
      "mint(address,uint256,uint256,bytes)": {
        "details": "Mints some amount of tokens to an address",
        "params": {
          "_data": "Data to pass if receiver is contract",
          "_id": "Token ID to mint",
          "_quantity": "Amount of tokens to mint",
          "_to": "Address of the future owner of the token"
        }
      },
      "owner()": {
        "details": "Returns the address of the current owner."
      },
      "renounceOwnership()": {
        "details": "Leaves the contract without owner. It will not be possible to call `onlyOwner` functions anymore. Can only be called by the current owner. NOTE: Renouncing ownership will leave the contract without an owner, thereby removing any functionality that is only available to the owner."
      },
      "safeBatchTransferFrom(address,address,uint256[],uint256[],bytes)": {
        "details": "See {IERC1155-safeBatchTransferFrom}."
      },
      "safeTransferFrom(address,address,uint256,uint256,bytes)": {
        "details": "See {IERC1155-safeTransferFrom}."
      },
      "setApprovalForAll(address,bool)": {
        "details": "See {IERC1155-setApprovalForAll}."
      },
      "setBaseMetadataURI(string)": {
        "details": "Will update the base URL of token's URI",
        "params": {
          "_newBaseMetadataURI": "New base URL of token's URI"
        }
      },
      "setCreator(address,uint256[])": {
        "details": "Change the creator address for given tokens",
        "params": {
          "_ids": "Array of Token IDs to change creator",
          "_to": "Address of the new creator"
        }
      },
      "supportsInterface(bytes4)": {
        "details": "See {IERC165-supportsInterface}."
      },
      "transferOwnership(address)": {
        "details": "Transfers ownership of the contract to a new account (`newOwner`). Can only be called by the current owner."
      },
      "uri(uint256)": {
        "details": "See {IERC1155MetadataURI-uri}. This implementation returns the same URI for *all* token types. It relies on the token type ID substitution mechanism https://eips.ethereum.org/EIPS/eip-1155#metadata[defined in the EIP]. Clients calling this function must replace the `\\{id\\}` substring with the actual token type ID."
      }
    },
    "version": 1
  },
  "userdoc": {
    "kind": "user",
    "methods": {},
    "version": 1
  }
}