{
  "contractName": "ERC1155Token",
  "abi": [
    {
      "inputs": [
        {
          "internalType": "string",
          "name": "_name",
          "type": "string"
        },
        {
          "internalType": "string",
          "name": "_symbol",
          "type": "string"
        },
        {
          "internalType": "string",
          "name": "_baseURI",
          "type": "string"
        }
      ],
      "stateMutability": "nonpayable",
      "type": "constructor"
    },
    {
      "anonymous": false,
      "inputs": [
        {
          "indexed": true,
          "internalType": "address",
          "name": "account",
          "type": "address"
        },
        {
          "indexed": true,
          "internalType": "address",
          "name": "operator",
          "type": "address"
        },
        {
          "indexed": false,
          "internalType": "bool",
          "name": "approved",
          "type": "bool"
        }
      ],
      "name": "ApprovalForAll",
      "type": "event"
    },
    {
      "anonymous": false,
      "inputs": [
        {
          "indexed": true,
          "internalType": "address",
          "name": "previousOwner",
          "type": "address"
        },
        {
          "indexed": true,
          "internalType": "address",
          "name": "newOwner",
          "type": "address"
        }
      ],
      "name": "OwnershipTransferred",
      "type": "event"
    },
    {
      "anonymous": false,
      "inputs": [
        {
          "indexed": true,
          "internalType": "address",
          "name": "operator",
          "type": "address"
        },
        {
          "indexed": true,
          "internalType": "address",
          "name": "from",
          "type": "address"
        },
        {
          "indexed": true,
          "internalType": "address",
          "name": "to",
          "type": "address"
        },
        {
          "indexed": false,
          "internalType": "uint256[]",
          "name": "ids",
          "type": "uint256[]"
        },
        {
          "indexed": false,
          "internalType": "uint256[]",
          "name": "values",
          "type": "uint256[]"
        }
      ],
      "name": "TransferBatch",
      "type": "event"
    },
    {
      "anonymous": false,
      "inputs": [
        {
          "indexed": true,
          "internalType": "address",
          "name": "operator",
          "type": "address"
        },
        {
          "indexed": true,
          "internalType": "address",
          "name": "from",
          "type": "address"
        },
        {
          "indexed": true,
          "internalType": "address",
          "name": "to",
          "type": "address"
        },
        {
          "indexed": false,
          "internalType": "uint256",
          "name": "id",
          "type": "uint256"
        },
        {
          "indexed": false,
          "internalType": "uint256",
          "name": "value",
          "type": "uint256"
        }
      ],
      "name": "TransferSingle",
      "type": "event"
    },
    {
      "anonymous": false,
      "inputs": [
        {
          "indexed": false,
          "internalType": "string",
          "name": "value",
          "type": "string"
        },
        {
          "indexed": true,
          "internalType": "uint256",
          "name": "id",
          "type": "uint256"
        }
      ],
      "name": "URI",
      "type": "event"
    },
    {
      "inputs": [
        {
          "internalType": "address",
          "name": "account",
          "type": "address"
        },
        {
          "internalType": "uint256",
          "name": "id",
          "type": "uint256"
        }
      ],
      "name": "balanceOf",
      "outputs": [
        {
          "internalType": "uint256",
          "name": "",
          "type": "uint256"
        }
      ],
      "stateMutability": "view",
      "type": "function"
    },
    {
      "inputs": [
        {
          "internalType": "address[]",
          "name": "accounts",
          "type": "address[]"
        },
        {
          "internalType": "uint256[]",
          "name": "ids",
          "type": "uint256[]"
        }
      ],
      "name": "balanceOfBatch",
      "outputs": [
        {
          "internalType": "uint256[]",
          "name": "",
          "type": "uint256[]"
        }
      ],
      "stateMutability": "view",
      "type": "function"
    },
    {
      "inputs": [
        {
          "internalType": "uint256",
          "name": "",
          "type": "uint256"
        }
      ],
      "name": "creators",
      "outputs": [
        {
          "internalType": "address",
          "name": "",
          "type": "address"
        }
      ],
      "stateMutability": "view",
      "type": "function"
    },
    {
      "inputs": [
        {
          "internalType": "address",
          "name": "account",
          "type": "address"
        },
        {
          "internalType": "address",
          "name": "operator",
          "type": "address"
        }
      ],
      "name": "isApprovedForAll",
      "outputs": [
        {
          "internalType": "bool",
          "name": "",
          "type": "bool"
        }
      ],
      "stateMutability": "view",
      "type": "function"
    },
    {
      "inputs": [],
      "name": "name",
      "outputs": [
        {
          "internalType": "string",
          "name": "",
          "type": "string"
        }
      ],
      "stateMutability": "view",
      "type": "function"
    },
    {
      "inputs": [],
      "name": "owner",
      "outputs": [
        {
          "internalType": "address",
          "name": "",
          "type": "address"
        }
      ],
      "stateMutability": "view",
      "type": "function"
    },
    {
      "inputs": [],
      "name": "renounceOwnership",
      "outputs": [],
      "stateMutability": "nonpayable",
      "type": "function"
    },
    {
      "inputs": [
        {
          "internalType": "address",
          "name": "from",
          "type": "address"
        },
        {
          "internalType": "address",
          "name": "to",
          "type": "address"
        },
        {
          "internalType": "uint256[]",
          "name": "ids",
          "type": "uint256[]"
        },
        {
          "internalType": "uint256[]",
          "name": "amounts",
          "type": "uint256[]"
        },
        {
          "internalType": "bytes",
          "name": "data",
          "type": "bytes"
        }
      ],
      "name": "safeBatchTransferFrom",
      "outputs": [],
      "stateMutability": "nonpayable",
      "type": "function"
    },
    {
      "inputs": [
        {
          "internalType": "address",
          "name": "from",
          "type": "address"
        },
        {
          "internalType": "address",
          "name": "to",
          "type": "address"
        },
        {
          "internalType": "uint256",
          "name": "id",
          "type": "uint256"
        },
        {
          "internalType": "uint256",
          "name": "amount",
          "type": "uint256"
        },
        {
          "internalType": "bytes",
          "name": "data",
          "type": "bytes"
        }
      ],
      "name": "safeTransferFrom",
      "outputs": [],
      "stateMutability": "nonpayable",
      "type": "function"
    },
    {
      "inputs": [
        {
          "internalType": "address",
          "name": "operator",
          "type": "address"
        },
        {
          "internalType": "bool",
          "name": "approved",
          "type": "bool"
        }
      ],
      "name": "setApprovalForAll",
      "outputs": [],
      "stateMutability": "nonpayable",
      "type": "function"
    },
    {
      "inputs": [
        {
          "internalType": "bytes4",
          "name": "interfaceId",
          "type": "bytes4"
        }
      ],
      "name": "supportsInterface",
      "outputs": [
        {
          "internalType": "bool",
          "name": "",
          "type": "bool"
        }
      ],
      "stateMutability": "view",
      "type": "function"
    },
    {
      "inputs": [],
      "name": "symbol",
      "outputs": [
        {
          "internalType": "string",
          "name": "",
          "type": "string"
        }
      ],
      "stateMutability": "view",
      "type": "function"
    },
    {
      "inputs": [
        {
          "internalType": "uint256",
          "name": "",
          "type": "uint256"
        }
      ],
      "name": "tokenSupply",
      "outputs": [
        {
          "internalType": "uint256",
          "name": "",
          "type": "uint256"
        }
      ],
      "stateMutability": "view",
      "type": "function"
    },
    {
      "inputs": [
        {
          "internalType": "address",
          "name": "newOwner",
          "type": "address"
        }
      ],
      "name": "transferOwnership",
      "outputs": [],
      "stateMutability": "nonpayable",
      "type": "function"
    },
    {
      "inputs": [
        {
          "internalType": "uint256",
          "name": "",
          "type": "uint256"
        }
      ],
      "name": "uri",
      "outputs": [
        {
          "internalType": "string",
          "name": "",
          "type": "string"
        }
      ],
      "stateMutability": "view",
      "type": "function"
    },
    {
      "inputs": [],
      "name": "getName",
      "outputs": [
        {
          "internalType": "string",
          "name": "",
          "type": "string"
        }
      ],
      "stateMutability": "view",
      "type": "function"
    },
    {
      "inputs": [],
      "name": "getSymbol",
      "outputs": [
        {
          "internalType": "string",
          "name": "",
          "type": "string"
        }
      ],
      "stateMutability": "view",
      "type": "function"
    },
    {
      "inputs": [
        {
          "internalType": "uint256",
          "name": "_id",
          "type": "uint256"
        }
      ],
      "name": "totalSupply",
      "outputs": [
        {
          "internalType": "uint256",
          "name": "",
          "type": "uint256"
        }
      ],
      "stateMutability": "view",
      "type": "function"
    },
    {
      "inputs": [
        {
          "internalType": "string",
          "name": "_newBaseMetadataURI",
          "type": "string"
        }
      ],
      "name": "setBaseMetadataURI",
      "outputs": [],
      "stateMutability": "nonpayable",
      "type": "function"
    },
    {
      "inputs": [
        {
          "internalType": "address",
          "name": "_initialOwner",
          "type": "address"
        },
        {
          "internalType": "uint256",
          "name": "_initialSupply",
          "type": "uint256"
        },
        {
          "internalType": "string",
          "name": "_uri",
          "type": "string"
        },
        {
          "internalType": "bytes",
          "name": "_data",
          "type": "bytes"
        }
      ],
      "name": "_createNFT",
      "outputs": [
        {
          "internalType": "uint256",
          "name": "",
          "type": "uint256"
        }
      ],
      "stateMutability": "nonpayable",
      "type": "function"
    },
    {
      "inputs": [
        {
          "internalType": "address",
          "name": "_to",
          "type": "address"
        },
        {
          "internalType": "uint256",
          "name": "_id",
          "type": "uint256"
        },
        {
          "internalType": "uint256",
          "name": "_quantity",
          "type": "uint256"
        },
        {
          "internalType": "bytes",
          "name": "_data",
          "type": "bytes"
        }
      ],
      "name": "mint",
      "outputs": [],
      "stateMutability": "nonpayable",
      "type": "function"
    },
    {
      "inputs": [
        {
          "internalType": "address",
          "name": "_to",
          "type": "address"
        },
        {
          "internalType": "uint256[]",
          "name": "_ids",
          "type": "uint256[]"
        },
        {
          "internalType": "uint256[]",
          "name": "_quantities",
          "type": "uint256[]"
        },
        {
          "internalType": "bytes",
          "name": "_data",
          "type": "bytes"
        }
      ],
      "name": "batchMint",
      "outputs": [],
      "stateMutability": "nonpayable",
      "type": "function"
    },
    {
      "inputs": [
        {
          "internalType": "address",
          "name": "_to",
          "type": "address"
        },
        {
          "internalType": "uint256[]",
          "name": "_ids",
          "type": "uint256[]"
        }
      ],
      "name": "setCreator",
      "outputs": [],
      "stateMutability": "nonpayable",
      "type": "function"
    }
  ],
  "bytecode": "0x608060405260006006553480156200001657600080fd5b50604051620043f6380380620043f683398181016040528101906200003c9190620003e1565b806200004e81620000aa60201b60201c565b506200006f62000063620000c660201b60201c565b620000ce60201b60201c565b82600490805190602001906200008792919062000194565b508160059080519060200190620000a092919062000194565b50505050620004ff565b8060029080519060200190620000c292919062000194565b5050565b600033905090565b6000600360009054906101000a900473ffffffffffffffffffffffffffffffffffffffff16905081600360006101000a81548173ffffffffffffffffffffffffffffffffffffffff021916908373ffffffffffffffffffffffffffffffffffffffff1602179055508173ffffffffffffffffffffffffffffffffffffffff168173ffffffffffffffffffffffffffffffffffffffff167f8be0079c531659141344cd1fd0a4f28419497f9722a3daafe3b4186f6b6457e060405160405180910390a35050565b828054620001a290620004c9565b90600052602060002090601f016020900481019282620001c6576000855562000212565b82601f10620001e157805160ff191683800117855562000212565b8280016001018555821562000212579182015b8281111562000211578251825591602001919060010190620001f4565b5b50905062000221919062000225565b5090565b5b808211156200024057600081600090555060010162000226565b5090565b6000604051905090565b600080fd5b600080fd5b600080fd5b600080fd5b6000601f19601f8301169050919050565b7f4e487b7100000000000000000000000000000000000000000000000000000000600052604160045260246000fd5b620002ad8262000262565b810181811067ffffffffffffffff82111715620002cf57620002ce62000273565b5b80604052505050565b6000620002e462000244565b9050620002f28282620002a2565b919050565b600067ffffffffffffffff82111562000315576200031462000273565b5b620003208262000262565b9050602081019050919050565b60005b838110156200034d57808201518184015260208101905062000330565b838111156200035d576000848401525b50505050565b60006200037a6200037484620002f7565b620002d8565b9050828152602081018484840111156200039957620003986200025d565b5b620003a68482856200032d565b509392505050565b600082601f830112620003c657620003c562000258565b5b8151620003d884826020860162000363565b91505092915050565b600080600060608486031215620003fd57620003fc6200024e565b5b600084015167ffffffffffffffff8111156200041e576200041d62000253565b5b6200042c86828701620003ae565b935050602084015167ffffffffffffffff81111562000450576200044f62000253565b5b6200045e86828701620003ae565b925050604084015167ffffffffffffffff81111562000482576200048162000253565b5b6200049086828701620003ae565b9150509250925092565b7f4e487b7100000000000000000000000000000000000000000000000000000000600052602260045260246000fd5b60006002820490506001821680620004e257607f821691505b60208210811415620004f957620004f86200049a565b5b50919050565b613ee7806200050f6000396000f3fe608060405234801561001057600080fd5b506004361061014c5760003560e01c80637e518ec8116100c3578063bd9c3a6d1161007c578063bd9c3a6d1461039d578063cd53d08e146103cd578063d2a6b51a146103fd578063e985e9c514610419578063f242432a14610449578063f2fde38b146104655761014c565b80637e518ec8146102dd5780638da5cb5b146102f957806395d89b4114610317578063a22cb46514610335578063b48ab8b614610351578063bd85b0391461036d5761014c565b806317d7de7c1161011557806317d7de7c1461021d5780632693ebf21461023b5780632eb2c2d61461026b5780634e1273f414610287578063715018a6146102b7578063731133e9146102c15761014c565b8062fdd58e1461015157806301ffc9a71461018157806306fdde03146101b15780630e89341c146101cf57806315070401146101ff575b600080fd5b61016b60048036038101906101669190612579565b610481565b60405161017891906125c8565b60405180910390f35b61019b6004803603810190610196919061263b565b61054a565b6040516101a89190612683565b60405180910390f35b6101b961062c565b6040516101c69190612737565b60405180910390f35b6101e960048036038101906101e49190612759565b6106ba565b6040516101f69190612737565b60405180910390f35b61020761074e565b6040516102149190612737565b60405180910390f35b6102256107e0565b6040516102329190612737565b60405180910390f35b61025560048036038101906102509190612759565b610872565b60405161026291906125c8565b60405180910390f35b61028560048036038101906102809190612983565b61088a565b005b6102a1600480360381019061029c9190612b15565b61092b565b6040516102ae9190612c4b565b60405180910390f35b6102bf610a44565b005b6102db60048036038101906102d69190612c6d565b610acc565b005b6102f760048036038101906102f29190612d91565b610bbe565b005b610301610c46565b60405161030e9190612de9565b60405180910390f35b61031f610c70565b60405161032c9190612737565b60405180910390f35b61034f600480360381019061034a9190612e30565b610cfe565b005b61036b60048036038101906103669190612e70565b610e7f565b005b61038760048036038101906103829190612759565b610fcf565b60405161039491906125c8565b60405180910390f35b6103b760048036038101906103b29190612f86565b610fec565b6040516103c491906125c8565b60405180910390f35b6103e760048036038101906103e29190612759565b6110cb565b6040516103f49190612de9565b60405180910390f35b6104176004803603810190610412919061302a565b6110fe565b005b610433600480360381019061042e9190613086565b6111bc565b6040516104409190612683565b60405180910390f35b610463600480360381019061045e91906130c6565b611250565b005b61047f600480360381019061047a919061315d565b6112f1565b005b60008073ffffffffffffffffffffffffffffffffffffffff168373ffffffffffffffffffffffffffffffffffffffff1614156104f2576040517f08c379a00000000000000000000000000000000000000000000000000000000081526004016104e9906131fc565b60405180910390fd5b60008083815260200190815260200160002060008473ffffffffffffffffffffffffffffffffffffffff1673ffffffffffffffffffffffffffffffffffffffff16815260200190815260200160002054905092915050565b60007fd9b67a26000000000000000000000000000000000000000000000000000000007bffffffffffffffffffffffffffffffffffffffffffffffffffffffff1916827bffffffffffffffffffffffffffffffffffffffffffffffffffffffff1916148061061557507f0e89341c000000000000000000000000000000000000000000000000000000007bffffffffffffffffffffffffffffffffffffffffffffffffffffffff1916827bffffffffffffffffffffffffffffffffffffffffffffffffffffffff1916145b806106255750610624826113e9565b5b9050919050565b600480546106399061324b565b80601f01602080910402602001604051908101604052809291908181526020018280546106659061324b565b80156106b25780601f10610687576101008083540402835291602001916106b2565b820191906000526020600020905b81548152906001019060200180831161069557829003601f168201915b505050505081565b6060600280546106c99061324b565b80601f01602080910402602001604051908101604052809291908181526020018280546106f59061324b565b80156107425780601f1061071757610100808354040283529160200191610742565b820191906000526020600020905b81548152906001019060200180831161072557829003601f168201915b50505050509050919050565b60606005805461075d9061324b565b80601f01602080910402602001604051908101604052809291908181526020018280546107899061324b565b80156107d65780601f106107ab576101008083540402835291602001916107d6565b820191906000526020600020905b8154815290600101906020018083116107b957829003601f168201915b5050505050905090565b6060600480546107ef9061324b565b80601f016020809104026020016040519081016040528092919081815260200182805461081b9061324b565b80156108685780601f1061083d57610100808354040283529160200191610868565b820191906000526020600020905b81548152906001019060200180831161084b57829003601f168201915b5050505050905090565b60086020528060005260406000206000915090505481565b610892611453565b73ffffffffffffffffffffffffffffffffffffffff168573ffffffffffffffffffffffffffffffffffffffff1614806108d857506108d7856108d2611453565b6111bc565b5b610917576040517f08c379a000000000000000000000000000000000000000000000000000000000815260040161090e906132ef565b60405180910390fd5b610924858585858561145b565b5050505050565b60608151835114610971576040517f08c379a000000000000000000000000000000000000000000000000000000000815260040161096890613381565b60405180910390fd5b6000835167ffffffffffffffff81111561098e5761098d61278b565b5b6040519080825280602002602001820160405280156109bc5781602001602082028036833780820191505090505b50905060005b8451811015610a3957610a098582815181106109e1576109e06133a1565b5b60200260200101518583815181106109fc576109fb6133a1565b5b6020026020010151610481565b828281518110610a1c57610a1b6133a1565b5b60200260200101818152505080610a32906133ff565b90506109c2565b508091505092915050565b610a4c611453565b73ffffffffffffffffffffffffffffffffffffffff16610a6a610c46565b73ffffffffffffffffffffffffffffffffffffffff1614610ac0576040517f08c379a0000000000000000000000000000000000000000000000000000000008152600401610ab790613494565b60405180910390fd5b610aca600061176f565b565b823373ffffffffffffffffffffffffffffffffffffffff166007600083815260200190815260200160002060009054906101000a900473ffffffffffffffffffffffffffffffffffffffff1673ffffffffffffffffffffffffffffffffffffffff1614610b6e576040517f08c379a0000000000000000000000000000000000000000000000000000000008152600401610b6590613526565b60405180910390fd5b610b7a85858585611835565b610ba08360086000878152602001908152602001600020546119cb90919063ffffffff16565b60086000868152602001908152602001600020819055505050505050565b610bc6611453565b73ffffffffffffffffffffffffffffffffffffffff16610be4610c46565b73ffffffffffffffffffffffffffffffffffffffff1614610c3a576040517f08c379a0000000000000000000000000000000000000000000000000000000008152600401610c3190613494565b60405180910390fd5b610c43816119e1565b50565b6000600360009054906101000a900473ffffffffffffffffffffffffffffffffffffffff16905090565b60058054610c7d9061324b565b80601f0160208091040260200160405190810160405280929190818152602001828054610ca99061324b565b8015610cf65780601f10610ccb57610100808354040283529160200191610cf6565b820191906000526020600020905b815481529060010190602001808311610cd957829003601f168201915b505050505081565b8173ffffffffffffffffffffffffffffffffffffffff16610d1d611453565b73ffffffffffffffffffffffffffffffffffffffff161415610d74576040517f08c379a0000000000000000000000000000000000000000000000000000000008152600401610d6b906135b8565b60405180910390fd5b8060016000610d81611453565b73ffffffffffffffffffffffffffffffffffffffff1673ffffffffffffffffffffffffffffffffffffffff16815260200190815260200160002060008473ffffffffffffffffffffffffffffffffffffffff1673ffffffffffffffffffffffffffffffffffffffff16815260200190815260200160002060006101000a81548160ff0219169083151502179055508173ffffffffffffffffffffffffffffffffffffffff16610e2e611453565b73ffffffffffffffffffffffffffffffffffffffff167f17307eab39ab6107e8899845ad3d59bd9653f200f220920489ca2b5937696c3183604051610e739190612683565b60405180910390a35050565b60005b8351811015610fbc576000848281518110610ea057610e9f6133a1565b5b602002602001015190503373ffffffffffffffffffffffffffffffffffffffff166007600083815260200190815260200160002060009054906101000a900473ffffffffffffffffffffffffffffffffffffffff1673ffffffffffffffffffffffffffffffffffffffff1614610f4b576040517f08c379a0000000000000000000000000000000000000000000000000000000008152600401610f429061364a565b60405180910390fd5b6000848381518110610f6057610f5f6133a1565b5b60200260200101519050610f908160086000858152602001908152602001600020546119cb90919063ffffffff16565b600860008481526020019081526020016000208190555050508080610fb4906133ff565b915050610e82565b50610fc9848484846119fb565b50505050565b600060086000838152602001908152602001600020549050919050565b600080610ff7611c19565b9050611001611c36565b336007600083815260200190815260200160002060006101000a81548173ffffffffffffffffffffffffffffffffffffffff021916908373ffffffffffffffffffffffffffffffffffffffff160217905550600085859050111561109a57807f6bb7ff708619ba0610cba295a58592e0451dee2622938c8755667688daf3529b8686604051611091929190613697565b60405180910390a25b6110a687828886611835565b8560086000838152602001908152602001600020819055508091505095945050505050565b60076020528060005260406000206000915054906101000a900473ffffffffffffffffffffffffffffffffffffffff1681565b600073ffffffffffffffffffffffffffffffffffffffff168273ffffffffffffffffffffffffffffffffffffffff16141561116e576040517f08c379a00000000000000000000000000000000000000000000000000000000081526004016111659061372d565b60405180910390fd5b60005b81518110156111b757600082828151811061118f5761118e6133a1565b5b602002602001015190506111a38482611c50565b5080806111af906133ff565b915050611171565b505050565b6000600160008473ffffffffffffffffffffffffffffffffffffffff1673ffffffffffffffffffffffffffffffffffffffff16815260200190815260200160002060008373ffffffffffffffffffffffffffffffffffffffff1673ffffffffffffffffffffffffffffffffffffffff16815260200190815260200160002060009054906101000a900460ff16905092915050565b611258611453565b73ffffffffffffffffffffffffffffffffffffffff168573ffffffffffffffffffffffffffffffffffffffff16148061129e575061129d85611298611453565b6111bc565b5b6112dd576040517f08c379a00000000000000000000000000000000000000000000000000000000081526004016112d4906137bf565b60405180910390fd5b6112ea8585858585611d49565b5050505050565b6112f9611453565b73ffffffffffffffffffffffffffffffffffffffff16611317610c46565b73ffffffffffffffffffffffffffffffffffffffff161461136d576040517f08c379a000000000000000000000000000000000000000000000000000000000815260040161136490613494565b60405180910390fd5b600073ffffffffffffffffffffffffffffffffffffffff168173ffffffffffffffffffffffffffffffffffffffff1614156113dd576040517f08c379a00000000000000000000000000000000000000000000000000000000081526004016113d490613851565b60405180910390fd5b6113e68161176f565b50565b60007f01ffc9a7000000000000000000000000000000000000000000000000000000007bffffffffffffffffffffffffffffffffffffffffffffffffffffffff1916827bffffffffffffffffffffffffffffffffffffffffffffffffffffffff1916149050919050565b600033905090565b815183511461149f576040517f08c379a0000000000000000000000000000000000000000000000000000000008152600401611496906138e3565b60405180910390fd5b600073ffffffffffffffffffffffffffffffffffffffff168473ffffffffffffffffffffffffffffffffffffffff16141561150f576040517f08c379a000000000000000000000000000000000000000000000000000000000815260040161150690613975565b60405180910390fd5b6000611519611453565b9050611529818787878787611fcb565b60005b84518110156116da57600085828151811061154a576115496133a1565b5b602002602001015190506000858381518110611569576115686133a1565b5b60200260200101519050600080600084815260200190815260200160002060008b73ffffffffffffffffffffffffffffffffffffffff1673ffffffffffffffffffffffffffffffffffffffff1681526020019081526020016000205490508181101561160a576040517f08c379a000000000000000000000000000000000000000000000000000000000815260040161160190613a07565b60405180910390fd5b81810360008085815260200190815260200160002060008c73ffffffffffffffffffffffffffffffffffffffff1673ffffffffffffffffffffffffffffffffffffffff168152602001908152602001600020819055508160008085815260200190815260200160002060008b73ffffffffffffffffffffffffffffffffffffffff1673ffffffffffffffffffffffffffffffffffffffff16815260200190815260200160002060008282546116bf9190613a27565b92505081905550505050806116d3906133ff565b905061152c565b508473ffffffffffffffffffffffffffffffffffffffff168673ffffffffffffffffffffffffffffffffffffffff168273ffffffffffffffffffffffffffffffffffffffff167f4a39dc06d4c0dbc64b70af90fd698a233a518aa5d07e595d983b8c0526c8f7fb8787604051611751929190613a7d565b60405180910390a4611767818787878787611fd3565b505050505050565b6000600360009054906101000a900473ffffffffffffffffffffffffffffffffffffffff16905081600360006101000a81548173ffffffffffffffffffffffffffffffffffffffff021916908373ffffffffffffffffffffffffffffffffffffffff1602179055508173ffffffffffffffffffffffffffffffffffffffff168173ffffffffffffffffffffffffffffffffffffffff167f8be0079c531659141344cd1fd0a4f28419497f9722a3daafe3b4186f6b6457e060405160405180910390a35050565b600073ffffffffffffffffffffffffffffffffffffffff168473ffffffffffffffffffffffffffffffffffffffff1614156118a5576040517f08c379a000000000000000000000000000000000000000000000000000000000815260040161189c90613b26565b60405180910390fd5b60006118af611453565b90506118d0816000876118c1886121ba565b6118ca886121ba565b87611fcb565b8260008086815260200190815260200160002060008773ffffffffffffffffffffffffffffffffffffffff1673ffffffffffffffffffffffffffffffffffffffff168152602001908152602001600020600082825461192f9190613a27565b925050819055508473ffffffffffffffffffffffffffffffffffffffff16600073ffffffffffffffffffffffffffffffffffffffff168273ffffffffffffffffffffffffffffffffffffffff167fc3d58168c5ae7397731d063d5bbf3d657854427343f4c083240f7aacaa2d0f6287876040516119ad929190613b46565b60405180910390a46119c481600087878787612234565b5050505050565b600081836119d99190613a27565b905092915050565b80600290805190602001906119f792919061242e565b5050565b600073ffffffffffffffffffffffffffffffffffffffff168473ffffffffffffffffffffffffffffffffffffffff161415611a6b576040517f08c379a0000000000000000000000000000000000000000000000000000000008152600401611a6290613b26565b60405180910390fd5b8151835114611aaf576040517f08c379a0000000000000000000000000000000000000000000000000000000008152600401611aa6906138e3565b60405180910390fd5b6000611ab9611453565b9050611aca81600087878787611fcb565b60005b8451811015611b8357838181518110611ae957611ae86133a1565b5b6020026020010151600080878481518110611b0757611b066133a1565b5b6020026020010151815260200190815260200160002060008873ffffffffffffffffffffffffffffffffffffffff1673ffffffffffffffffffffffffffffffffffffffff1681526020019081526020016000206000828254611b699190613a27565b925050819055508080611b7b906133ff565b915050611acd565b508473ffffffffffffffffffffffffffffffffffffffff16600073ffffffffffffffffffffffffffffffffffffffff168273ffffffffffffffffffffffffffffffffffffffff167f4a39dc06d4c0dbc64b70af90fd698a233a518aa5d07e595d983b8c0526c8f7fb8787604051611bfb929190613a7d565b60405180910390a4611c1281600087878787611fd3565b5050505050565b6000611c3160016006546119cb90919063ffffffff16565b905090565b60066000815480929190611c49906133ff565b9190505550565b803373ffffffffffffffffffffffffffffffffffffffff166007600083815260200190815260200160002060009054906101000a900473ffffffffffffffffffffffffffffffffffffffff1673ffffffffffffffffffffffffffffffffffffffff1614611cf2576040517f08c379a0000000000000000000000000000000000000000000000000000000008152600401611ce990613526565b60405180910390fd5b826007600084815260200190815260200160002060006101000a81548173ffffffffffffffffffffffffffffffffffffffff021916908373ffffffffffffffffffffffffffffffffffffffff160217905550505050565b600073ffffffffffffffffffffffffffffffffffffffff168473ffffffffffffffffffffffffffffffffffffffff161415611db9576040517f08c379a0000000000000000000000000000000000000000000000000000000008152600401611db090613975565b60405180910390fd5b6000611dc3611453565b9050611de3818787611dd4886121ba565b611ddd886121ba565b87611fcb565b600080600086815260200190815260200160002060008873ffffffffffffffffffffffffffffffffffffffff1673ffffffffffffffffffffffffffffffffffffffff16815260200190815260200160002054905083811015611e7a576040517f08c379a0000000000000000000000000000000000000000000000000000000008152600401611e7190613a07565b60405180910390fd5b83810360008087815260200190815260200160002060008973ffffffffffffffffffffffffffffffffffffffff1673ffffffffffffffffffffffffffffffffffffffff168152602001908152602001600020819055508360008087815260200190815260200160002060008873ffffffffffffffffffffffffffffffffffffffff1673ffffffffffffffffffffffffffffffffffffffff1681526020019081526020016000206000828254611f2f9190613a27565b925050819055508573ffffffffffffffffffffffffffffffffffffffff168773ffffffffffffffffffffffffffffffffffffffff168373ffffffffffffffffffffffffffffffffffffffff167fc3d58168c5ae7397731d063d5bbf3d657854427343f4c083240f7aacaa2d0f628888604051611fac929190613b46565b60405180910390a4611fc2828888888888612234565b50505050505050565b505050505050565b611ff28473ffffffffffffffffffffffffffffffffffffffff1661241b565b156121b2578373ffffffffffffffffffffffffffffffffffffffff1663bc197c8187878686866040518663ffffffff1660e01b8152600401612038959493929190613bc4565b602060405180830381600087803b15801561205257600080fd5b505af192505050801561208357506040513d601f19601f820116820180604052508101906120809190613c41565b60015b6121295761208f613c7b565b806308c379a014156120ec57506120a4613c9d565b806120af57506120ee565b806040517f08c379a00000000000000000000000000000000000000000000000000000000081526004016120e39190612737565b60405180910390fd5b505b6040517f08c379a000000000000000000000000000000000000000000000000000000000815260040161212090613da5565b60405180910390fd5b63bc197c8160e01b7bffffffffffffffffffffffffffffffffffffffffffffffffffffffff1916817bffffffffffffffffffffffffffffffffffffffffffffffffffffffff1916146121b0576040517f08c379a00000000000000000000000000000000000000000000000000000000081526004016121a790613e37565b60405180910390fd5b505b505050505050565b60606000600167ffffffffffffffff8111156121d9576121d861278b565b5b6040519080825280602002602001820160405280156122075781602001602082028036833780820191505090505b509050828160008151811061221f5761221e6133a1565b5b60200260200101818152505080915050919050565b6122538473ffffffffffffffffffffffffffffffffffffffff1661241b565b15612413578373ffffffffffffffffffffffffffffffffffffffff1663f23a6e6187878686866040518663ffffffff1660e01b8152600401612299959493929190613e57565b602060405180830381600087803b1580156122b357600080fd5b505af19250505080156122e457506040513d601f19601f820116820180604052508101906122e19190613c41565b60015b61238a576122f0613c7b565b806308c379a0141561234d5750612305613c9d565b80612310575061234f565b806040517f08c379a00000000000000000000000000000000000000000000000000000000081526004016123449190612737565b60405180910390fd5b505b6040517f08c379a000000000000000000000000000000000000000000000000000000000815260040161238190613da5565b60405180910390fd5b63f23a6e6160e01b7bffffffffffffffffffffffffffffffffffffffffffffffffffffffff1916817bffffffffffffffffffffffffffffffffffffffffffffffffffffffff191614612411576040517f08c379a000000000000000000000000000000000000000000000000000000000815260040161240890613e37565b60405180910390fd5b505b505050505050565b600080823b905060008111915050919050565b82805461243a9061324b565b90600052602060002090601f01602090048101928261245c57600085556124a3565b82601f1061247557805160ff19168380011785556124a3565b828001600101855582156124a3579182015b828111156124a2578251825591602001919060010190612487565b5b5090506124b091906124b4565b5090565b5b808211156124cd5760008160009055506001016124b5565b5090565b6000604051905090565b600080fd5b600080fd5b600073ffffffffffffffffffffffffffffffffffffffff82169050919050565b6000612510826124e5565b9050919050565b61252081612505565b811461252b57600080fd5b50565b60008135905061253d81612517565b92915050565b6000819050919050565b61255681612543565b811461256157600080fd5b50565b6000813590506125738161254d565b92915050565b600080604083850312156125905761258f6124db565b5b600061259e8582860161252e565b92505060206125af85828601612564565b9150509250929050565b6125c281612543565b82525050565b60006020820190506125dd60008301846125b9565b92915050565b60007fffffffff0000000000000000000000000000000000000000000000000000000082169050919050565b612618816125e3565b811461262357600080fd5b50565b6000813590506126358161260f565b92915050565b600060208284031215612651576126506124db565b5b600061265f84828501612626565b91505092915050565b60008115159050919050565b61267d81612668565b82525050565b60006020820190506126986000830184612674565b92915050565b600081519050919050565b600082825260208201905092915050565b60005b838110156126d85780820151818401526020810190506126bd565b838111156126e7576000848401525b50505050565b6000601f19601f8301169050919050565b60006127098261269e565b61271381856126a9565b93506127238185602086016126ba565b61272c816126ed565b840191505092915050565b6000602082019050818103600083015261275181846126fe565b905092915050565b60006020828403121561276f5761276e6124db565b5b600061277d84828501612564565b91505092915050565b600080fd5b7f4e487b7100000000000000000000000000000000000000000000000000000000600052604160045260246000fd5b6127c3826126ed565b810181811067ffffffffffffffff821117156127e2576127e161278b565b5b80604052505050565b60006127f56124d1565b905061280182826127ba565b919050565b600067ffffffffffffffff8211156128215761282061278b565b5b602082029050602081019050919050565b600080fd5b600061284a61284584612806565b6127eb565b9050808382526020820190506020840283018581111561286d5761286c612832565b5b835b8181101561289657806128828882612564565b84526020840193505060208101905061286f565b5050509392505050565b600082601f8301126128b5576128b4612786565b5b81356128c5848260208601612837565b91505092915050565b600080fd5b600067ffffffffffffffff8211156128ee576128ed61278b565b5b6128f7826126ed565b9050602081019050919050565b82818337600083830152505050565b6000612926612921846128d3565b6127eb565b905082815260208101848484011115612942576129416128ce565b5b61294d848285612904565b509392505050565b600082601f83011261296a57612969612786565b5b813561297a848260208601612913565b91505092915050565b600080600080600060a0868803121561299f5761299e6124db565b5b60006129ad8882890161252e565b95505060206129be8882890161252e565b945050604086013567ffffffffffffffff8111156129df576129de6124e0565b5b6129eb888289016128a0565b935050606086013567ffffffffffffffff811115612a0c57612a0b6124e0565b5b612a18888289016128a0565b925050608086013567ffffffffffffffff811115612a3957612a386124e0565b5b612a4588828901612955565b9150509295509295909350565b600067ffffffffffffffff821115612a6d57612a6c61278b565b5b602082029050602081019050919050565b6000612a91612a8c84612a52565b6127eb565b90508083825260208201905060208402830185811115612ab457612ab3612832565b5b835b81811015612add5780612ac9888261252e565b845260208401935050602081019050612ab6565b5050509392505050565b600082601f830112612afc57612afb612786565b5b8135612b0c848260208601612a7e565b91505092915050565b60008060408385031215612b2c57612b2b6124db565b5b600083013567ffffffffffffffff811115612b4a57612b496124e0565b5b612b5685828601612ae7565b925050602083013567ffffffffffffffff811115612b7757612b766124e0565b5b612b83858286016128a0565b9150509250929050565b600081519050919050565b600082825260208201905092915050565b6000819050602082019050919050565b612bc281612543565b82525050565b6000612bd48383612bb9565b60208301905092915050565b6000602082019050919050565b6000612bf882612b8d565b612c028185612b98565b9350612c0d83612ba9565b8060005b83811015612c3e578151612c258882612bc8565b9750612c3083612be0565b925050600181019050612c11565b5085935050505092915050565b60006020820190508181036000830152612c658184612bed565b905092915050565b60008060008060808587031215612c8757612c866124db565b5b6000612c958782880161252e565b9450506020612ca687828801612564565b9350506040612cb787828801612564565b925050606085013567ffffffffffffffff811115612cd857612cd76124e0565b5b612ce487828801612955565b91505092959194509250565b600067ffffffffffffffff821115612d0b57612d0a61278b565b5b612d14826126ed565b9050602081019050919050565b6000612d34612d2f84612cf0565b6127eb565b905082815260208101848484011115612d5057612d4f6128ce565b5b612d5b848285612904565b509392505050565b600082601f830112612d7857612d77612786565b5b8135612d88848260208601612d21565b91505092915050565b600060208284031215612da757612da66124db565b5b600082013567ffffffffffffffff811115612dc557612dc46124e0565b5b612dd184828501612d63565b91505092915050565b612de381612505565b82525050565b6000602082019050612dfe6000830184612dda565b92915050565b612e0d81612668565b8114612e1857600080fd5b50565b600081359050612e2a81612e04565b92915050565b60008060408385031215612e4757612e466124db565b5b6000612e558582860161252e565b9250506020612e6685828601612e1b565b9150509250929050565b60008060008060808587031215612e8a57612e896124db565b5b6000612e988782880161252e565b945050602085013567ffffffffffffffff811115612eb957612eb86124e0565b5b612ec5878288016128a0565b935050604085013567ffffffffffffffff811115612ee657612ee56124e0565b5b612ef2878288016128a0565b925050606085013567ffffffffffffffff811115612f1357612f126124e0565b5b612f1f87828801612955565b91505092959194509250565b600080fd5b60008083601f840112612f4657612f45612786565b5b8235905067ffffffffffffffff811115612f6357612f62612f2b565b5b602083019150836001820283011115612f7f57612f7e612832565b5b9250929050565b600080600080600060808688031215612fa257612fa16124db565b5b6000612fb08882890161252e565b9550506020612fc188828901612564565b945050604086013567ffffffffffffffff811115612fe257612fe16124e0565b5b612fee88828901612f30565b9350935050606086013567ffffffffffffffff811115613011576130106124e0565b5b61301d88828901612955565b9150509295509295909350565b60008060408385031215613041576130406124db565b5b600061304f8582860161252e565b925050602083013567ffffffffffffffff8111156130705761306f6124e0565b5b61307c858286016128a0565b9150509250929050565b6000806040838503121561309d5761309c6124db565b5b60006130ab8582860161252e565b92505060206130bc8582860161252e565b9150509250929050565b600080600080600060a086880312156130e2576130e16124db565b5b60006130f08882890161252e565b95505060206131018882890161252e565b945050604061311288828901612564565b935050606061312388828901612564565b925050608086013567ffffffffffffffff811115613144576131436124e0565b5b61315088828901612955565b9150509295509295909350565b600060208284031215613173576131726124db565b5b60006131818482850161252e565b91505092915050565b7f455243313135353a2062616c616e636520717565727920666f7220746865207a60008201527f65726f2061646472657373000000000000000000000000000000000000000000602082015250565b60006131e6602b836126a9565b91506131f18261318a565b604082019050919050565b60006020820190508181036000830152613215816131d9565b9050919050565b7f4e487b7100000000000000000000000000000000000000000000000000000000600052602260045260246000fd5b6000600282049050600182168061326357607f821691505b602082108114156132775761327661321c565b5b50919050565b7f455243313135353a207472616e736665722063616c6c6572206973206e6f742060008201527f6f776e6572206e6f7220617070726f7665640000000000000000000000000000602082015250565b60006132d96032836126a9565b91506132e48261327d565b604082019050919050565b60006020820190508181036000830152613308816132cc565b9050919050565b7f455243313135353a206163636f756e747320616e6420696473206c656e67746860008201527f206d69736d617463680000000000000000000000000000000000000000000000602082015250565b600061336b6029836126a9565b91506133768261330f565b604082019050919050565b6000602082019050818103600083015261339a8161335e565b9050919050565b7f4e487b7100000000000000000000000000000000000000000000000000000000600052603260045260246000fd5b7f4e487b7100000000000000000000000000000000000000000000000000000000600052601160045260246000fd5b600061340a82612543565b91507fffffffffffffffffffffffffffffffffffffffffffffffffffffffffffffffff82141561343d5761343c6133d0565b5b600182019050919050565b7f4f776e61626c653a2063616c6c6572206973206e6f7420746865206f776e6572600082015250565b600061347e6020836126a9565b915061348982613448565b602082019050919050565b600060208201905081810360008301526134ad81613471565b9050919050565b7f45524331313535546f6b656e2363726561746f724f6e6c793a204f4e4c595f4360008201527f524541544f525f414c4c4f574544000000000000000000000000000000000000602082015250565b6000613510602e836126a9565b915061351b826134b4565b604082019050919050565b6000602082019050818103600083015261353f81613503565b9050919050565b7f455243313135353a2073657474696e6720617070726f76616c2073746174757360008201527f20666f722073656c660000000000000000000000000000000000000000000000602082015250565b60006135a26029836126a9565b91506135ad82613546565b604082019050919050565b600060208201905081810360008301526135d181613595565b9050919050565b7f45524331313535546f6b656e2362617463684d696e743a204f4e4c595f43524560008201527f41544f525f414c4c4f5745440000000000000000000000000000000000000000602082015250565b6000613634602c836126a9565b915061363f826135d8565b604082019050919050565b6000602082019050818103600083015261366381613627565b9050919050565b600061367683856126a9565b9350613683838584612904565b61368c836126ed565b840190509392505050565b600060208201905081810360008301526136b281848661366a565b90509392505050565b7f455243313135355472616461626c652373657443726561746f723a20494e564160008201527f4c49445f414444524553532e0000000000000000000000000000000000000000602082015250565b6000613717602c836126a9565b9150613722826136bb565b604082019050919050565b600060208201905081810360008301526137468161370a565b9050919050565b7f455243313135353a2063616c6c6572206973206e6f74206f776e6572206e6f7260008201527f20617070726f7665640000000000000000000000000000000000000000000000602082015250565b60006137a96029836126a9565b91506137b48261374d565b604082019050919050565b600060208201905081810360008301526137d88161379c565b9050919050565b7f4f776e61626c653a206e6577206f776e657220697320746865207a65726f206160008201527f6464726573730000000000000000000000000000000000000000000000000000602082015250565b600061383b6026836126a9565b9150613846826137df565b604082019050919050565b6000602082019050818103600083015261386a8161382e565b9050919050565b7f455243313135353a2069647320616e6420616d6f756e7473206c656e6774682060008201527f6d69736d61746368000000000000000000000000000000000000000000000000602082015250565b60006138cd6028836126a9565b91506138d882613871565b604082019050919050565b600060208201905081810360008301526138fc816138c0565b9050919050565b7f455243313135353a207472616e7366657220746f20746865207a65726f20616460008201527f6472657373000000000000000000000000000000000000000000000000000000602082015250565b600061395f6025836126a9565b915061396a82613903565b604082019050919050565b6000602082019050818103600083015261398e81613952565b9050919050565b7f455243313135353a20696e73756666696369656e742062616c616e636520666f60008201527f72207472616e7366657200000000000000000000000000000000000000000000602082015250565b60006139f1602a836126a9565b91506139fc82613995565b604082019050919050565b60006020820190508181036000830152613a20816139e4565b9050919050565b6000613a3282612543565b9150613a3d83612543565b9250827fffffffffffffffffffffffffffffffffffffffffffffffffffffffffffffffff03821115613a7257613a716133d0565b5b828201905092915050565b60006040820190508181036000830152613a978185612bed565b90508181036020830152613aab8184612bed565b90509392505050565b7f455243313135353a206d696e7420746f20746865207a65726f2061646472657360008201527f7300000000000000000000000000000000000000000000000000000000000000602082015250565b6000613b106021836126a9565b9150613b1b82613ab4565b604082019050919050565b60006020820190508181036000830152613b3f81613b03565b9050919050565b6000604082019050613b5b60008301856125b9565b613b6860208301846125b9565b9392505050565b600081519050919050565b600082825260208201905092915050565b6000613b9682613b6f565b613ba08185613b7a565b9350613bb08185602086016126ba565b613bb9816126ed565b840191505092915050565b600060a082019050613bd96000830188612dda565b613be66020830187612dda565b8181036040830152613bf88186612bed565b90508181036060830152613c0c8185612bed565b90508181036080830152613c208184613b8b565b90509695505050505050565b600081519050613c3b8161260f565b92915050565b600060208284031215613c5757613c566124db565b5b6000613c6584828501613c2c565b91505092915050565b60008160e01c9050919050565b600060033d1115613c9a5760046000803e613c97600051613c6e565b90505b90565b600060443d1015613cad57613d30565b613cb56124d1565b60043d036004823e80513d602482011167ffffffffffffffff82111715613cdd575050613d30565b808201805167ffffffffffffffff811115613cfb5750505050613d30565b80602083010160043d038501811115613d18575050505050613d30565b613d27826020018501866127ba565b82955050505050505b90565b7f455243313135353a207472616e7366657220746f206e6f6e204552433131353560008201527f526563656976657220696d706c656d656e746572000000000000000000000000602082015250565b6000613d8f6034836126a9565b9150613d9a82613d33565b604082019050919050565b60006020820190508181036000830152613dbe81613d82565b9050919050565b7f455243313135353a204552433131353552656365697665722072656a6563746560008201527f6420746f6b656e73000000000000000000000000000000000000000000000000602082015250565b6000613e216028836126a9565b9150613e2c82613dc5565b604082019050919050565b60006020820190508181036000830152613e5081613e14565b9050919050565b600060a082019050613e6c6000830188612dda565b613e796020830187612dda565b613e8660408301866125b9565b613e9360608301856125b9565b8181036080830152613ea58184613b8b565b9050969550505050505056fea2646970667358221220be815b6aad0fd5d027e9edb85c0748fcb8a4e1a508537d32663611deced08b6f64736f6c63430008090033",
  "immutableReferences": {},
  "source": "// SPDX-License-Identifier: MIT\r\npragma solidity ^0.8.0;\r\n\r\nimport \"@openzeppelin/contracts/token/ERC1155/ERC1155.sol\";\r\nimport \"@openzeppelin/contracts/access/Ownable.sol\";\r\nimport \"@openzeppelin/contracts/utils/math/SafeMath.sol\";\r\n\r\n/**\r\n * @title ERC1155Token\r\n * ERC1155Token - ERC1155 contract that has create and mint functionality, and supports useful standards from OpenZeppelin\r\n */\r\n \r\ncontract ERC1155Token is ERC1155, Ownable{\r\n    \r\n    using SafeMath for uint256;\r\n    \r\n    // Token name\r\n    string public name;\r\n    // Token symbol\r\n    string public symbol;\r\n    \r\n    uint256 private _currentTokenID = 0;\r\n    \r\n    mapping (uint256 => address) public creators;\r\n    \r\n    mapping (uint256 => uint256) public tokenSupply;\r\n    \r\n    constructor( string memory _name, string memory _symbol, string memory _baseURI) ERC1155(_baseURI){\r\n        name = _name;\r\n        symbol = _symbol;\r\n    }\r\n    \r\n    /**\r\n     * @dev Require msg.sender to be the creator of the token id\r\n     */\r\n    modifier creatorOnly(uint256 _id) {\r\n        require(creators[_id] == msg.sender, \"ERC1155Token#creatorOnly: ONLY_CREATOR_ALLOWED\");\r\n        _;\r\n    }\r\n  \r\n    /**\r\n     * @dev Gets the token name\r\n     * @return string representing the token name\r\n     */\r\n    function getName() public view returns (string memory) {\r\n        return name;\r\n    }\r\n    \r\n    /**\r\n     * @dev Gets the token symbol\r\n     * @return string representing the token symbol\r\n     */\r\n    function getSymbol() public view returns (string memory) {\r\n        return symbol;\r\n    }\r\n  \r\n    function totalSupply(uint256 _id) public view returns (uint256) {\r\n        return tokenSupply[_id];\r\n    }      \r\n    \r\n    /**\r\n     * @dev Will update the base URL of token's URI\r\n     * @param _newBaseMetadataURI New base URL of token's URI\r\n     */\r\n    function setBaseMetadataURI(string memory _newBaseMetadataURI) public onlyOwner {\r\n        _setURI(_newBaseMetadataURI);\r\n    }\r\n    \r\n        /**\r\n     * @dev Creates a new token type and assigns _initialSupply to an address\r\n     * NOTE: remove onlyOwner if you want third parties to create new tokens on your contract (which may change your IDs)\r\n     * @param _initialOwner address of the first owner of the token\r\n     * @param _initialSupply amount to supply the first owner\r\n     * @param _uri URI for this token type\r\n     * @param _data Data to pass if receiver is contract\r\n     * @return The newly created token ID\r\n     */\r\n    function _createNFT(\r\n        address _initialOwner,\r\n        uint256 _initialSupply,\r\n        string calldata _uri,\r\n        bytes memory _data) \r\n        public returns (uint256) {\r\n        \r\n        uint256 _id = _getNextTokenID();\r\n        _incrementTokenTypeId();\r\n        creators[_id] = msg.sender;\r\n    \r\n        if (bytes(_uri).length > 0) {\r\n          emit URI(_uri, _id);\r\n        }\r\n    \r\n        _mint(_initialOwner, _id, _initialSupply, _data);\r\n        tokenSupply[_id] = _initialSupply;\r\n        return _id;\r\n    }\r\n    \r\n    /**\r\n     * @dev Mints some amount of tokens to an address\r\n     * @param _to          Address of the future owner of the token\r\n     * @param _id          Token ID to mint\r\n     * @param _quantity    Amount of tokens to mint\r\n     * @param _data        Data to pass if receiver is contract\r\n     */\r\n    function mint(\r\n        address _to,\r\n        uint256 _id,\r\n        uint256 _quantity,\r\n        bytes memory _data\r\n      ) public creatorOnly(_id) {\r\n        _mint(_to, _id, _quantity, _data);\r\n        tokenSupply[_id] = tokenSupply[_id].add(_quantity);\r\n      }\r\n      \r\n    /**\r\n     * @dev Mint tokens for each id in _ids\r\n     * @param _to          The address to mint tokens to\r\n     * @param _ids         Array of ids to mint\r\n     * @param _quantities  Array of amounts of tokens to mint per id\r\n     * @param _data        Data to pass if receiver is contract\r\n     */\r\n    function batchMint(\r\n        address _to,\r\n        uint256[] memory _ids,\r\n        uint256[] memory _quantities,\r\n        bytes memory _data\r\n        ) public {\r\n        for (uint256 i = 0; i < _ids.length; i++) {\r\n          uint256 _id = _ids[i];\r\n          require(creators[_id] == msg.sender, \"ERC1155Token#batchMint: ONLY_CREATOR_ALLOWED\");\r\n          uint256 quantity = _quantities[i];\r\n          tokenSupply[_id] = tokenSupply[_id].add(quantity);\r\n        }\r\n        _mintBatch(_to, _ids, _quantities, _data);\r\n    }\r\n      \r\n    /**\r\n     * @dev Change the creator address for given tokens\r\n     * @param _to   Address of the new creator\r\n     * @param _ids  Array of Token IDs to change creator\r\n     */\r\n    function setCreator(\r\n        address _to,\r\n        uint256[] memory _ids\r\n      ) public {\r\n        require(_to != address(0), \"ERC1155Tradable#setCreator: INVALID_ADDRESS.\");\r\n        for (uint256 i = 0; i < _ids.length; i++) {\r\n          uint256 id = _ids[i];\r\n          _setCreator(_to, id);\r\n        }\r\n    }\r\n    \r\n    /**\r\n     * @dev Change the creator address for given token\r\n     * @param _to   Address of the new creator\r\n     * @param _id  Token IDs to change creator of\r\n     */\r\n    function _setCreator(address _to, uint256 _id) internal creatorOnly(_id)\r\n    {\r\n        creators[_id] = _to;\r\n    }\r\n  \r\n    /**\r\n     * @dev Returns whether the specified token exists by checking to see if it has a creator\r\n     * @param _id uint256 ID of the token to query the existence of\r\n     * @return bool whether the token exists\r\n     */\r\n    function _exists(\r\n        uint256 _id\r\n    ) internal view returns (bool) {\r\n        return creators[_id] != address(0);\r\n    }\r\n    \r\n    /**\r\n     * @dev calculates the next token ID based on value of _currentTokenID\r\n     * @return uint256 for the next token ID\r\n     */\r\n    function _getNextTokenID() private view returns (uint256) {\r\n        return _currentTokenID.add(1);\r\n    }\r\n    \r\n    /**\r\n     * @dev increments the value of _currentTokenID\r\n     */\r\n    function _incrementTokenTypeId() private  {\r\n        _currentTokenID++;\r\n    }\r\n}\r\n\r\n",
  "sourcePath": "C:/Users/Rishikesh Kale/Carnival/src/contracts/ERC1155Token.sol",
  "compiler": {
    "name": "solc",
    "version": "0.8.9+commit.e5eed63a.Emscripten.clang"
  },
  "schemaVersion": "3.4.1",
  "updatedAt": "2021-10-10T05:11:10.294Z",
  "devdoc": {
    "kind": "dev",
    "methods": {
      "_createNFT(address,uint256,string,bytes)": {
        "details": "Creates a new token type and assigns _initialSupply to an address NOTE: remove onlyOwner if you want third parties to create new tokens on your contract (which may change your IDs)",
        "params": {
          "_data": "Data to pass if receiver is contract",
          "_initialOwner": "address of the first owner of the token",
          "_initialSupply": "amount to supply the first owner",
          "_uri": "URI for this token type"
        },
        "returns": {
          "_0": "The newly created token ID"
        }
      },
      "balanceOf(address,uint256)": {
        "details": "See {IERC1155-balanceOf}. Requirements: - `account` cannot be the zero address."
      },
      "balanceOfBatch(address[],uint256[])": {
        "details": "See {IERC1155-balanceOfBatch}. Requirements: - `accounts` and `ids` must have the same length."
      },
      "batchMint(address,uint256[],uint256[],bytes)": {
        "details": "Mint tokens for each id in _ids",
        "params": {
          "_data": "Data to pass if receiver is contract",
          "_ids": "Array of ids to mint",
          "_quantities": "Array of amounts of tokens to mint per id",
          "_to": "The address to mint tokens to"
        }
      },
      "getName()": {
        "details": "Gets the token name",
        "returns": {
          "_0": "string representing the token name"
        }
      },
      "getSymbol()": {
        "details": "Gets the token symbol",
        "returns": {
          "_0": "string representing the token symbol"
        }
      },
      "isApprovedForAll(address,address)": {
        "details": "See {IERC1155-isApprovedForAll}."
      },
      "mint(address,uint256,uint256,bytes)": {
        "details": "Mints some amount of tokens to an address",
        "params": {
          "_data": "Data to pass if receiver is contract",
          "_id": "Token ID to mint",
          "_quantity": "Amount of tokens to mint",
          "_to": "Address of the future owner of the token"
        }
      },
      "owner()": {
        "details": "Returns the address of the current owner."
      },
      "renounceOwnership()": {
        "details": "Leaves the contract without owner. It will not be possible to call `onlyOwner` functions anymore. Can only be called by the current owner. NOTE: Renouncing ownership will leave the contract without an owner, thereby removing any functionality that is only available to the owner."
      },
      "safeBatchTransferFrom(address,address,uint256[],uint256[],bytes)": {
        "details": "See {IERC1155-safeBatchTransferFrom}."
      },
      "safeTransferFrom(address,address,uint256,uint256,bytes)": {
        "details": "See {IERC1155-safeTransferFrom}."
      },
      "setApprovalForAll(address,bool)": {
        "details": "See {IERC1155-setApprovalForAll}."
      },
      "setBaseMetadataURI(string)": {
        "details": "Will update the base URL of token's URI",
        "params": {
          "_newBaseMetadataURI": "New base URL of token's URI"
        }
      },
      "setCreator(address,uint256[])": {
        "details": "Change the creator address for given tokens",
        "params": {
          "_ids": "Array of Token IDs to change creator",
          "_to": "Address of the new creator"
        }
      },
      "supportsInterface(bytes4)": {
        "details": "See {IERC165-supportsInterface}."
      },
      "transferOwnership(address)": {
        "details": "Transfers ownership of the contract to a new account (`newOwner`). Can only be called by the current owner."
      },
      "uri(uint256)": {
        "details": "See {IERC1155MetadataURI-uri}. This implementation returns the same URI for *all* token types. It relies on the token type ID substitution mechanism https://eips.ethereum.org/EIPS/eip-1155#metadata[defined in the EIP]. Clients calling this function must replace the `\\{id\\}` substring with the actual token type ID."
      }
    },
    "title": "ERC1155Token ERC1155Token - ERC1155 contract that has create and mint functionality, and supports useful standards from OpenZeppelin",
    "version": 1
  },
  "userdoc": {
    "kind": "user",
    "methods": {},
    "version": 1
  }
}