{
  "contractName": "SpecialSwag",
  "abi": [
    {
      "inputs": [],
      "stateMutability": "nonpayable",
      "type": "constructor"
    },
    {
      "inputs": [],
      "name": "randomResult",
      "outputs": [
        {
          "internalType": "uint256",
          "name": "",
          "type": "uint256"
        }
      ],
      "stateMutability": "view",
      "type": "function",
      "constant": true
    },
    {
      "inputs": [
        {
          "internalType": "bytes32",
          "name": "requestId",
          "type": "bytes32"
        },
        {
          "internalType": "uint256",
          "name": "randomness",
          "type": "uint256"
        }
      ],
      "name": "rawFulfillRandomness",
      "outputs": [],
      "stateMutability": "nonpayable",
      "type": "function"
    },
    {
      "inputs": [],
      "name": "getRandomNumber",
      "outputs": [
        {
          "internalType": "bytes32",
          "name": "requestId",
          "type": "bytes32"
        }
      ],
      "stateMutability": "nonpayable",
      "type": "function"
    },
    {
      "inputs": [],
      "name": "getSpecialSwagWinner",
      "outputs": [
        {
          "internalType": "uint256",
          "name": "",
          "type": "uint256"
        }
      ],
      "stateMutability": "nonpayable",
      "type": "function"
    }
  ],
  "bytecode": "0x60c060405234801561001057600080fd5b5073dd3782915140c8f3b190b5d67eac6dc5760c46e973a36085f69e2889c224210f603d836748e7dc00888173ffffffffffffffffffffffffffffffffffffffff1660a08173ffffffffffffffffffffffffffffffffffffffff16815250508073ffffffffffffffffffffffffffffffffffffffff1660808173ffffffffffffffffffffffffffffffffffffffff168152505050507f6c3699283bda56ad74f6b855546325b68d482e983852a7a82979cc4807b641f460001b60018190555067016345785d8a000060028190555060805160a0516109dc6101106000396000818160e201526102c9015260008181610183015261028d01526109dc6000f3fe608060405234801561001057600080fd5b506004361061004c5760003560e01c8063033c688e1461005157806342619f661461006f57806394985ddd1461008d578063dbdff2c1146100a9575b600080fd5b6100596100c7565b6040516100669190610470565b60405180910390f35b6100776100da565b6040516100849190610470565b60405180910390f35b6100a760048036038101906100a291906104f2565b6100e0565b005b6100b161017c565b6040516100be9190610541565b60405180910390f35b60006100d161017c565b50600354905090565b60035481565b7f000000000000000000000000000000000000000000000000000000000000000073ffffffffffffffffffffffffffffffffffffffff163373ffffffffffffffffffffffffffffffffffffffff161461016e576040517f08c379a0000000000000000000000000000000000000000000000000000000008152600401610165906105b9565b60405180910390fd5b610178828261027e565b5050565b60006002547f000000000000000000000000000000000000000000000000000000000000000073ffffffffffffffffffffffffffffffffffffffff166370a08231306040518263ffffffff1660e01b81526004016101da919061061a565b60206040518083038186803b1580156101f257600080fd5b505afa158015610206573d6000803e3d6000fd5b505050506040513d601f19601f8201168201806040525081019061022a919061064a565b101561026b576040517f08c379a0000000000000000000000000000000000000000000000000000000008152600401610262906106e9565b60405180910390fd5b610279600154600254610289565b905090565b806003819055505050565b60007f000000000000000000000000000000000000000000000000000000000000000073ffffffffffffffffffffffffffffffffffffffff16634000aea07f0000000000000000000000000000000000000000000000000000000000000000848660006040516020016102fd929190610709565b6040516020818303038152906040526040518463ffffffff1660e01b815260040161032a939291906107cb565b602060405180830381600087803b15801561034457600080fd5b505af1158015610358573d6000803e3d6000fd5b505050506040513d601f19601f8201168201806040525081019061037c9190610841565b50600061039e84600030600080898152602001908152602001600020546103e8565b90506001600080868152602001908152602001600020546103bf919061089d565b600080868152602001908152602001600020819055506103df8482610424565b91505092915050565b60008484848460405160200161040194939291906108f3565b6040516020818303038152906040528051906020012060001c9050949350505050565b6000828260405160200161043992919061097a565b60405160208183030381529060405280519060200120905092915050565b6000819050919050565b61046a81610457565b82525050565b60006020820190506104856000830184610461565b92915050565b600080fd5b6000819050919050565b6104a381610490565b81146104ae57600080fd5b50565b6000813590506104c08161049a565b92915050565b6104cf81610457565b81146104da57600080fd5b50565b6000813590506104ec816104c6565b92915050565b600080604083850312156105095761050861048b565b5b6000610517858286016104b1565b9250506020610528858286016104dd565b9150509250929050565b61053b81610490565b82525050565b60006020820190506105566000830184610532565b92915050565b600082825260208201905092915050565b7f4f6e6c7920565246436f6f7264696e61746f722063616e2066756c66696c6c00600082015250565b60006105a3601f8361055c565b91506105ae8261056d565b602082019050919050565b600060208201905081810360008301526105d281610596565b9050919050565b600073ffffffffffffffffffffffffffffffffffffffff82169050919050565b6000610604826105d9565b9050919050565b610614816105f9565b82525050565b600060208201905061062f600083018461060b565b92915050565b600081519050610644816104c6565b92915050565b6000602082840312156106605761065f61048b565b5b600061066e84828501610635565b91505092915050565b7f4e6f7420656e6f756768204c494e4b202d2066696c6c20636f6e74726163742060008201527f7769746820666175636574000000000000000000000000000000000000000000602082015250565b60006106d3602b8361055c565b91506106de82610677565b604082019050919050565b60006020820190508181036000830152610702816106c6565b9050919050565b600060408201905061071e6000830185610532565b61072b6020830184610461565b9392505050565b600081519050919050565b600082825260208201905092915050565b60005b8381101561076c578082015181840152602081019050610751565b8381111561077b576000848401525b50505050565b6000601f19601f8301169050919050565b600061079d82610732565b6107a7818561073d565b93506107b781856020860161074e565b6107c081610781565b840191505092915050565b60006060820190506107e0600083018661060b565b6107ed6020830185610461565b81810360408301526107ff8184610792565b9050949350505050565b60008115159050919050565b61081e81610809565b811461082957600080fd5b50565b60008151905061083b81610815565b92915050565b6000602082840312156108575761085661048b565b5b60006108658482850161082c565b91505092915050565b7f4e487b7100000000000000000000000000000000000000000000000000000000600052601160045260246000fd5b60006108a882610457565b91506108b383610457565b9250827fffffffffffffffffffffffffffffffffffffffffffffffffffffffffffffffff038211156108e8576108e761086e565b5b828201905092915050565b60006080820190506109086000830187610532565b6109156020830186610461565b610922604083018561060b565b61092f6060830184610461565b95945050505050565b6000819050919050565b61095361094e82610490565b610938565b82525050565b6000819050919050565b61097461096f82610457565b610959565b82525050565b60006109868285610942565b6020820191506109968284610963565b602082019150819050939250505056fea264697066735822122036a411ab7fdda40c9bc3abe38960c7b1c0d9f582cde6d58b845e2c6bb41e532264736f6c63430008090033",
  "immutableReferences": {
    "155": [
      {
        "length": 32,
        "start": 387
      },
      {
        "length": 32,
        "start": 653
      }
    ],
    "157": [
      {
        "length": 32,
        "start": 226
      },
      {
        "length": 32,
        "start": 713
      }
    ]
  },
  "source": "// SPDX-License-Identifier: MIT\r\npragma solidity ^0.8.0;\r\n\r\nimport \"@chainlink/contracts/src/v0.8/VRFConsumerBase.sol\";\r\n\r\ncontract SpecialSwag is VRFConsumerBase {\r\n    \r\n    bytes32 internal keyHash;\r\n    uint256 internal fee;\r\n    uint256 public randomResult;\r\n    \r\n\r\n    constructor() \r\n        VRFConsumerBase(\r\n            0xdD3782915140c8f3b190B5D67eAc6dc5760C46E9, // VRF Coordinator\r\n            0xa36085F69e2889c224210F603D836748e7dC0088  // LINK Token\r\n        ) \r\n    {\r\n        keyHash = 0x6c3699283bda56ad74f6b855546325b68d482e983852a7a82979cc4807b641f4;\r\n        fee = 0.1 * 10 ** 18; // 0.1 LINK (Varies by network)\r\n    }\r\n    \r\n    /** \r\n     * Requests randomness \r\n     */\r\n    function getRandomNumber() public returns (bytes32 requestId) {\r\n        require(LINK.balanceOf(address(this)) >= fee, \"Not enough LINK - fill contract with faucet\");\r\n        return requestRandomness(keyHash, fee);\r\n    }\r\n\r\n    /**\r\n     * Callback function used by VRF Coordinator\r\n     */\r\n    function fulfillRandomness(bytes32 requestId, uint256 randomness) internal override {\r\n        randomResult = randomness;\r\n    }\r\n\r\n    /*\r\n     * get random number\r\n     */\r\n    function getSpecialSwagWinner() public returns (uint256) {\r\n        getRandomNumber();\r\n        return randomResult;\r\n    }\r\n}",
  "sourcePath": "C:/Users/Rishikesh Kale/Carnival/src/contracts/SpecialSwag.sol",
  "compiler": {
    "name": "solc",
    "version": "0.8.9+commit.e5eed63a.Emscripten.clang"
  },
  "schemaVersion": "3.4.1",
  "updatedAt": "2021-10-10T05:14:10.800Z",
  "networkType": "ethereum",
  "devdoc": {
    "kind": "dev",
    "methods": {},
    "version": 1
  },
  "userdoc": {
    "kind": "user",
    "methods": {
      "getRandomNumber()": {
        "notice": "Requests randomness "
      }
    },
    "version": 1
  }
}