{
  "contractName": "SpecialSwag",
  "abi": [
    {
      "inputs": [],
      "stateMutability": "nonpayable",
      "type": "constructor"
    },
    {
      "inputs": [],
      "name": "randomResult",
      "outputs": [
        {
          "internalType": "uint256",
          "name": "",
          "type": "uint256"
        }
      ],
      "stateMutability": "view",
      "type": "function"
    },
    {
      "inputs": [
        {
          "internalType": "bytes32",
          "name": "requestId",
          "type": "bytes32"
        },
        {
          "internalType": "uint256",
          "name": "randomness",
          "type": "uint256"
        }
      ],
      "name": "rawFulfillRandomness",
      "outputs": [],
      "stateMutability": "nonpayable",
      "type": "function"
    },
    {
      "inputs": [],
      "name": "getRandomNumber",
      "outputs": [
        {
          "internalType": "bytes32",
          "name": "requestId",
          "type": "bytes32"
        }
      ],
      "stateMutability": "nonpayable",
      "type": "function"
    },
    {
      "inputs": [],
      "name": "getSpecialSwagWinner",
      "outputs": [
        {
          "internalType": "uint256",
          "name": "",
          "type": "uint256"
        }
      ],
      "stateMutability": "nonpayable",
      "type": "function"
    }
  ],
  "bytecode": "0x60c060405234801561001057600080fd5b50738c7382f9d8f56b33781fe506e897a4f1e2d1725573326c977e6efc84e512bb9c30f76e30c160ed06fb8173ffffffffffffffffffffffffffffffffffffffff1660a08173ffffffffffffffffffffffffffffffffffffffff1660601b815250508073ffffffffffffffffffffffffffffffffffffffff1660808173ffffffffffffffffffffffffffffffffffffffff1660601b8152505050507f6e75b569a01ef56d18cab6a8e71e6600d6ce853834d4a5748b720d06f878b3a460001b600181905550655af3107a400060028190555060805160601c60a05160601c6109dc61011a6000396000818160e201526102c9015260008181610183015261028d01526109dc6000f3fe608060405234801561001057600080fd5b506004361061004c5760003560e01c8063033c688e1461005157806342619f661461006f57806394985ddd1461008d578063dbdff2c1146100a9575b600080fd5b6100596100c7565b604051610066919061076d565b60405180910390f35b6100776100da565b604051610084919061076d565b60405180910390f35b6100a760048036038101906100a291906104d8565b6100e0565b005b6100b161017c565b6040516100be91906106a4565b60405180910390f35b60006100d161017c565b50600354905090565b60035481565b7f000000000000000000000000000000000000000000000000000000000000000073ffffffffffffffffffffffffffffffffffffffff163373ffffffffffffffffffffffffffffffffffffffff161461016e576040517f08c379a00000000000000000000000000000000000000000000000000000000081526004016101659061074d565b60405180910390fd5b610178828261027e565b5050565b60006002547f000000000000000000000000000000000000000000000000000000000000000073ffffffffffffffffffffffffffffffffffffffff166370a08231306040518263ffffffff1660e01b81526004016101da919061064b565b60206040518083038186803b1580156101f257600080fd5b505afa158015610206573d6000803e3d6000fd5b505050506040513d601f19601f8201168201806040525081019061022a9190610518565b101561026b576040517f08c379a00000000000000000000000000000000000000000000000000000000081526004016102629061072d565b60405180910390fd5b610279600154600254610289565b905090565b806003819055505050565b60007f000000000000000000000000000000000000000000000000000000000000000073ffffffffffffffffffffffffffffffffffffffff16634000aea07f0000000000000000000000000000000000000000000000000000000000000000848660006040516020016102fd9291906106bf565b6040516020818303038152906040526040518463ffffffff1660e01b815260040161032a93929190610666565b602060405180830381600087803b15801561034457600080fd5b505af1158015610358573d6000803e3d6000fd5b505050506040513d601f19601f8201168201806040525081019061037c91906104ab565b50600061039e84600030600080898152602001908152602001600020546103e8565b90506001600080868152602001908152602001600020546103bf91906107b5565b600080868152602001908152602001600020819055506103df8482610424565b91505092915050565b60008484848460405160200161040194939291906106e8565b6040516020818303038152906040528051906020012060001c9050949350505050565b6000828260405160200161043992919061061f565b60405160208183030381529060405280519060200120905092915050565b60008151905061046681610961565b92915050565b60008135905061047b81610978565b92915050565b6000813590506104908161098f565b92915050565b6000815190506104a58161098f565b92915050565b6000602082840312156104c1576104c06108d3565b5b60006104cf84828501610457565b91505092915050565b600080604083850312156104ef576104ee6108d3565b5b60006104fd8582860161046c565b925050602061050e85828601610481565b9150509250929050565b60006020828403121561052e5761052d6108d3565b5b600061053c84828501610496565b91505092915050565b61054e8161080b565b82525050565b61055d81610829565b82525050565b61057461056f82610829565b610890565b82525050565b600061058582610788565b61058f8185610793565b935061059f81856020860161085d565b6105a8816108d8565b840191505092915050565b60006105c0602b836107a4565b91506105cb826108e9565b604082019050919050565b60006105e3601f836107a4565b91506105ee82610938565b602082019050919050565b61060281610853565b82525050565b61061961061482610853565b61089a565b82525050565b600061062b8285610563565b60208201915061063b8284610608565b6020820191508190509392505050565b60006020820190506106606000830184610545565b92915050565b600060608201905061067b6000830186610545565b61068860208301856105f9565b818103604083015261069a818461057a565b9050949350505050565b60006020820190506106b96000830184610554565b92915050565b60006040820190506106d46000830185610554565b6106e160208301846105f9565b9392505050565b60006080820190506106fd6000830187610554565b61070a60208301866105f9565b6107176040830185610545565b61072460608301846105f9565b95945050505050565b60006020820190508181036000830152610746816105b3565b9050919050565b60006020820190508181036000830152610766816105d6565b9050919050565b600060208201905061078260008301846105f9565b92915050565b600081519050919050565b600082825260208201905092915050565b600082825260208201905092915050565b60006107c082610853565b91506107cb83610853565b9250827fffffffffffffffffffffffffffffffffffffffffffffffffffffffffffffffff03821115610800576107ff6108a4565b5b828201905092915050565b600061081682610833565b9050919050565b60008115159050919050565b6000819050919050565b600073ffffffffffffffffffffffffffffffffffffffff82169050919050565b6000819050919050565b60005b8381101561087b578082015181840152602081019050610860565b8381111561088a576000848401525b50505050565b6000819050919050565b6000819050919050565b7f4e487b7100000000000000000000000000000000000000000000000000000000600052601160045260246000fd5b600080fd5b6000601f19601f8301169050919050565b7f4e6f7420656e6f756768204c494e4b202d2066696c6c20636f6e74726163742060008201527f7769746820666175636574000000000000000000000000000000000000000000602082015250565b7f4f6e6c7920565246436f6f7264696e61746f722063616e2066756c66696c6c00600082015250565b61096a8161081d565b811461097557600080fd5b50565b61098181610829565b811461098c57600080fd5b50565b61099881610853565b81146109a357600080fd5b5056fea264697066735822122073e57f56f5774815a2dcb4521f95d63f756a6f35737ff3577bc3cf93f1b6348064736f6c63430008070033",
  "immutableReferences": {
    "756": [
      {
        "length": 32,
        "start": 387
      },
      {
        "length": 32,
        "start": 653
      }
    ],
    "758": [
      {
        "length": 32,
        "start": 226
      },
      {
        "length": 32,
        "start": 713
      }
    ]
  },
  "source": "// SPDX-License-Identifier: MIT\r\npragma solidity ^0.8.0;\r\n\r\nimport \"@chainlink/contracts/src/v0.8/VRFConsumerBase.sol\";\r\n\r\ncontract SpecialSwag is VRFConsumerBase {\r\n    \r\n    bytes32 internal keyHash;\r\n    uint256 internal fee;\r\n    uint256 public randomResult;\r\n    \r\n\r\n    constructor() \r\n        VRFConsumerBase(\r\n            0x8C7382F9D8f56b33781fE506E897a4F1e2d17255, // VRF Coordinator\r\n            0x326C977E6efc84E512bB9C30f76E30c160eD06FB  // LINK Token\r\n        ) \r\n    {\r\n        keyHash = 0x6e75b569a01ef56d18cab6a8e71e6600d6ce853834d4a5748b720d06f878b3a4;\r\n        fee = 0.0001 * 10 ** 18; // 0.0001 LINK (Varies by network)\r\n    }\r\n    \r\n    /** \r\n     * Requests randomness \r\n     */\r\n    function getRandomNumber() public returns (bytes32 requestId) {\r\n        require(LINK.balanceOf(address(this)) >= fee, \"Not enough LINK - fill contract with faucet\");\r\n        return requestRandomness(keyHash, fee);\r\n    }\r\n\r\n    /**\r\n     * Callback function used by VRF Coordinator\r\n     */\r\n    function fulfillRandomness(bytes32 requestId, uint256 randomness) internal override {\r\n        randomResult = randomness;\r\n    }\r\n\r\n    /*\r\n     * get random number\r\n     */\r\n    function getSpecialSwagWinner() public returns (uint256) {\r\n        getRandomNumber();\r\n        return randomResult;\r\n    }\r\n}",
  "sourcePath": "C:/Users/Rishikesh Kale/Carnival/src/contracts/SpecialSwag.sol",
  "compiler": {
    "name": "solc",
    "version": "0.8.7+commit.e28d00a7.Emscripten.clang"
  },
  "schemaVersion": "3.4.1",
  "updatedAt": "2021-09-22T06:00:46.455Z",
  "devdoc": {
    "kind": "dev",
    "methods": {},
    "version": 1
  },
  "userdoc": {
    "kind": "user",
    "methods": {
      "getRandomNumber()": {
        "notice": "Requests randomness "
      }
    },
    "version": 1
  }
}